:020000040800F2
:10000000581A002089010008AF010008B10100085A
:1000100000000000000000000000000000000000E0
:10002000000000000000000000000000B301000814
:100030000000000000000000B50100084D2F00087E
:10004000B9010008B9010008B9010008B9010008A8
:10005000B9010008B9010008B9010008B901000898
:1000600000000000B9010008B9010008B90100084A
:10007000B9010008B9010008B9010008000000003A
:10008000B9010008B901000800000000B90100082A
:10009000B9010008B9010008B9010008B901000858
:1000A000B9010008B9010008B9010008B901000848
:1000B000B901000800000000000000002135000820
:1000C00000F002F800F034F80CA030C8083824180A
:1000D0002D18A246671EAB4654465D46AC4201D180
:1000E00000F026F87E460F3E0FCCB646012633427E
:1000F00000D0FB1AA246AB463343184754610000B8
:10010000746100000023002400250026103A01D36A
:1001100078C1FBD8520700D330C100D50B607047BF
:100120001FB50098019900F028FA1FBD10B510BD49
:1001300000F07DFA1146FFF7F3FF05F033F900F008
:1001400095FA03B4FFF7F2FF03BC00F0C5FA000014
:1001500070B505460C46164602E00FCC0FC5103EA2
:10016000102EFAD2082E02D303CC03C5083E042E6B
:1001700007D301CC01C5361F03E021782970641C28
:100180006D1C761EF9D270BD0F4880F308880F48A9
:100190000168090E0E4A914205D10E480E490160D0
:1001A0000E480F4901600F4880470F480047FEE79F
:1001B000FEE7FEE7FEE7FEE7FEE700000B480C491E
:1001C0000C4A0D4B70470000581A00200400000034
:1001D0001F00000018100240010000000000014054
:1001E000000000006D2F0008C10000085812002018
:1001F000581A0020581600205816002070B50646E0
:1002000000F09EF9056830460B30C408E400B442A3
:1002100001D8002070BD68682A46002818D00168FF
:10022000A14211D30B46214608318B4208D34368C3
:1002300001194B6003681B1B0B605160046001E0F7
:1002400041685160001D70BD024640680028E6D13B
:100250002146284600F07CF90028DCD170BD70B53D
:100260000446051F00F06CF90068002C1AD04468A1
:1002700001E020466468002C01D0AC42F9D301684B
:100280000A18AA4204D12A6805468918016000E0CC
:10029000456028684119A14205D1616869602168FB
:1002A0004018286070BD6C6070BD0000034670B5DA
:1002B00002460B439B070FD10E4CE60100E008C23B
:1002C00008C91D1B9D433542F9D0D9B21170521C8B
:1002D00000290DD01B0AF8E70B78491C1370521C3B
:1002E000002B05D00B78491C1370521C002BF3D146
:1002F00070BD000001010101F8B5042A2CD3830769
:1003000012D00B78491C0370401C521E83070BD07F
:100310000B78491C0370401C521E830704D00B78D5
:10032000491C0370401C521E8B079B0F05D0C91A35
:10033000DF002023DE1B08C90AE0FFF709FFF8BD34
:100340001D4608C9FD401C46B4402C4310C0121F76
:10035000042AF5D2F308C91A521EF0D40B78491CAE
:100360000370401C521EEAD40B78491C0370401CD9
:10037000012AE4D409780170F8BD01E004C0091F26
:100380000429FBD28B0701D50280801CC90700D04D
:100390000270704700290BD0C30702D00270401CC6
:1003A000491E022904D3830702D50280801C891EBE
:1003B000E3E70022EEE70022DFE78178C2780378E6
:1003C000090412061143427810021843084370478B
:1003D000020A08704A70020C8A70020ECA707047D6
:1003E000002203098B422CD3030A8B4211D3002332
:1003F0009C464EE003460B433CD4002243088B420C
:1004000031D303098B421CD3030A8B4201D3944698
:100410003FE0C3098B4201D3CB01C01A524183098B
:100420008B4201D38B01C01A524143098B4201D345
:100430004B01C01A524103098B4201D30B01C01A70
:100440005241C3088B4201D3CB00C01A52418308EA
:100450008B4201D38B00C01A524143088B4201D317
:100460004B00C01A5241411A00D201465241104677
:1004700070475DE0CA0F00D04942031000D34042EC
:10048000534000229C4603098B422DD3030A8B4222
:1004900012D3FC22890112BA030A8B420CD38901C0
:1004A00092118B4208D3890192118B4204D38901A6
:1004B0003AD0921100E08909C3098B4201D3CB01E4
:1004C000C01A524183098B4201D38B01C01A524199
:1004D00043098B4201D34B01C01A524103098B429D
:1004E00001D30B01C01A5241C3088B4201D3CB0088
:1004F000C01A524183088B4201D38B00C01A52416B
:10050000D9D243088B4201D34B00C01A5241411A41
:1005100000D20146634652415B10104601D340426F
:10052000002B00D54942704763465B1000D3404220
:1005300001B50020C046C04602BD704770477047F5
:10054000004870470012002070477047704770479E
:1005500038B504460A4600206946C046C046002811
:1005600005D002462046009900F040F8012038BD31
:1005700010B5012000F054F810BDF8B5C046C046D3
:10058000054600200C461020C0460646A819A04289
:100590000DD9324669460020C046C046070001D149
:1005A00000F03EF80098A04200D00546C419FFF7BD
:1005B000C7FFF61D07460560F008C000461928462B
:1005C00000F008F8B44204D031463868A21B00F0AD
:1005D0000DF8F8BD00210160416080607047102077
:1005E0007047000000487047F811002010B503461E
:1005F000406801E003464068002801D08842F9D3F2
:100600001868C3188B4206D0CB1CD808C000001D48
:10061000411A521A0146081D0A60FFF720FE10BD5C
:1006200010B500F031F800F029F810BD704775469C
:10063000FFF7D8FFAE46050069465346C008C00024
:10064000854618B020B5FFF7B9FD60BC0027490802
:10065000B6460026C0C5C0C5C0C5C0C5C0C5C0C55A
:10066000C0C5C0C5403D49008D46704710B5044621
:10067000C046C0462046FFF764FD10BD10B50028F7
:1006800001D000F029F810BD10B5012805D00021D7
:1006900003A000F027F8012010BD09A1F8E7000031
:1006A00053494752544D454D3A204F7574206F665B
:1006B0002068656170206D656D6F727900000000C3
:1006C0003A2048656170206D656D6F727920636FA7
:1006D000727275707465640001491820ABBEFEE744
:1006E0002600020070B505460C460A2000E06D1C8D
:1006F00000F012F8002D06D028780028F7D102E08B
:10070000641C00F009F8002C02D020780028F7D1F2
:100710000A2000F001F870BD08B569460870032092
:10072000ABBE08BD70B58C180578401C6B075B0F1D
:1007300001D10378401C2A1106D10278401C03E045
:100740000678401C0E70491C5B1EF9D12B0705D49E
:100750000023521E0DD40B70491CFAE70378401C8D
:10076000CB1A921C03E01D780D70491C5B1C521EB5
:10077000F9D5A142D8D3002070BD0000002806D0D2
:100780000649096840221143044A116005E0034903
:10079000096840229143014A11607047006C004093
:1007A000002806D00649096820221143044A116036
:1007B00005E00349096820229143014A116070470E
:1007C000006C0040FFB544480068024609321446F8
:1007D00041480068039041480090002576E0009869
:1007E0000078002816D0002002900EE02679F00054
:1007F000801B093012181446E078002801D104B09B
:10080000F0BD0298401CC0B2029000980778029890
:100810008742EBDCA800324F3C5026790932002099
:1008200001904BE0134698780007000F2D4FB873E6
:1008300058791F7900023843C01D4005010E987891
:100840008027384000281BD026480174817CD87846
:100850008007800F012804D0022805D0032809D181
:1008600003E04020014305E000BF40200F468743DE
:10087000394600BF00BF202001431A48817418E0A8
:100880001848C174417DD8788007800F012804D0B2
:10089000022805D0032809D103E04020014305E0E8
:1008A00000BF40200F468743394600BF00BF0D48B8
:1008B0004175D21D0198401CC0B201900198B04210
:1008C000B0DB681CC5B20098401C0090039800790A
:1008D000A84284DC012092E7080100200C010020DE
:1008E000BC070020005C004010B50D4800780028CF
:1008F00008D001210B48006801F0A2F90020084946
:10090000087010BD08480078002807D0012105486C
:10091000006801F095F900200349087000BFF0E776
:100920008C020020240100208D02002070B50546B5
:100930000C464423124A13A1002001F09BFD1848E5
:100940000068002800D170BD47230D4A0DA100208A
:1009500001F090FD012013490870A1B21048006811
:10096000C171090A01720E480068401CFFF725FD9D
:10097000064622462946FFF7BFFC00BFE3E700001A
:10098000D46100082323232066756E6374696F6E3B
:100990003D2573206C696E653D2564200A000000CA
:1009A000900200208D02002070B5044611480460BA
:1009B000227811A1002001F05DFD2078002817D0D9
:1009C000601CFFF7FAFC0546A27963791002184310
:1009D0000146284605F060F9012011490870A17907
:1009E00062790802104303490968C871000A087255
:1009F000012070BD900200204472697665725F54D8
:100A000072616E736665725374617274207049729C
:100A1000622D3E6D5F697354783D25640A000000C5
:100A20008C0200207FB51E46012E07D16846007A51
:100A30001A4988734825084645742EE018A10020FD
:100A4000019A01F017FD0198401C002825D001985B
:100A5000402804DA019C0020C043019003E04024B8
:100A600001984038019018A10020019A01F002FD80
:100A70006946087A2146009A00F0E8F822461DA14E
:100A8000002001F0F7FC0098001900906946087AF0
:100A9000024988730125084645747FBD005C00400B
:100AA000456E64706F696E7442756C6B496E207030
:100AB000626973746174652E6E42797465734C65F6
:100AC00066743D25640A000032323220456E64703F
:100AD0006F696E7442756C6B496E207062697374D5
:100AE0006174652E6E42797465734C6566743D253C
:100AF000640A000033333320456E64706F696E748E
:100B000042756C6B496E206E42797465733D256445
:100B10000A0000007FB5089E012E07D16846007BC1
:100B2000194988739025084605752BE06846007BB7
:100B3000154988730846057D20E01348C47D2402CA
:100B4000807D0443029800190199884205DD002048
:100B50000D490875204604B070BD6946087B2146E2
:100B6000009A00F013F802980019029000980019FA
:100B700000900020044908750846057DE807C00F6D
:100B80000028DAD12046E6E7005C0040F7B582B0E5
:100B900006460C463346224615A1002001F06AFCA9
:100BA000002C1CD0B0001B49401801902746049D22
:100BB00013E02A7818A1002001F05CFC0098401C8A
:100BC000009000980A2803D116A1002001F052FCE1
:100BD0000198007828706D1C7F1E002FE9D13346E4
:100BE000224611A1002001F045FC05B0F0BD000037
:100BF0007374617274204649464F52656164206E79
:100C00004279746573203D202564206E45503D2552
:100C1000640A0000205C00402030782530327820C3
:100C2000000000000A0000000A2020656E642046D3
:100C300049464F52656164206E4279746573203D68
:100C4000202564206E45503D25640A00F7B582B02A
:100C500006460C46002000903346224614A101F0BF
:100C600009FC002C1CD0B0001A49401801902746FE
:100C7000049D13E02A7818A1002001F0FBFB2978DD
:100C8000019801706D1C0098401C009000980A2883
:100C900003D114A1002001F0EDFB7F1E002FE9D14C
:100CA0003346224610A1002001F0E4FB05B0F0BD60
:100CB0007374617274204649464F57726974652097
:100CC0006E4279746573203D202564206E45503D49
:100CD00025640A00205C00402030782530327820DE
:100CE000000000000A0000000A20656E64204649EA
:100CF000464F5772697465206E4279746573203D62
:100D0000202564206E45503D25640A00F0B50A4652
:100D100000210023002400BF3DE001258D402B462B
:100D200015681D402C469C4234D11579012D02D006
:100D30001579022D16D185684F000326BE40B543B4
:100D4000856055794E00B540866835438560858855
:100D500001268E40B5438580858896798E40B6B24F
:100D60003543858005684F000326BE40B5430560C6
:100D700015794E00B540066835430560C5684F00DB
:100D80000326BE40B543C560D5794E00B540C66860
:100D90003543C560491C1029BFD3F0BD0246002071
:100DA000138A0B40002B01D0012000E00020704787
:100DB000002A01D0816100E0018570470148006888
:100DC00070470000FC00002070B504460D460B493A
:100DD0000220FFF7FDFA211D0120FFF7F9FA214655
:100DE000083106484338FFF7F3FA21460220FFF79F
:100DF000EFFA40200249487470BD0000B707002098
:100E0000005C004070B504460D460B490320FFF717
:100E1000DFFA211D0120FFF7DBFA214608310648E1
:100E20004238FFF7D5FA21460220FFF7D1FA4020D9
:100E30000249487470BD0000B7070020005C004004
:100E400070B504460D4615480068012824D9E87895
:100E5000A978000208430012012804D0022804D017
:100E6000032818D100E000BF00BF0D490120FFF7A3
:100E7000AFFA211D0120FFF7ABFA214608310848DF
:100E80005338FFF7A5FA21460220FFF7A1FA4020C8
:100E90000449487400BF00BF70BD00000401002079
:100EA000B7070020005C004070B504460D460A49B3
:100EB0000A20FFF78DFA21460020FFF789FAE8782B
:100EC000A9780002084300120349533908744020EE
:100ED0000249487470BD0000B7070020005C004064
:100EE00070B504460D4609490B20FFF771FA2146FB
:100EF0000020FFF76DFAE878A9780002084303495B
:100F00005339487440200249487470BDB707002027
:100F1000005C004070B504460D46E878A9780002F0
:100F200008430012012804D0022803D003281CD152
:100F30001AE01AE00E490920FFF74AFAE979AA797E
:100F4000090211430846211DFFF742FA21460120FC
:100F5000FFF73EFA2146083105485338FFF738FAC3
:100F600040200449487400E000BF00BF70BD00008D
:100F7000B7070020005C0040002905D0426801232B
:100F8000DB039A43426004E042680123DB031A4317
:100F900042607047002904D0026801231A430260AE
:100FA00003E00268520852000260704710B5044620
:100FB0000B48844209D10121480501F09FF9002125
:100FC0000120400501F09AF908E00121880501F0AF
:100FD00095F900210120800501F090F910BD000075
:100FE00000540040002905D0426801235B031A43E6
:100FF000426004E0426801235B039A434260704709
:10100000002905D0426801239B031A43426004E093
:10101000426801239B039A434260704710B50A4619
:10102000002103685B085B0003600168144B1940F2
:101030009468240253682343194301600F24240653
:101040001368A34303610368012423430360002161
:101050008160C16014699369234319468160836884
:101060000124E40323438360D16803680B430360D6
:101070004168044B194053691943416010BD000099
:10108000FFE0CF00FF7FFF07002905D14268012361
:101090009B029A43426004E0426801239B021A4388
:1010A000426070470146486AC0B27047816270472B
:1010B0000A4600214168890A890293059B0D19435C
:1010C000416070470021016041608160C160016141
:1010D0000121C9034161002181617047FFB581B0E1
:1010E00004461E462746022531122A466D1CB95475
:1010F0002A466D1CBE54029801122A466D1CB95432
:101100002A466D1C0298B854781932460399FFF7A5
:10111000F3F8A670300AE070284605B0F0BD000074
:1011200070B504460D460E212046FFF742F90648E9
:101130002070000A60700620A0700020E070257109
:10114000280A6071062070BD40400000F7B588B0E5
:101150000020C04306900590022004AB30222021DD
:101160000090434803F0DCFD05900598002802DA62
:1011700005980BB0F0BD6946087C0002497C084325
:1011800002900298FFF73AF8039002990398FFF74C
:1011900010F902980090312220213548039B03F07A
:1011A000BFFD05900598002804DA0398FFF757F86B
:1011B0000598DEE70298001D80B2019002980A307F
:1011C00086B200BF35462846FFF718F8044640208F
:1011D00020706070FF20000230400012A070E670A6
:1011E000AA20207101206071FF21090201980840A6
:1011F0000012A0710198E0710020207260723246E6
:101200000A3A20460A300399FFF776F80A980580D3
:10121000099F1848B870000AF8703D70280A787065
:10122000381DFFF7CAF800280AD179783A78090200
:1012300011430846FEF7E2FF391D0090FFF7C8F89A
:10124000381DFFF7BAF80090787839780002084323
:10125000024621460098FFF74FF80398FEF7FFFF7C
:10126000059807902046FEF7FAFF079881E70000EF
:101270000054004001AA0000F7B58CB00020C04324
:101280000A9005460C980A30FFF797F808900898DE
:10129000C07A00020899097B084306900698062840
:1012A0000CDD0699881FFEF7A9FF07900698821F9C
:1012B00008990F310798FFF71FF803E00020C0439B
:1012C0000FB0F0BD0698801F0004010E08A8017140
:1012D0000698801FC1B208A84171022009AB2022E4
:1012E000114600907F4803F059FD0546002D04DAB1
:1012F0000798FEF7B4FF2846E2E70698801F0090A3
:10130000212220217748079B03F048FD0546002D48
:1013100004DA0798FEF7A3FF2846D1E7012008A9C1
:10132000087109AB1022202100906E4803F036FDB1
:101330000546002D04DA0798FEF791FF2846BFE71F
:10134000002008A90871012009AB1022202100907B
:10135000644803F0E5FC0546002D04DA0798FEF723
:101360007EFF2846ACE708A8007900110590059893
:10137000012805D00798FEF772FF0020C0439FE7C1
:10138000002108A801714171022009AB112220211E
:101390000090544803F0C4FC0546002D04DA079879
:1013A000FEF75DFF28468BE708A80079010208A830
:1013B000407908430490002108A80171417102207E
:1013C00009AB202211460090464803F0A9FC0546CF
:1013D000002D04DA0798FEF742FF284670E708A8B8
:1013E0004079002809D108A80079002805D107987C
:1013F000FEF735FF0020C04362E708A90879000224
:101400004979084306900798FEF729FF0498FEF7EC
:10141000F5FE079004980090122220213148079B86
:1014200003F07EFC0546002D04DA0798FEF717FF4F
:10143000284645E70498001D0390049807460A379C
:10144000029700BF029F3846FEF7D8FE04464020B0
:1014500020706070FF200002029F38400012A070D0
:10146000029FE770AA20207103206071FF2109020A
:10147000039808400012A0710398E07100202072C8
:1014800060720E9807800D9E1748B070000AF070C9
:10149000B8B23070000A7070301DFEF78EFF002861
:1014A0000AD171783278090211430846FEF7A6FE88
:1014B000311D0190FEF78CFF301DFEF77EFF01907D
:1014C0007078317800020843024621460198FEF701
:1014D00013FF0798FEF7C3FE20460B95FEF7BFFEED
:1014E0000B98EDE60054004001AA000070B50446D8
:1014F0000D46082D27D1607C217C00020843552130
:10150000490288420ED0607C217C000208431249C7
:10151000884207D0607C217C000208430E49C91C28
:10152000884203D1204601F0A7FB13E0607C217CB8
:1015300000020843094988420CD100221146204686
:1015400001F0B6FB06E0052D03D1204601F094FB27
:1015500000E000BF002070BD02AA0000021D0000D4
:10156000F8B50D461646EA2030802C461348A07088
:10157000000AE070EA20207000206070201DFEF755
:101580001CFF00280AD1617822780902114308461D
:10159000FEF734FE0746211DFEF71AFF201DFEF759
:1015A0000CFF074660782178000208430246044990
:1015B0003846FEF7A1FE0020F8BD0000011D000026
:1015C0004001002070B50446264625462E212046BF
:1015D000FEF7EFFE284601F045FB0A2030700020A0
:1015E00070700120B070291D0948FEF7F1FE2946F0
:1015F00008310848FEF7ECFE29460C310648FEF794
:10160000E7FE29460548006800F0E8F9012070BDB2
:10161000ED14000821160008E5160008240100203A
:10162000FFB581B00E4614461F4600200090707929
:10163000317900020843054600203880681C81B2D9
:101640002046FFF76DFD01980574290A4174552065
:101650004002854205D16A46A11D3046FFF776FD5E
:101660002BE01D48854205D16A46A11D3046FFF793
:1016700003FE22E01848C01C85421ED01D20000237
:10168000854205D16A46A11D3046FFF769FF14E087
:101690001248854208D16A46A11D304604F05CFA22
:1016A00001200F49087008E00C48401C854204D115
:1016B0006A46A11D3046FFF753FF684600880028A0
:1016C00007D068460388A21D00212046FFF706FDCB
:1016D0003880002005B0F0BD02AA0000021D000005
:1016E0000000002003460020704770B50246002429
:1016F0001546002305E02E786D1C3019C4B2581C25
:1017000083B28B42F7DBE043401CC0B270BDFFB533
:1017100083B004460E9D02942846093087B2002DFE
:1017200001D0781C87B20A212046FEF742FEA52090
:10173000C0432070000A6070A770380AE0706846E5
:10174000007C2071059860710698A0710C98E0717A
:1017500008210298FFF7C9FF20722A462046093067
:101760000D99FEF7C9FD0D9EB01D002810D0001D7B
:10177000FEF723FE00280BD030460A30FEF71DFE90
:101780000190FEF76CFD31460A310020FEF720FE85
:101790002046093002902946FFF7A7FF02994855D5
:1017A000384607B0F0BD7FB505460C46002600213F
:1017B00003916846007B402188434030039000201D
:1017C0000090019002906379A27928460399FFF76F
:1017D0009EFF0646304604B070BD000070B504465A
:1017E0000D4610492046FEF7E4FD0E48001F211863
:1017F0002846FEF7EDFD0B483F38211820463630CD
:10180000FEF7E6FD07483B38211820468030FEF7FA
:10181000DFFD044837382118024849382018FEF700
:10182000D7FD70BD05050000F8B504460D462046FD
:101830002B30FEF7C2FD009020462B30FEF7BDFD99
:10184000071D3846FEF7B9FD064629460098B04701
:10185000F8BD034600207047FEB504460D46164607
:101860000027062D36D1207801280CD11A482018DF
:10187000FEF7A3FD172201460190204600F02EF846
:101880000220207026E0207802281AD11248001D7C
:101890002018FEF792FD31460190FFF784FF0746BE
:1018A0000D48001D2018FEF788FD0190002003461A
:1018B0003A4600902046019900F0BEFA03202070BD
:1018C00008E02078032805D105212046FFF7ACFF6A
:1018D000052020700020FEBDCA040000F8B50546B2
:1018E0000F4616469F20C0002C181248864201D988
:1018F0000020F8BD10A1002000F0BCFD00202070E9
:10190000611C3846FEF764FDB1B26171090AA1712C
:101910000021E17121720748C5302818FEF74DFDFE
:101920000090204600998847002800D1E1E7012077
:10193000DFE700003C040000496170324C696E6BC7
:101940005F5263764461746120704972622D3E6D0E
:101950005F6973547820093D2066616C7365200AC5
:101960000000000070B50446BD23134A13A10020F7
:1019700000F080FD18482018FEF71FFD05469F2047
:10198000C0002018A847002800D170BDC3230A4A10
:101990000AA1002000F06EFD0F481F382118487D75
:1019A000097D00020843024601210B482F38201808
:1019B00001F0F0F90120E8E7A361000823232320C8
:1019C00066756E6374696F6E3D2573206C696E6514
:1019D0003D25640A000000000105000070B50446C2
:1019E0000D462F210A5D095D491CCBB22F210B55F5
:1019F0005100521821463031501803222946FEF773
:101A00007BFC21462B312846FEF7E2FC70BD00002E
:101A100010B504461C482018007DC307DB0F1B4A85
:101A20001BA1002000F026FD17482018007DC007EC
:101A3000C00F002826D01448201801F047FA0028CB
:101A400020D0FF23C233114A1FA1002000F012FD55
:101A5000272040012018007D272149016118497D78
:101A6000884205DD272040012018407DFF2809D14C
:101A7000FF23C733054A14A1002000F0FBFC2046D9
:101A8000FFF770FF10BD0000D2040000C76100081E
:101A90002323232066756E6374696F6E3D25732062
:101AA00070496170324C696E6B2D3E6D5F526554AA
:101AB0007854696D65722E6D5F69735374617274C9
:101AC0003D25640A000000002323232066756E6311
:101AD00074696F6E3D2573206C696E653D25640ADF
:101AE0000000000070B588B0044600BF21482018EF
:101AF000FEF763FC064602212046FFF795FE03A889
:101B000000F062FA2F20005D41004218214630317A
:101B100005A80230FEF7F0FB002107916846007F20
:101B200080218843803007902F20005D41004018BD
:101B30000A3003A900220092019102902320025D45
:101B4000005D401CC3B22320035500233046079993
:101B5000FFF7DDFD05460A207D23DB002A463146DE
:101B60000090204600F068F901202070002008B0A5
:101B700070BD0000C60400007047000038B5044680
:101B80000DA1002000F076FCFF207D23DB00062263
:101B90000E490090204600F04FF9002803D10CA117
:101BA00000F068FC38BD14A1002000F063FC0020A8
:101BB000207000BFF6E70000496170324C696E6B1F
:101BC0005F53746172742E0A000000002801002027
:101BD0007878787878782053656E6420696E6974B7
:101BE00069616C697A6174696F6E20706B742066CC
:101BF00061696C65642E0A007878787878787878EE
:101C00007878787853656E6420696E697469616C60
:101C1000697A6174696F6E20706B74207375636389
:101C200065737366756C2E0A0000000010B50446DB
:101C30000248201801F0F6F810BD0000D2040000A0
:101C4000FEB504460E469F20C00027180025002E32
:101C500001D0062000E007200190FF236D33534A96
:101C600053A1002000F006FC002E07D15748201891
:101C7000007DC007C00F002800D0FEBDFF237633D3
:101C80004A4A4BA1002000F0F5FBFF238133474A6D
:101C900047A1002000F0EEFB9F20C0002018401C50
:101CA000FEF78BFB0546397AFA79080210430028C3
:101CB00053D03878002850D19F20C0002018017AD6
:101CC000C3790802184302462946204600F046F927
:101CD000002803D13EA100F0CDFBCEE7FF238C33DB
:101CE000324A33A1002000F0C5FB28790007C00F5D
:101CF000002807D03CA1002000F0BCFB2046FFF7E5
:101D00003BFFBAE72879C006C00F002807D03AA1E8
:101D1000002000F0AFFB2046FFF7E4FEADE7287996
:101D20004006C00F002811D028798006C00F002877
:101D30000CD0FF239D331D4A1DA1002000F09AFB0B
:101D40002A4620460199FFF784FD96E7FF23A33337
:101D5000164A17A1002000F08DFB2078FF23A63340
:101D6000124A29A10090002000F084FB207801286D
:101D700006D0022805D0032804D0052812D107E098
:101D800000BF00BF2A4620460199FFF765FD09E024
:101D900020462B30FEF711FB2A460090019900F0F7
:101DA00087FC00BF00BF00BF67E70000B16100080B
:101DB0002323232066756E6374696F6E3D2573203F
:101DC0006C696E653D2564200A000000D2040000A5
:101DD0005061636B6574207665726966792066610F
:101DE000696C6564210A00004C696E6B20536C6558
:101DF00065702E0A000000004C696E6B20526573FE
:101E000065742E0A000000002323232066756E638C
:101E100074696F6E3D2573206C696E653D25642085
:101E200070496170324C696E6B2D3E6D5F53746109
:101E300074653D25640A0000FFB581B0044617466D
:101E40001E469F20C00025183B464A2223A10020A1
:101E500000F010FB272040012018007D401C2721A6
:101E60004901611808752AA1002000F003FB012038
:101E70002870691C0298FEF7ABFAB9B26971090AB9
:101E8000A9710021E97129722721490161180A9875
:101E90004875B0B2284961180875000A4875264887
:101EA0001F302018FEF789FA0090284600998847CD
:101EB000002805D121A100F0DDFA002005B0F0BD19
:101EC0000A98002808D0002E06D0324601211A4870
:101ED0001038201800F05EFF0120EFE749617032F2
:101EE0004C696E6B5F5478446174612073697A65E4
:101EF0006F6628496170324C696E6B526571506B28
:101F000074293D2564206C656E3D25640A0000003F
:101F1000496170324C696E6B5F5478446174612022
:101F2000704972622D3E6D5F6973547820093D20BF
:101F300054727565200A0000E204000049617032A5
:101F40004C696E6B5F547844617461097265747595
:101F5000726E2046616C736565200A00FEB5064608
:101F60000C4615460027201D02909F20C000301807
:101F7000401CFEF722FA0190E078A17800020843A5
:101F80000090092D05DB0098A84202D10C4885423B
:101F900001DD0020FEBD6078217800020843094978
:101FA000884201D00020F5E708212046FFF79DFB7D
:101FB0000746207AB84201D00020EBE70120E9E78C
:101FC0001E8000005AFF000010B504461021204674
:101FD000FEF7EFF90120207060708020A0701E20B5
:101FE000E07005202071DC2060710020A071E0719C
:101FF0000A2020720020607210BD000070B50646F5
:102000000C463546002C01D1002070BD0020206018
:10201000002E07D1606026461B230C4A0CA100F05D
:1020200029FA0BE004E02D68A54201D10020ECE77D
:1020300028680028F7D12C60656000BF0B48006855
:10204000401C0A4908603046DFE70000E2610008F2
:1020500023232323232066756E6374696F6E3D25E9
:1020600073206C696E653D2564200A00940200208F
:10207000014800687047000094020020704700008B
:1020800070B5044625464B23424A43A1002000F088
:10209000F1F9002C07D14F233E4A46A1002000F061
:1020A000E9F9002070BD52233A4A3BA1002000F01C
:1020B000E1F96068002810D15823364A36A100F0B3
:1020C000D9F92568002D01D0002068605F23314ACE
:1020D00031A1002000F0CEF93DE065232D4A2EA16C
:1020E000002000F0C7F96168206808606823294A69
:1020F00029A1002000F0BEF92068002808D06C2338
:10210000244A25A1002000F0B5F9216860684860E4
:102110007023204A20A1002000F0ACF972231D4A50
:102120001DA1002000F0A6F90CE07623194A1AA19F
:10213000002000F09FF96D687923164A16A100204F
:1021400000F098F968680028EFD17C23114A12A1A9
:1021500000F090F900BF80230E4A0FA1002000F08C
:1021600089F90020606083230A4A0BA100F082F9FC
:10217000002020608623074A07A100F07BF914485D
:102180000068002804DD12480068401E10490860FD
:10219000284687E7F661000823232323232066755A
:1021A0006E6374696F6E3D2573206C696E653D25A5
:1021B00064200A002323232066756E6374696F6EA2
:1021C0003D2573206C696E653D25640A00000000A2
:1021D0009402002000218278002A27D0184A032385
:1021E0001B02D21803789B109B00D15802789207EB
:1021F000D30EFF229A400B4693431946427892072A
:10220000120E03789B07DB0E9A4011430C4A0323FE
:102210001B02D21803789B109B00D1500278D30682
:10222000DB0E01229A40064B1A6007E00278D306C3
:10223000DB0E01229A40024B80331A607047000087
:1022400000E100E010B5002819DA1A4A03071B0F55
:10225000083B9B089B00D2588307DC0EFF23A3405A
:102260009A438B071B0E8407E40EA3401A43114BBD
:102270000407240F083CA408A4001A5118E00E4AD1
:1022800003231B02D21883089B00D2588307DC0E5D
:10229000FF23A3409A438B071B0E8407E40EA34041
:1022A0001A43054B032424021B198408A4001A5165
:1022B00010BD00001CED00E000E100E0002905D0A9
:1022C000054A52690243044B5A6104E0024A5269CA
:1022D0008243014B5A61704700100240002905D02B
:1022E000054AD2690243044BDA6104E0024AD2692A
:1022F0008243014BDA61704700100240002905D08B
:10230000054A12690243044B1A6104E0024A126949
:102310008243014B1A6170470010024010B502461B
:102320000021002300205111002902D10C4C236808
:102330000BE0012902D10A4C236A06E0022902D1EE
:10234000074C636A01E0064C636BD106C90E012499
:102350008C401C40002C01D0012000E0002010BD6A
:1023600000100240002807D00749496B01221204DF
:102370001143054A516306E00349496B01221204E7
:102380009143014A51637047001002400549096BAF
:1023900080229143034A11631146096B0143116383
:1023A0007047000000100240F8B504460D4616467E
:1023B00000BF0E480078002801D102F0B5F800BF38
:1023C000EFF310800746012080F3108800BF00BFA4
:1023D00032462946204600F00BF80090F8B280F310
:1023E000108800BF00BF0098F8BD0000380800202A
:1023F000F7B582B007461646039801901820784337
:102400001B494018009000984069002804D001281A
:1024100011D0022826D11EE0009802F0BDF8054632
:10242000B54201D2002405E03446324601990098B5
:1024300002F035FA18E0009802F0AEF80546B54211
:1024400001D2284600E03046044622460199009811
:1024500002F025FA08E032460199009802F0E2F90C
:10246000044601E0002400BF00BF204605B0F0BDD7
:10247000500800200FB438B5044606A800906A46FC
:102480002046059900F008F80546002000902846EF
:1024900038BC08BC04B01847F7B59AB00D461446CE
:1024A00002A8159040201690002017901A981990B5
:1024B0000020189000BF2E786D1C002E00D1E4E0A3
:1024C000252E79D100270120149000BF2E78232ECD
:1024D00012D02B2E0CD02D2E02D0302E10D103E096
:1024E000012007436D1C0EE0022007436D1C0AE02B
:1024F000042007436D1C06E0082007436D1C02E022
:102500000020149000BF00BF14980028DED1129064
:1025100000BF2E78302E01DB392E00DD08E06D1C67
:102520000A21129848433146303940181290F0E79A
:1025300000BF002013902E782E2E11D16D1C00BFED
:102540002E78302E01DB392E00DD08E06D1C0A21CB
:10255000139848433146303940181390F0E700BFD4
:102560002E7800BF6C2E01D0682E02D16D1C2E7803
:1025700000E000E0F6E700BF702E63D008DC252EF7
:1025800072D0582E38D0632E09D0642E71D114E049
:10259000732E40D0752E1FD0782E6AD12BE0216883
:1025A000081D2060086814901498C0B2019015A806
:1025B000019902F015F95DE05FE02168081D2060D7
:1025C000086814901298019700900A2215A8139B8E
:1025D000149901F0EFFF4DE02168081D20600868A4
:1025E00014901298019700900A2215A8139B149931
:1025F00002F068F83EE000BF2168081D206008680E
:102600001490129801970090102215A8139B14990A
:1026100002F058F82EE02168081D2060086801903B
:1026200000BF019806780198401C0190002E00D14F
:1026300006E0314615A802F0D3F818980028F0DA21
:1026400000BF17E02168081D206008681490002072
:1026500008210B4610220091019015A8149902F050
:1026600031F807E000E004E0252115A802F0B8F8F1
:1026700000E000BF00BF6D1C03E0314615A802F06A
:10268000AFF81898002800DB15E700BF189800285D
:102690000BDD1798002804D002A9179A1A98FFF7A3
:1026A00083FE179918984018189018981DB0F0BD1F
:1026B000F8B504460D461646062D0BD0204600F010
:1026C00045F8201DFDF779FE074629462046B84704
:1026D0000020F8BDE078062806D13246294620467B
:1026E00000F052FAC0B2F4E7E078072806D132468B
:1026F0002946204600F09EF8C0B2EAE7E0780828B4
:1027000006D132462946204600F070FAC0B2E0E712
:10271000E078092806D132462946204600F078F9AB
:10272000C0B2D6E7E078032805D1324629462046D4
:1027300000F0FEF9CDE7E078042805D132462946BD
:10274000204600F00FF8C4E70420C2E710B50446A5
:1027500003480068FFF76AFA0520E07010BD00002A
:1027600024010020F8B505460E461446A5231D4A4F
:102770001DA10020FFF77EFE062E01D00120F8BD2E
:102780002048006820494018FDF717FE4079A179DC
:10279000884209D11B4800681B494018FDF70DFE0F
:1027A00080796179884210D0164800681649091F5F
:1027B0004018FDF702FE47790097A37913A2002184
:1027C0000846FFF757FE0120D9E72846FFF7BEFF6E
:1027D000281DFDF7F2FD074608212846B8470020CE
:1027E000CDE700007B6100082323232066756E631C
:1027F00074696F6E3D2573206C696E653D25640AB2
:102800000000000024010020CA04000041636B5353
:1028100065714E756D5B307825785D5B3078257815
:102820005D206973206E6F74206D617463682E0A79
:1028300000000000F0B589B005460E4614460020A1
:102840000890E078A17800020843079047205F4B8A
:102850005FA2002100900846FFF70CFE062E02D072
:10286000012009B0F0BD6148006861494018FDF7DA
:10287000A4FD07466846828B21463846FDF73CFD9D
:102880006846808B09281CDD584801685848001D9F
:102890000818FDF792FD0930059054480068544926
:1028A0004018FDF78AFD0930049028460830FDF7EE
:1028B00084FD074607AB2846059A0499B847089057
:1028C00013E04CA200210846FFF7D4FD47480068FA
:1028D00047494018FDF771FD07464A2239464348EB
:1028E0000068FEF7FBFF0020BBE76846808B0028EE
:1028F00021D13E4800683E4908314018FDF75DFD92
:1029000007462146FEF74FFF81B20791374800681E
:10291000374908314018FDF750FD074600200346AF
:1029200000906846828B394630480068FFF784FA89
:102930000320E87047E0002106916846007E4021B0
:10294000884341180691294801682948001D081844
:10295000FDF733FD09300590244800682449091D1E
:102960004018FDF72AFD04906846828BE0790599AE
:102970006B4607C31D4800682030C2781B480068BA
:102980002030C078401CC7B2184800682030C7709B
:10299000637906990498FEF7BAFE81B2079113484D
:1029A00000681349091D4018FDF707FD0746002080
:1029B000034600906846828B39460C480068FFF752
:1029C0003BFA0820E87000204BE700003F61000858
:1029D0002323232066756E6374696F6E3D25732013
:1029E0006C696E653D25640A00000000240100202A
:1029F000C604000052656365697665206461746190
:102A000020697320696E76616C69642E0A0000008B
:102A1000FEB505460E461446E078A178000208434C
:102A2000074687232E4A2FA10020FFF723FD062EFD
:102A300001D00120FEBD3248006832494018FDF740
:102A4000BCFC4079A17988420FD02D4800682D49FF
:102A50004018FDF7B2FC40790190A27903462AA103
:102A60000020FFF707FD0120E4E72548016825481D
:102A7000001D0818FDF7A1FC3A4621460190FDF71C
:102A80003BFC092F0BD12846FFF760FE281DFDF700
:102A900094FC082101902846019A90471EE01848AE
:102AA0000068184908314018FDF787FC214601905D
:102AB000FEF779FE074612480068124908314018AF
:102AC000FDF77BFC0190002003463A4600900C483D
:102AD00001990068FFF7B0F90320E8700020A9E72A
:102AE000676100082323232066756E6374696F6E27
:102AF0003D2573206C696E653D25640A0000000069
:102B000024010020C604000041636B5365714E75BB
:102B10006D5B307825785D5B307825785D20697352
:102B2000206E6F74206D617463682E0A00000000CF
:102B3000F8B505460C461746B7230B4A0BA10020F3
:102B4000FFF798FC062C01D00120F8BD062C09D116
:102B50002846FFF7FBFD281DFDF72FFC0646052143
:102B60002846B0470020F0E78F6100082323232088
:102B700066756E6374696F6E3D2573206C696E6552
:102B80003D25640A00000000F8B504460D461646CF
:102B900032200D4B0DA2002100900846FFF76AFC81
:102BA000062D0ED1002003460122214600900E483A
:102BB0000068FFF741F9002803D00920E0700020E9
:102BC000F8BD0120FCE700002B610008232323202F
:102BD00066756E6374696F6E3D2573206C696E65F2
:102BE0003D25640A0000000024010020F8B50446D9
:102BF0000D461646F078B178000208430746762362
:102C00000E4A0FA10020FFF735FC062D01D0012050
:102C1000F8BD1248016812480818FDF7CEFB4A2299
:102C2000014600900D480068FEF758FE002803D0CA
:102C30000420E0700020EBE70120E9E75361000881
:102C40002323232066756E6374696F6E3D257320A0
:102C50006C696E653D25640A0000000024010020B7
:102C6000CE04000010B5044610212046FDF7A1FB5C
:102C70000520E07010BD000070B50446E07805281E
:102C800001D0002070BD0848006808494018FDF7D1
:102C900094FB05464A22294603480068FEF71EFEBB
:102CA0000720E0700120EDE724010020C6040000A9
:102CB0000346D878052801D0002070470620D87038
:102CC0000120FAE70CB50020019000902F48006821
:102CD000012108432D49086000BF2C4800680221EB
:102CE000084000900198401C01900098002804D1F1
:102CF0000521090301988842EFD124480068022188
:102D00000840002802D00120009001E0002000903F
:102D10000098012838D111201D4908601B484068DF
:102D20001A494860084640684860084640687F2164
:102D3000C90388431549486008464068C9000843EC
:102D400012494860084600680121090608430F49F6
:102D5000086000BF0D4800680121490608400028AE
:102D6000F8D00A4840688008800008494860084652
:102D70004068022108430549486000BF0348406895
:102D80000C2108400828F9D10CBD000000100240B9
:102D900000200240FEB504460E461546002D00D127
:102DA000FEBD21460C312846FDF712FBFEF706F862
:102DB000074621461031FDF70BFB6675207D400864
:102DC0004000401C207520461030FDF7F6FA0746FB
:102DD00020460C30FDF7F1FA00970190627D034622
:102DE00002A10020FFF746FB00BFD9E7496E6974D6
:102DF0002054696D65722849443D2564292C20546E
:102E0000696D65726F7574207469636B733D2564B9
:102E10002C20696E69745469636B733D307825307A
:102E200038780A00017D49084900017570470000A3
:102E3000F8B504460D46164600272B4622460FA13C
:102E400000200096FFF716FBA54209D2781E001B52
:102E500047194223154A16A10020FFF70BFB06E095
:102E60004723124A12A10020FFF704FB2F1BB74291
:102E700001D30120F8BD0020FCE70000232323201C
:102E8000696E69745469636B733D2564206E657760
:102E90005469636B733D25642074696D654F757467
:102EA0005469636B733D25640A00000018610008D3
:102EB0002323232066756E6374696F6E3D2573202E
:102EC0006C696E653D2564200A000000F8B5044673
:102ED00020460C30FDF771FA0546FDF76FFF0646F8
:102EE00020461030FDF769FA07462A463146FFF7BB
:102EF0009FFFF8BD042806D1064909690422114341
:102F0000044A116105E00349096904229143014A19
:102F10001161704700E000E001B5FDF74FFF024688
:102F200011E0FDF74BFF0146914207D20020C0435C
:102F3000801A4018009B984205D905E0881A009B2A
:102F4000984200D900E0ECE700BF08BD06480068E1
:102F5000401C002802D10449086004E002480068CF
:102F6000401C014908607047FC00002010B51B4858
:102F7000006801210843194908600846406818495B
:102F80000840164948600846006816490840134939
:102F90000860084600680121890488430F490860D9
:102FA000084640683F21090488430C4948600846A8
:102FB000C06A00090001C8620846006BFF21543155
:102FC0008843064908630846406B40084000486350
:102FD00000208860FFF776FE10BD00000010024060
:102FE0000CB8FFF8FFFFF6FE10B50E4C601E0E4940
:102FF000884201D901200CE0601E0C494861032180
:10300000081FFFF71FF900200849886107200861A1
:103010000020002801D000BFFEE70420FFF76AFF70
:1030200010BD000080BB0000FFFFFF0000E000E0DB
:1030300070B586B004460D4616466846047503967C
:10304000029500200490009002A80FC8FDF762FDD1
:1030500006B070BDFEB505460E4617460024224850
:1030600022A102680020FFF705FA1F480068012826
:1030700032D91D4824A102680020FFF7FBF96846F9
:103080000572019700960023684607C8FDF7CAFC41
:103090002448427C24A10020FFF7ECF90EE02246F0
:1030A0002DA10020FFF7E6F9641C601C002805D163
:1030B00022462FA1FFF7DEF90020FEBD1948407C13
:1030C000C007C00F0028EAD107482FA102680020DE
:1030D000FFF7D0F90120F0E7034832A10268002091
:1030E000FFF7C8F90020E8E7040100205553425FCC
:1030F00045505F547820676E4465765374617465FB
:103100003D25640A0000000032205553425F4550BF
:103110005F547820676E44657653746174653D250D
:10312000640A0000005C004033205553425F455064
:103130005F5478204D524541445F42595445284DD3
:103140005F5245475F494E43535231293D30782500
:103150003032780A0000000034205553425F455059
:103160005F54782074696D656F75743D25640A003D
:1031700035205553425F45505F54782074696D6522
:103180006F75743D25640A0036205553425F4550E3
:103190005F547820676E44657653746174653D258D
:1031A000640A000037205553425F45505F54782031
:1031B000676E44657653746174653D25640A00004A
:1031C00070B505462A4646A10020FFF753F9012DA8
:1031D0000AD14C490020FDF7FBF8FF20494908744B
:1031E00000204949086070BD00204849887308469E
:1031F000447CE007C00F002824D14248007CFF280F
:1032000020D04048007C08704148006800280BD15D
:103210003C48007C002807D03EA10020FFF72AF997
:1032200001203B4908600DE039480068012809D1B8
:103230003448007C002805D141A1FFF71BF900208C
:1032400033490860FF202F490874042020400028DB
:1032500008D02021204688432C4948742949002061
:10326000FDF7B6F810202040002807D0802020432A
:103270002649487423490020FDF7AAF82148FDF7A4
:103280009CF8002810D1E007C00F00280CD0364A67
:1032900008210020FDF77AFC34A10020FFF7EAF8AE
:1032A0003149184800F084F81648FDF786F80228DE
:1032B00007D133A10020FFF7DDF8124800F0BEF877
:1032C0000BE01048FDF779F8012806D132A1002063
:1032D000FFF7D0F80B4800F08BF800BF83E7000041
:1032E0005553425F456E64706F696E74302020786C
:1032F0007878206E43616C6C5374617465203D2551
:10330000640A00002708002008010020005C00403B
:1033100004010020676E4465765374617465203D36
:103320002044455653544154455F4144445245530B
:10333000533B0920787878203131310A00000000B1
:10334000676E4465765374617465203D204445562C
:1033500053544154455F414444524553533B092023
:103360003232320A000000001C0100205553425F37
:10337000456E64706F696E743020206161610A006F
:103380005553425F456E64706F696E74305F547858
:1033900020313131310A00005553425F456E64706F
:1033A0006F696E74305F547820323232320A000016
:1033B00070B505460C46207860210840002804D0EE
:1033C000202807D040280AD10AE02146284600F0EC
:1033D000C7FA09E02146284600F06CF804E000BF77
:1033E00060200249487400BF00BF70BD005C00400F
:1033F000F8B504460020104988730846457C16E05D
:1034000021460020FCF7E4FF20460830FCF7D5FFFA
:103410000646201DFCF7D1FF0746324639460020FC
:10342000FDF7B4FB4020044948740846457CE80792
:10343000C00F0028E4D1F8BD005C0040F8B5044698
:10344000201DFCF7BAFF402808DC201DFCF7B5FF63
:103450000546211D0020FCF7BBFF08E04025201D8C
:10346000FCF7ABFF471B211D3846FCF7B1FF204698
:103470000830FCF7A2FF07463A4629460020FDF730
:10348000E5FB20460830FCF798FF47192146083134
:103490003846FCF79DFF402D05DA0A26214600201C
:1034A000FCF796FF00E0022601484674F8BD0000D4
:1034B000005C004070B505460C466078030001F0E2
:1034C00013FA0C25070C112525252525161B20256B
:1034D00021462846FDF7B4FC70BD21462846FDF77D
:1034E00073FCF9E721462846FDF78CFCF4E72146FA
:1034F0002846FDF70FFDEFE721462846FDF7D4FCEF
:10350000EAE721462846FDF7EBFCE5E700BF00BFF0
:1035100060200249487400BFDEE70000005C004004
:10352000FEB500200190002600276E4880780190AB
:103530006C488679077902203040002802D00220AA
:10354000694908708120C000304000280CD06548CF
:103550008079082188436349887164480078102184
:10356000884310306149087061483040002801D01C
:1035700000F096F9FF21023101980840002806D09A
:103580005CA10020FEF776FF0020FFF719FE6148DE
:103590003840002829D0D2235F4A60A10020FEF7DE
:1035A00069FF40226A490020FFF742FD85B20F20E3
:1035B000FCF724FE04462846FCF720FE21460A318B
:1035C0000090FCF705FF0020A0732146FCF700FFE8
:1035D000211D0020FCF7FCFE28B22072000A607258
:1035E00021465C480068FEF709FD812080003840D4
:1035F000002847D002F0A6FA402255490220FFF7E2
:1036000017FD85B2E823444A534900200095FEF790
:1036100031FF0020009009E04D4900980A5C4FA15D
:103620000020FEF727FF0098401C00900098A84259
:10363000F2DB0F20FCF7E2FD04462846FCF7DEFD36
:1036400021460A310090FCF7C3FE20460A30FCF701
:10365000B4FE2A463E490090FCF74EFE0020A073BF
:103660002146FCF7B5FE211D0020FCF7B1FE28B273
:103670002072000A6072214636480068FEF7BEFCE0
:1036800001F008FA11204001384000280BD0FF2338
:103690000833214A34A10020FEF7ECFE40222C49D9
:1036A0000520FFF7C5FC0520C001384000280DD0DB
:1036B000402227490720FFF7BBFC25480078401C23
:1036C0002349087040220620FFF7C4FCF007C00F12
:1036D000002806D030480068012802D9012002499C
:1036E0000870FEBD005C00400201002018010020AF
:1036F000040400005553425F456E64706F696E7438
:1037000030284D5F45505F4E4F524D414C293B2074
:103710003131310002020000275F0008555320427A
:103720005F49545F4F55545F4550315F464C4147A8
:10373000202323202020232066756E6374696F6E1A
:103740003D2573206C696E653D25640A000000000C
:1037500021050020080000200C62000832322030D1
:1037600078253032782000005553425F49545F4F2E
:1037700055545F4550325F464C4147202323232058
:1037800066756E6374696F6E3D2573206C696E6536
:103790003D25640A000000000401002030B50A46FF
:1037A000164900238C150440002C05D0C91D8D1529
:1037B0000446AC43234616E0012464020440002C76
:1037C00006D00E4909314D150446AC4323460AE0A4
:1037D0000124A4020440002C05D008490B310D152A
:1037E0000446AC432346002A04D00C78DDB22C43B7
:1037F0000C7002E00C789C430C7030BD005C004003
:1038000008B57120FEF78AFD012808D00120FEF7D7
:10381000A9FD00BF7120FEF781FD0128FAD100202B
:10382000FEF7B4FD0121C805FEF758FD012114483B
:10383000FFF7B4FF01211248401EFFF7AFFF01213F
:103840008120C000FFF7AAFF01210D48801CFFF76F
:10385000A5FF012000F016F81F2168460170002125
:10386000417001218170FEF7B5FC0121C806FEF709
:1038700035FD0120FCF794FF0120FCF77FFF08BD18
:103880000204000001460020044AD07B800880002A
:1038900002460A431046014AD0737047005C00405C
:1038A00000B589B000202C4908600120FFF788FC92
:1038B000012108A80170881E0790012306A807C8E7
:1038C000FDF7B0F8022108A80170C81E0790012377
:1038D00006A807C8FDF7A6F8032108A80170081F6D
:1038E0000790012306A807C8FDF79CF8042108A843
:1038F0000170481F0790012306A807C8FDF792F83A
:10390000062108A80170C81F0790012306A807C850
:10391000FDF788F8052168460175402003900020D6
:1039200004900120009002A80FC8FDF7F3F80721CA
:10393000684601754020039000200490012000900B
:1039400002A80FC8FDF7E6F80448407801210843B3
:103950000249487009B000BD04010020005C00402D
:10396000F0B589B004460D460020089007902879EC
:10397000029002980007000F0390002001906A78DF
:10398000FAA1FEF777FD68780C2870D243007B44DB
:103990009B885B009F44F804B6036B0051036B00E7
:1039A0000B0020006B00F90280022A03D102287864
:1039B000002802D0012008900DE0F6480068012898
:1039C00007D8E878A97800020843207401200790FE
:1039D00001E0012008905EE228788021084000285C
:1039E00002D10120089056E2E878A9780002084345
:1039F000FF210902084003225202811A904237D067
:103A00000CDCFF380138002811D0FF3801380028BD
:103A100031D0FF38013800287ED112E1FF39013959
:103A2000002959D01B200002081AF5D157E0211DAA
:103A3000D9480088FCF7CCFC201DFCF7BEFCE979D6
:103A4000AA7909021143884207DDE979AA790902B6
:103A500011430846211DFCF7BBFC21460831CF4825
:103A6000FCF7B6FC21460220FCF7B2FC12E298E318
:103A7000012008900EE2E878A97800020843C0B25D
:103A80000590C5480088401EC449095C05988142DC
:103A900002DA012008901EE0211DC1480088FCF7D1
:103AA00097FC21460831BF48FCF792FC21460220D2
:103AB000FCF78EFC201DFCF780FCE979AA7909024D
:103AC0001143884207DDE979AA79090211430846C2
:103AD000211DFCF77DFCDDE101200890DAE1687929
:103AE000297900020843030000F0FEFE0504264683
:103AF0006686A600211DAC480088FCF769FC201DE5
:103B0000FCF75BFCE979AA7909021143884209DDD7
:103B1000E979AA79090200E0B9E111430846211DBB
:103B2000FCF756FC21460831A048FCF751FC214621
:103B30000220FCF74DFC82E0211D9D480088FCF727
:103B400047FC201DFCF739FCE979AA7909021143E9
:103B5000884207DDE979AA79090211430846211D47
:103B6000FCF736FC214608319248FCF731FC21462F
:103B70000220FCF72DFC62E0211D8F480088FCF735
:103B800027FC201DFCF719FCE979AA7909021143E9
:103B9000884207DDE979AA79090211430846211D07
:103BA000FCF716FC214608318448FCF711FC21463D
:103BB0000220FCF70DFC42E0211D81480088FCF743
:103BC00007FC201DFCF7F9FBE979AA7909021143EA
:103BD000884207DDE979AA79090211430846211DC7
:103BE000FCF7F6FB214608317648FCF7F1FB21464D
:103BF0000220FCF7EDFB22E0211D73480088FCF752
:103C0000E7FB201DFCF7D9FBE979AA7909021143EA
:103C1000884207DDE979AA79090211430846211D86
:103C2000FCF7D6FB214608316848FCF7D1FB21465A
:103C30000220FCF7CDFB02E00120089000BF00BF8E
:103C400028E1E878A97800020843024660A1002034
:103C5000FEF710FCE878A97800020843C0B2030020
:103C600000F042FE0504244464DCEF00211D63489B
:103C70000088FCF7ADFB201DFCF79FFBE979AA79D2
:103C800009021143884207DDE979AA790902114343
:103C90000846211DFCF79CFB214608315848FCF7DB
:103CA00097FB21460220FCF793FBEEE0211D5548CF
:103CB0000088FCF78DFB201DFCF77FFBE979AA79D2
:103CC00009021143884207DDE979AA790902114303
:103CD0000846211DFCF77CFB214608314A48FCF7C9
:103CE00077FB21460220FCF773FBCEE0211D4748FD
:103CF0000088FCF76DFB201DFCF75FFBE979AA79D2
:103D000009021143884207DDE979AA7909021143C2
:103D10000846211DFCF75CFB214608313C48FCF7B6
:103D200057FB21460220FCF753FBAEE0211D39482A
:103D30000088FCF74DFB201DFCF73FFBE979AA79D1
:103D400009021143884207DDE979AA790902114382
:103D50000846211DFCF73CFB214608312E48FCF7A4
:103D600037FB21460220FCF733FB8EE05553425FC0
:103D70005374644465765F5265713B20203333335E
:103D80002070636D642D3E62526571756573743D7C
:103D900025640A0004010020485F0008365F00081F
:103DA0006A5F00084A5F000814600008D25F0008DC
:103DB000A060000816600008BA600008A260000851
:103DC000E0600008BC60000806610008E2600008CE
:103DD0005553425F5374644465765F5265713B206E
:103DE000203333332070636D642D3E555342775634
:103DF000616C75653D25640A00000000705F000875
:103E00006C5F00087E5F0008725F00089A5F000820
:103E1000805F0008D05F0008BA5F0008211DE148FC
:103E20000088FCF7D5FAE879A97900020843024630
:103E3000DDA10020FEF71EFB201DFCF7BEFA0246A6
:103E400000E01FE0E3A100900020FEF713FB201D1F
:103E5000FCF7B3FAE979AA7909021143884207DD30
:103E6000E979AA79090211430846211DFCF7B0FA45
:103E700021460831E248FCF7ABFA21460220FCF764
:103E8000A7FA02E00120089000BF00BF02E0012075
:103E9000089000BF00BF2CE3E878A978000208432F
:103EA000C0B20590D7480068002806D1D6A1059A6F
:103EB000FEF7E0FA0120089037E0E0480088401E55
:103EC000DF49095C0598814207DADEA10020059AE6
:103ED000FEF7D0FA0120089027E00598002806D1C7
:103EE000E5A1FEF7C7FA0120C64908601DE0ECA174
:103EF0000020059AFEF7BEFAF648F7490860002749
:103F000003E00020F549C8557F1C072FF9DBFCF7BB
:103F100059FCF3A10020FEF7ADFA0220B949086070
:103F20000020F949887301200790F8A10020FEF7CE
:103F3000A1FA0120F9490860DBE2B24800680128D3
:103F400020D96879297907020F43E3480068049073
:103F5000F9B204980079814202DB0120089013E055
:103F6000E878A97800020843DC49C855FCF72AFC28
:103F7000002801D1012008900020E3498873012026
:103F8000079001E001200890B3E29E4800680128F4
:103F900013D1E878A9780002084300280DD1211D2B
:103FA0000120FCF715FA21460831A81CFCF710FA8D
:103FB00021460220FCF70CFA17E09248006801281D
:103FC00011D9C54800680490211D0120FCF700FAB2
:103FD000214608310498401DFCF7FAF921460220D9
:103FE000FCF7F6F901E00120089082E285480068BC
:103FF00001281FD96879297907020F43B64800685C
:104000000490F9B204980079814202DB0120089003
:1040100012E0211D0120FCF7DBF9B900C04A51581C
:10402000881C21460831FCF7D3F921460220FCF711
:10403000CFF901E0012008905BE22878002804D045
:10404000012818D0022858D116E0E878A978000293
:10405000084301280AD1B34800684078202108436A
:10406000B049096848700120079002E001200890DB
:1040700000BF00BF44E000BFA878002838D1A249A3
:1040800003988873287980210840002816D0039867
:1040900000280AD09C48467C102006439A48467463
:1040A000407CA149087000BF1CE09748467C202056
:1040B0003043954948740846467C13E0039800282D
:1040C00008D09148067D202030438F490875084666
:1040D000067D07E08C48467C202030438A4948749E
:1040E0000846467C0120079000208749887302E03B
:1040F0000120089000BF00BF02E00120089000BF2F
:1041000000BFF6E12878002804D0012818D0022842
:1041100044D116E0E878A9780002084301280AD1C2
:10412000804800684078202188437E4909684870AB
:104130000120079002E00120089000BF00BF21E1AC
:1041400000BFA87800282AD16F490398887328797E
:1041500080210840002823D00398002814D06A4802
:10416000467C402130468843674948740846467C6F
:10417000467C102130468843634948740846407C99
:104180006949087000BFEFE05F48467C2021304657
:1041900088435D4948740846467CE5E0EFE0E9E085
:1041A000C4E0A3E1B85F00085553425F5374644410
:1041B00065765F5265713B20203434342070636D26
:1041C000642D3E555342774C656E6774683D256497
:1041D0000A0000005553425F5374644465765F5291
:1041E00065713B20203434342070636D642D3E6E45
:1041F00042797465734C6566743D25640A0000005D
:104200009C5F000804010020676E4465765374616A
:104210007465203D2044455653544154455F414404
:1042200044524553533B0920373737206279436F57
:104230006E6669673D25640A00000000485F00085B
:10424000365F0008676E4465765374617465203D7F
:104250002044455653544154455F414444524553CC
:10426000533B0920363636206279436F6E666967A4
:104270003D25640A00000000676E44657653746152
:104280007465203D2044455653544154455F414494
:1042900044524553533B09203333330A0000000096
:1042A000676E4465765374617465203D20444556BD
:1042B00053544154455F414444524553533B0920B4
:1042C000353535206279436F6E6669673D25640A2E
:1042D000000000004A5F0008080100200C010020D7
:1042E000676E4465765374617465203D204445567D
:1042F00053544154455F414444524553533B20205D
:104300003434340A00000000005C0040625F636FD8
:104310006E666967203D3D20310A0000F4000020F0
:10432000BC07002014010020010100200398002890
:1043300011D07A48067D8021304688437749087538
:104340000846067D067D202130468843734908755E
:104350000846067D08E07148467C202130468843A7
:104360006E4948740846467C0120079000206B493E
:10437000887302E00120089000BF00BF02E0012026
:10438000089000BF00BFB4E02878802804D08128BE
:104390003BD0822872D146E06148006840782021F5
:1043A0000840002806D0694608790221084369467A
:1043B000087105E069460879022188436946087159
:1043C00057480068407840210840002806D06946D8
:1043D0000879012108436946087105E068460079BB
:1043E0004108490068460171002069464871211D55
:1043F0000220FBF7EDFF2146083101A8FBF7E8FF9B
:1044000021460220FBF7E4FF6EE0211D0220FBF7AE
:10441000DFFF2146083101A8FBF7DAFF2146022021
:10442000FBF7D6FF60E0287980210840002826D0DD
:104430000398002814D03949039888730846407CB3
:10444000384908700846007810210840002803D039
:1044500001206946087130E00020694608712CE0AF
:104460002E48407C04210840002803D001206946E2
:10447000087122E00020694608711EE031E00398CF
:1044800000280DD02548007D20210840002803D0B9
:1044900001206946087110E00020694608710CE0AF
:1044A0001E48407C04210840002803D001206946B2
:1044B000087102E0002069460871002069464871D1
:1044C000211D0220FBF784FF2146083101A8FBF7DC
:1044D0007FFF21460220FBF77BFF00200F498873F6
:1044E00002E00120089000BF00BF02E00120089018
:1044F00000BF00BF0898002802D06020069007E0A7
:104500000798002802D04820069001E0402006903D
:1045100002490698487409B0F0BD0000005C0040F4
:10452000140100200101002010B5124C032020616D
:10453000606111A0A0611349E1610121890221623A
:104540000021A1626162E1620BA020660E496166F2
:104550001021A16600212167E16661670BA1E01DC2
:10456000FBF7A4FE0AA12046FBF7A0FE2020A071C5
:1045700010BD0000380800205465726D696E616CD2
:1045800000000000E0080020E00C0020525454001D
:10459000534547474552000010B501460A69CB68AC
:1045A0009A4204D88C68641EE41AA01801E0D41A58
:1045B000601E10BDFFB585B006460F460F9D0E9CD0
:1045C000002F01DA784200E0384603900120049081
:1045D00007E007990398FBF70DFF03900498401C30
:1045E0000490079903988842F3DA0499089888425E
:1045F00001D908980490002C06D0002F03DB04207A
:104600002840042800D1641E02202840002802D03F
:104610000898002815D0E807C00F002811D1002CF9
:104620000FD008E0641E2021304600F0D9F8F06871
:10463000002800DA04E0002C02D00498A042F1D354
:1046400000BFF06800283ADB002F05DA7F422D21F9
:10465000304600F0C5F807E004202840042803D1C4
:104660002B21304600F0BCF8F068002827DB022040
:104670002840022818D1E807C00F002814D1089854
:10468000002811D1002C0FD008E0641E30213046E4
:1046900000F0A6F8F068002800DA04E0002C02D050
:1046A0000498A042F1D300BFF068002807DB019511
:1046B000009439463046089B079A00F003F809B089
:1046C000F0BD0000FFB585B0064617461D460E9C9E
:1046D0000698029001200390019007E03946029865
:1046E000FBF77EFE02900198401C01900298B842B0
:1046F000F4D20198854200D901950F98C007C00FE8
:1047000000281DD1002C1BD002210F980840022840
:1047100004D1002D02D13020009001E02020009033
:1047200008E0641E3046009900F05AF8F06800284E
:1047300000DA04E0002C02D00198A042F1D300BFBF
:10474000F068002848DB0FE0012D01D96D1E08E05C
:1047500003990698FBF744FE04900498B84200D2EF
:1047600003E0039878430390EEE700BF00BF03998E
:104770000698FBF735FE0490039904984843069980
:10478000081A0690154A0498115C304600F028F883
:10479000F068002800DA07E039460398FBF720FEAE
:1047A000039003980028E2D100BF0F98C007C00F04
:1047B000002811D0002C0FD008E0641E20213046C4
:1047C00000F00EF8F068002800DA04E0002C02D0B7
:1047D0000198A042F1D300BF09B0F0BD0861000804
:1047E00070B504460E46A568681C6168814206D310
:1047F00020684655681CA060E068401CE060616865
:10480000A06888420DD1A26821682069FDF7CCFD1F
:10481000A168884203D00020C043E06001E000208E
:10482000A06070BDF7B582B0044617460020019025
:10483000E56800BF206900900098A84203D900985D
:10484000401B461E04E0A1680098281A401C0E1A5E
:10485000A068401BB04201D9304601E0A068401B6F
:104860000646BE4201D2304600E038460646616840
:10487000481932460399FBF73FFD019880190190D2
:10488000039880190390BF1BAD19A068A84200D1FE
:104890000025E560002FCDD1019805B0F0BDF7B53A
:1048A00082B004461546E668A068871BAF4208D967
:1048B000616888192A460399FBF71EFD7019E060AC
:1048C00010E0019761688819019A0399FBF714FDBC
:1048D000E81B0190039AD1196068019AFBF70CFD5F
:1048E0000198E06005B0F0BD30B47446641E2578D0
:1048F000641CAB4204D3635D5B00E31830BC184713
:104900001D46F8E7F0B5A1B00446802101A8FBF7E9
:1049100052FD00270226204600F075F9802201A9E9
:1049200020464E3000F0CBF8074600253CE001A8B9
:10493000405DB7281ED008DCB0380300FFF7D4FF75
:10494000071816281719281B2800BF280BD004DCCD
:10495000BA2811D0BE281BD104E0C12804D0C72832
:1049600016D102E000BF00BF00BF00BF00BF00BF04
:1049700000BF00BF00BF00BFA420005D002806D11B
:1049800001A8415DA22001550121A420015508E0A4
:1049900001A8415D3046721CD6B222469A321154AB
:1049A00000BF00BF681CC5B2BD4201DA082EBEDBE5
:1049B000A420005D02280FD1A220015D20464E30C8
:1049C00000F06CF8002807D12046A23000210170C9
:1049D00041700321A420015520464E3000F09FFC79
:1049E00021B0F0BD10B5144603220A70A222125C59
:1049F000B72A2FD008DCB03A1300FFF775FF071273
:104A000017491C2149264900BF2A32D004DCBA2AA2
:104A100025D0BE2A3CD127E0C12A2FD0C72A37D1C2
:104A200031E0B5224A7000228A7031E0B6224A7025
:104A300000228A702CE0CD224A7000228A7027E082
:104A4000E2224A7000228A7022E0E9224A700022A3
:104A50008A701DE0EA224A7000228A7018E0302233
:104A60004A7000228A7013E070224A7000228A7015
:104A70000EE06F224A7000228A7009E023224A70F9
:104A800002228A7004E0AE224A7001228A7000BFBE
:104A900000BF10BD10B500F075FC10BD10B502468A
:104AA0000807C00E105AF0230B401C110123A3402D
:104AB0001840F0230B401B111841C0B210BDF7B5D0
:104AC00004460F4600230020002123E04D00655BD3
:104AD000002D1DD0002219E0012595404E00A65B57
:104AE0003540002D10D0029DA84200DBFEBD1D46C2
:104AF00015432B461D072B0E1D460D432B46054621
:104B0000461CF0B27B550023551CEAB2102AE3DBA9
:104B10004D1CE9B21029D9DB00BFE7E7F3B587B038
:104B20000446002003900290207806900020019017
:104B30002078059020460A30FBF73FFC01900025C5
:104B40005CE0002650E0A900089840580121B140DF
:104B50000840002843D00020049015E0049841004C
:104B600020460E30091848780978000208430121D0
:104B7000B1400840002803D00398401CC0B2039005
:104B80000498401CC0B20490617804988142E5DC2E
:104B9000002712E0690020460E300918487809788D
:104BA000000208430121B9400840002803D00298C0
:104BB000401CC0B20290781CC7B22078B842E9DC31
:104BC0000398022802DB0298022808DA0698684354
:104BD000019A8018815D20464E3000F0A7FB00202E
:104BE00003900290701CC6B22078B04204DDA90088
:104BF000089840580028A6D1681CC5B26078A84221
:104C00009FDC09B0F0BD70B50446002519E02846C8
:104C1000E030C1B220464E30FFF740FF00280ED0F2
:104C20002846E030C1B220464E3000F08DFB9A207D
:104C3000005D0121A9400843C1B29A200155681CBA
:104C4000C5B2082DE3DB70BD70B50446AF21204628
:104C50004E30FFF723FF00284ED0AF2120464E30C4
:104C600000F072FB292120464E30FFF717FF002885
:104C700014D029480078002810D101202649087056
:104C80008E20005D012148408E2108558E20025D56
:104C9000012149032148FCF78BF80DE0292120462A
:104CA0004E30FFF7FBFE002806D11B480078002895
:104CB00002D0002018490870292120464E3000F00B
:104CC00043FB8E20005D00280AD020469030FBF781
:104CD00074FB05469420025D2946204600F0E3FD62
:104CE00020469530FBF769FB05469920025D294671
:104CF000204600F0D8FD0EE08E20005D00280AD18D
:104D000020469030FBF759FB05469420025D29466A
:104D1000204600F0C8FD70BDF800002000080048E3
:104D2000F0B50F4616461C46059D01211A48FCF7B2
:104D300059F900211848FCF7A7F939461648FCF73D
:104D4000B7F931461448FCF7B1F901211248FCF7D4
:104D500049F9012189021048FCF796F939460E48B5
:104D6000FCF7A6F90BE06D1E002D03D100210A48C7
:104D7000FCF702F90848FCF795F92070641C002D37
:104D8000F1D101210448FCF73BF901210248FCF76D
:104D9000F3F80020F0BD000000540040F0B50E46CE
:104DA00015461C46059F01210F48FCF71BF9002101
:104DB0000D48FCF769F931460B48FCF779F92946AB
:104DC0000948FCF773F904E021780748FCF76EF90D
:104DD000641C38467F1E0028F6D101210248FCF7EA
:104DE0000FF90020F0BD000000540040FEB507465A
:104DF0000D463C460026D723A54AA6A10020FDF774
:104E000039FB002C01D1601EFEBDDB23A04AA8A106
:104E1000002000960195FDF72DFB34E1DF239C4A2D
:104E2000A3A1002000960195FDF724FBAD48006882
:104E3000E023974AACA100900020FDF71BFBA94896
:104E400000680300FFF750FD0E081C39456B739591
:104E50009DA5FD1BFBFAF91B0921AE48FBF7A9FA3A
:104E60000020AD490860AD4908802078FF2805D1B1
:104E700001209C490860FF20A6490870641C01E1DC
:104E800020785A2807D10220964908605A20A14963
:104E90004870641C10E02078552807D10220914901
:104EA000086055209B494870641C05E02078FF2865
:104EB00002D100208B490860E4E020780002974985
:104EC0000880032087490860207892498870641C14
:104ED000D8E0207891490988401890490880084610
:104EE00000888F49884203DC8C48008809280ADA48
:104EF0008A48008801214902884204D087480088F6
:104F00004900884207D10420764908602078814909
:104F1000C870641C02E0002072490860B2E020788A
:104F20007C490871641C05206E490860AAE020785D
:104F30007849087108468078202812D10846807880
:104F400000280ED108460079EE280AD120781028D2
:104F500007D100206349086006216E48FBF7E6FC94
:104F600005E006205F49086020786A494871641CA2
:104F700088E007205B490860207866498871641CD6
:104F800080E008205749086020786249C871641C95
:104F900078E020785F4908720846807804281BD1A1
:104FA00008468078002817D108460079022813D1D6
:104FB0000846407904280FD108468079EE280BD1A5
:104FC0000846C079082807D1002046490860082112
:104FD0005048FBF7ABFC2EE00920424908604F48DF
:104FE000008800B24F49096808814E480068C068CF
:104FF000002804D04B490968C868FBF730F94949D3
:1050000009680820085EFBF7F9F846490968C86096
:10501000444A12680821515E424A1268D068FBF780
:10502000C8F9404909680922C8683A49FBF764F998
:10503000092039490860641C24E022E020E01EE0D9
:10504000FFE7207837490968C968334A12688854ED
:1050500031480068401C30490860641C08460068FC
:105060002E490988884209D100201E4908602D492F
:105070000968C86829490988FBF758FC02E000BFA5
:1050800000BF00BF00BFAE4200D2C7E60020BBE6B3
:105090000C5F00082323232066756E6374696F6EAE
:1050A0003D2573206C696E653D25640A0000000093
:1050B0002323232066756E6374696F6E3D2573200C
:1050C0006C696E653D256420706275666665725F09
:1050D0006C656E25642C6275666665724C656E0A39
:1050E00000000000E40000202323232066756E6387
:1050F00074696F6E3D2573206C696E653D25642073
:10510000675F506172736553746174655F743D25A8
:10511000640A000098020020E8000020F00000204F
:10512000FFFF000004000020F8B5054600241AE047
:10513000A81CFBF742F90A2161434018071D3846B5
:10514000FBF73BF986B2A81CFBF737F90A2161434C
:1051500047183846FBF731F907223146009000F036
:1051600089FC601CC4B22878A042E1DC00241AE06B
:10517000A81DFBF722F90A2161434018071D384694
:10518000FBF71BF986B2A81DFBF717F90A2161434B
:1051900047183846FBF711F907223146009000F016
:1051A00069FC601CC4B26878A042E1DCF8BDF8B5C7
:1051B000054600241AE0A81DFBF7FFF80A21614309
:1051C0004018071D3846FBF7F8F886B2A81DFBF714
:1051D000F4F80A21614347183846FBF7EEF8072236
:1051E0003146009000F046FC601CC4B26878A042D2
:1051F000E1DC002433E0A81CFBF7DFF80A2161435F
:105200004018071D3846FBF7D8F886B2A81CFBF7F4
:10521000D4F80A21614347183846FBF7CEF8042238
:105220003146009000F026FCA81CFBF7C6F80A21C6
:1052300061434018071D3846FBF7BFF886B2A81C2B
:10524000FBF7BBF80A21614347183846FBF7B5F86E
:10525000012231460090FBF7ABFD601CC4B22878F8
:10526000A042C8DCF8BDF8B5054600241AE0A81C29
:10527000FBF7A3F80A2161434018071D3846FBF7E6
:105280009CF886B2A81CFBF798F80A2161434718DE
:105290003846FBF792F807223146009000F0EAFB0F
:1052A000601CC4B22878A042E1DC002433E0A81DD1
:1052B000FBF783F80A2161434018071D3846FBF7C6
:1052C0007CF886B2A81DFBF778F80A2161434718DD
:1052D0003846FBF772F804223146009000F0CAFB12
:1052E000A81DFBF76AF80A2161434018071D3846DC
:1052F000FBF763F886B2A81DFBF75FF80A2161434C
:1053000047183846FBF759F8012231460090FBF761
:105310004FFD601CC4B26878A042C8DCF8BD10B56F
:10532000044620212046FBF744F810BD10B50A07BB
:10533000D20E825AF0230B401C110123A3401A43C2
:105340000B07DB0EC25210BD10B50A07D20E825AEF
:10535000F0230B401C110123A3409A430B07DB0EE3
:10536000C25210BD08B51F2168460170002141706E
:105370008170FCF72FFF00200149087008BD000074
:105380000001002008B50120054908701F2168466A
:1053900001700021417001218170FCF71BFF08BDE5
:1053A000000100208EB000BFFDF71EFE6848FBF72D
:1053B000FDFD2846FBF786FE29466548FBF72EFED5
:1053C00001216348FBF7E6FDFEF71AFA01214804C4
:1053D000FCF774FF01218804FCF770FF0121C80469
:1053E000FCF76CFF01218805FCF768FF59A100203C
:1053F000FDF740F85A480068FCF740FE594800683D
:10540000FCF73CFE03E05848FDF786FD00E0FAE7B4
:1054100000BF56A10020FDF72DF8594959480068F2
:10542000FCF7DCF901A8FCF7CDF856480068FCF75A
:10543000A5FB8BE0544B554A55A10020FDF71AF807
:10544000FBF752FA6123DB00504A51A10020FDF71F
:1054500011F800BF4C4B08334C4A4DA10020FDF71A
:1054600009F806215148FAF7A6FFC3239B00474AD3
:1054700047A10020FCF7FEFF42480068FCF7C8FA8D
:10548000414B0C33414A42A10020FCF7F3FFFCF7EB
:10549000EFFD002808DD00F055FB32480068FCF7FE
:1054A000EFFD0446FFF7F6FA374B1533374A38A1BC
:1054B0000020FCF7DFFF002C26D0334B1933334A92
:1054C00033A10020FCF7D6FF0821615EE068FFF7FA
:1054D0008DFC2D4B1B332D4A2DA10020FCF7CAFF5C
:1054E000E068FAF7BCFE284B1D33284A28A10020AB
:1054F000FCF7C0FF2046FAF7B2FE234B1F33234AC6
:1055000023A10020FCF7B6FFC9239B001F4A20A15E
:105510000020FCF7AFFF26480078002800D115E0F6
:10552000244800F060F9234800F0B0F8214800F06A
:1055300043F82048FFF788FB1E48FFF7E3F91D48B2
:1055400000F068FA1B4800F03FFA00BF72E7000065
:10555000005400406732672073746172740A00005F
:105560000400002008000020881300007878787874
:1055700020625F636F6E666967203D3D20310A00DF
:10558000A90900082401002002030000225F00088E
:105590002323232066756E6374696F6E3D25732027
:1055A0006C696E653D25640A000000000C00002057
:1055B0000000002036000020F0B5A3B00446802192
:1055C00002A8FAF7F8FE27780020019020782290B0
:1055D00020460A30FAF7F1FE019020464E30FFF7E0
:1055E0009EFE00253DE000262CE0690020460E309E
:1055F000091848780978000208430121B1400840A1
:1056000000281DD038466843019A8018815D2046E5
:105610006E30FFF743FA002809D038466843019AF4
:105620008018815D20464E30FFF780FE08E0A8001C
:1056300002A908580121B1400843A90002AA50500C
:10564000701CC6B22078B04209DD690020460E30D9
:10565000091848780978000208430028C5D1681C59
:10566000C5B26078A842BEDC02A92046FFF756FA10
:10567000402120460E30FAF79CFE202221464E3172
:1056800020466E30FAF738FE23B0F0BDFEB5044672
:105690002046FFF749FD0025A0E000268EE06900C6
:1056A00020460E3009184878097800020843012185
:1056B000B140084000287FD0A01DFAF77EFE0A21E5
:1056C00069434018071D3846FAF777FE80B201900B
:1056D000A01DFAF772FE0A21694347183846FAF707
:1056E0006CFE05220090019900F0C4F9A01DFAF7A4
:1056F00064FE0A2169434018071D3846FAF75DFE2B
:1057000080B20190A01DFAF758FE0A21694347189C
:105710003846FAF752FE012200900199FBF748FB48
:1057200000BF00BFA01CFAF748FE0A2171434018D1
:10573000071D3846FAF741FE80B20190A01CFAF727
:105740003CFE0A21714347183846FAF736FE0090AE
:105750000199FBF723FB002811D1690020460E3088
:10576000091848780978000208430121B1408843AC
:105770006A0021460E3151180870000A4870A01DB9
:10578000FAF71BFE0A2169434018071D3846FAF74D
:1057900014FE80B20190A01DFAF70FFE0A216943A2
:1057A00047183846FAF709FE07220090019900F0E1
:1057B00061F900E000E000BF701CC6B22078B04282
:1057C0000ADD690020460E30091848780978000281
:1057D0000843002800D062E7681CC5B26078A84280
:1057E00000DD5AE7FEBDFEB5044627780020009094
:1057F0002078019020460A30FAF7DFFD009020461D
:10580000FFF792FC2046FFF72EFD204600F0A2F89D
:105810002046FFF7CCFC204600F064F800253EE06F
:10582000002637E06078410020460E30091848789D
:105830000978000208430121B1400840002827D020
:10584000690020460E30091848780978000208439C
:105850002278012191400840002819D03846684339
:1058600000994018805D002812D0690020460E3053
:10587000091848780978000208430121B14008431B
:1058800081B26A0020460E3010180170090A41707A
:10589000701CC6B22078B042C4DC681CC5B2607807
:1058A000A842BDDCFEBDF8B505460E4617460024ED
:1058B00015E06000315C28464E30FFF7EFF8002815
:1058C0000CD06000315C28464E30FFF73DFD600093
:1058D0008019417828464E30FFF728FD641CBC42F1
:1058E000E7DBF8BDF8B5044600252FE0A01DFAF768
:1058F00064FD0A2169434018071D3846FAF75DFD2B
:1059000086B2A01DFAF759FD0A21694347183846A7
:10591000FAF753FD31460090FBF740FA002813D008
:10592000690020460E3009184878097800020843BB
:10593000227801219140084381B26A0020460E304E
:1059400010180170090A4170681CC5B26078A8423D
:10595000CCDCF8BDF8B50446002530E0A01CFAF711
:105960002CFD0A2169434018071D3846FAF725FD2A
:1059700086B2A01CFAF721FD0A2169434718384670
:10598000FAF71BFD31460090FBF708FA002814D007
:105990006078410020460E300918487809780002E6
:1059A00008430121A940084381B2607842002046A3
:1059B0000E3010180170090A4170681CC5B22078B9
:1059C000A842CBDCF8BD000038B5044610A0006842
:1059D0000090A420005D01280DD1032269462046D5
:1059E000FFF700F8032269460220FDF733FB02218E
:1059F000A42001550BE0A420005D032807D1032259
:105A000069460220FDF726FB0021A420015538BD80
:105A1000030000007CB50446002500200AE0214672
:105A2000A5310A5C0B39095C8A4201D1691CCDB2EF
:105A3000411CC8B20828F2DB082D15DA00200090BE
:105A40000190082221469A316846FAF755FC08224F
:105A500069460120FDF7FEFA082221469A312046C8
:105A6000A530FAF749FC00BF082120469A30FAF722
:105A7000A0FC7CBD7CB506460C4615462B00FEF707
:105A800033FF08050F19242E39444F590094002183
:105A9000684601718171032141710021C1714AE0A1
:105AA0000094002168460171817103214171002138
:105AB000C17140E0009400216846017101218171AB
:105AC000032141710121C17135E000940021684634
:105AD00001718171032141710121C1712BE0009499
