:020000040800F2
:10000000581A002089010008AF010008B10100085A
:1000100000000000000000000000000000000000E0
:10002000000000000000000000000000B301000814
:100030000000000000000000B5010008C9330008FE
:10004000B9010008B9010008B9010008B9010008A8
:10005000B9010008B9010008B9010008B901000898
:1000600000000000B9010008B9010008B90100084A
:10007000B9010008B9010008B9010008000000003A
:10008000B9010008B901000800000000B90100082A
:10009000B9010008B9010008B9010008B901000858
:1000A000B9010008B9010008B9010008B901000848
:1000B000B90100080000000000000000A13900089C
:1000C00000F002F800F034F80CA030C8083824180A
:1000D0002D18A246671EAB4654465D46AC4201D180
:1000E00000F026F87E460F3E0FCCB646012633427E
:1000F00000D0FB1AA246AB46334318471C650000EC
:100100003C6500000023002400250026103A01D39E
:1001100078C1FBD8520700D330C100D50B607047BF
:100120001FB50098019900F054FA1FBD10B510BD1D
:1001300000F0A9FA1146FFF7F3FF05F049FB00F0C4
:10014000C1FA03B4FFF7F2FF03BC00F0F1FA0000BC
:1001500070B505460C46164602E00FCC0FC5103EA2
:10016000102EFAD2082E02D303CC03C5083E042E6B
:1001700007D301CC01C5361F03E021782970641C28
:100180006D1C761EF9D270BD0F4880F308880F48A9
:100190000168090E0E4A914205D10E480E490160D0
:1001A0000E480F4901600F4880470F480047FEE79F
:1001B000FEE7FEE7FEE7FEE7FEE700000B480C491E
:1001C0000C4A0D4B70470000581A00200400000034
:1001D0001F00000018100240010000000000014054
:1001E00000000000E9330008C10000085812002098
:1001F000581A0020581600205816002070B50646E0
:1002000000F0CAF9056830460B30C408E400B44277
:1002100001D8002070BD68682A46002818D00168FF
:10022000A14211D30B46214608318B4208D34368C3
:1002300001194B6003681B1B0B605160046001E0F7
:1002400041685160001D70BD024640680028E6D13B
:100250002146284600F0A8F90028DCD170BD70B511
:100260000446051F00F098F90068002C1AD0446875
:1002700001E020466468002C01D0AC42F9D301684B
:100280000A18AA4204D12A6805468918016000E0CC
:10029000456028684119A14205D1616869602168FB
:1002A0004018286070BD6C6070BD034610B50B43EC
:1002B0009B070FD1042A0DD308C810C9121FA342EF
:1002C000F8D018BA21BA884201D9012010BD002007
:1002D000C04310BD002A03D0D30703D0521C07E04F
:1002E000002010BD03780C78401C491C1B1B07D153
:1002F00003780C78401C491C1B1B01D1921EF1D1C4
:10030000184610BD034670B502460B439B070FD13C
:100310000E4CE60100E008C208C91D1B9D43354292
:10032000F9D0D9B21170521C00290DD01B0AF8E780
:100330000B78491C1370521C002B05D00B78491CFC
:100340001370521C002BF3D170BD0000010101019C
:10035000F8B5042A2CD3830712D00B78491C0370FC
:10036000401C521E83070BD00B78491C0370401CA5
:10037000521E830704D00B78491C0370401C521E88
:100380008B079B0F05D0C91ADF002023DE1B08C98D
:100390000AE0FFF7DDFEF8BD1D4608C9FD401C461A
:1003A000B4402C4310C0121F042AF5D2F308C91A16
:1003B000521EF0D40B78491C0370401C521EEAD424
:1003C0000B78491C0370401C012AE4D409780170A1
:1003D000F8BD01E004C0091F0429FBD28B0701D539
:1003E0000280801CC90700D00270704700290BD022
:1003F000C30702D00270401C491E022904D38307A0
:1004000002D50280801C891EE3E70022EEE700226D
:10041000DFE78178C2780378090412061143427835
:100420001002184308437047020A08704A70020C11
:100430008A70020ECA707047002203098B422CD3C7
:10044000030A8B4211D300239C464EE003460B4324
:100450003CD4002243088B4231D303098B421CD386
:10046000030A8B4201D394463FE0C3098B4201D378
:10047000CB01C01A524183098B4201D38B01C01AB0
:10048000524143098B4201D34B01C01A5241030927
:100490008B4201D30B01C01A5241C3088B4201D3D6
:1004A000CB00C01A524183088B4201D38B00C01A83
:1004B000524143088B4201D34B00C01A5241411AAA
:1004C00000D201465241104670475DE0CA0F00D08D
:1004D0004942031000D34042534000229C46030986
:1004E0008B422DD3030A8B4212D3FC22890112BA0C
:1004F000030A8B420CD3890192118B4208D38901E4
:1005000092118B4204D389013AD0921100E08909FB
:10051000C3098B4201D3CB01C01A524183098B42DC
:1005200001D38B01C01A524143098B4201D34B01C5
:10053000C01A524103098B4201D30B01C01A524128
:10054000C3088B4201D3CB00C01A524183088B42AF
:1005500001D38B00C01A5241D9D243088B4201D338
:100560004B00C01A5241411A00D201466346524123
:100570005B10104601D34042002B00D54942704722
:1005800063465B1000D3404201B50020C046C04620
:1005900002BD70477047704700487047FC1100204B
:1005A000704770477047704738B504460A460020C8
:1005B0006946C046C046002805D00246204600993C
:1005C00000F040F8012038BD10B5012000F054F8CB
:1005D00010BDF8B5C046C046054600200C461020A8
:1005E000C0460646A819A0420DD9324669460020E9
:1005F000C046C046070001D100F03EF80098A04276
:1006000000D00546C419FFF7C7FFF61D0746056071
:10061000F008C0004619284600F008F8B44204D09B
:1006200031463868A21B00F00DF8F8BD00210160CA
:10063000416080607047102070470000004870479C
:10064000F411002010B50346406801E003464068FD
:10065000002801D08842F9D31868C3188B4206D00D
:10066000CB1CD808C000001D411A521A0146081DB3
:100670000A60FFF7F4FD10BD10B500F031F800F08E
:1006800029F810BD70477546FFF7D8FFAE46050044
:1006900069465346C008C000854618B020B5FFF72C
:1006A0008DFD60BC00274908B6460026C0C5C0C500
:1006B000C0C5C0C5C0C5C0C5C0C5C0C5403D490056
:1006C0008D46704710B50446C046C0462046FFF729
:1006D00038FD10BD10B5002801D000F029F810BD7C
:1006E00010B5012805D0002103A000F027F8012053
:1006F00010BD09A1F8E7000053494752544D454D3C
:100700003A204F7574206F662068656170206D65B2
:100710006D6F7279000000003A2048656170206DAD
:10072000656D6F727920636F7272757074656400A5
:1007300001491820ABBEFEE72600020070B5054651
:100740000C460A2000E06D1C00F012F8002D06D0C7
:1007500028780028F7D102E0641C00F009F8002C8A
:1007600002D020780028F7D10A2000F001F870BDEF
:1007700008B5694608700320ABBE08BD70B58C187B
:100780000578401C6B075B0F01D10378401C2A11D0
:1007900006D10278401C03E00678401C0E70491C0C
:1007A0005B1EF9D12B0705D40023521E0DD40B700C
:1007B000491CFAE70378401CCB1A921C03E01D7811
:1007C0000D70491C5B1C521EF9D5A142D8D30020E4
:1007D00070BD0000002806D0064909684022114378
:1007E000044A116005E00349096840229143014A27
:1007F00011607047006C0040002806D00649096867
:1008000020221143044A116005E0034909682022AF
:100810009143014A11607047006C0040F0B587B009
:100820007D480068054609352F467B4800680690DC
:100830007A4801900698027979A1002002F058F8D0
:1008400000200590E0E00198007800907EA1002053
:10085000049B059A02F04CF801980078002824D0F7
:10086000002004901CE03879029083A10020049BB2
:10087000029A02F03DF80298C100081A09302D18BA
:100880002F46F878002807D185A1049B029A02F030
:100890002FF8002007B0F0BD0498401CC0B20490AF
:1008A0000198017804988142DDDC059880008C492C
:1008B0000F503A798BA1002002F01AF83879029093
:1008C0003A7992A1002002F013F809353A799AA1F9
:1008D000002002F00DF80020039089E0A278A1A189
:1008E000002002F005F82C46A278AAA1002001F011
:1008F000FFFFA0780007000FB2498873A278B2A169
:10090000002001F0F5FF6079217900020843C01D45
:100910004005060EA278B8A1002001F0E9FFA078FA
:1009200080210840002836D0A278BFA1002001F025
:10093000DFFFA4480674867CE278C7A1002001F09E
:10094000D7FFE0788207920FC3A1002001F0D0FF0B
:10095000E0788007800F012804D002280AD00328FD
:1009600013D108E0A278C7A1002001F0C1FF402008
:1009700006430AE000BFE278CEA1002001F0B8FFF4
:10098000402130468843064600BF00BF2020064372
:100990008C48867427E08B48C674467DE278D0A1E7
:1009A000002001F0A5FFE0788007800F012804D027
:1009B00002280AD0032813D108E0E278D3A100204E
:1009C00001F096FF402006430AE000BFE278DAA17A
:1009D000002001F08DFF402130468843064600BFCD
:1009E00000BF78484675ED1D0398401CC0B20390C7
:1009F00002990398884200DA70E70598401CC0B25B
:100A000005900198401C0190069801790598814253
:100A100000DD18E701203DE7080100200C0100205F
:100A2000436F6E6669677572654966733B20207017
:100A30006366672D3E624E756D496E7465726661C0
:100A40006365733D25640A00436F6E66696775725E
:100A5000654966733B20627949663D256409627980
:100A6000416C7449663D256420706279496656611F
:100A70006C3D25640A000000436F6E6669677572FD
:100A8000654966733B206279416C7449663D256413
:100A90000962794E756D4550733D25640A0000006A
:100AA000436F6E6669677572654966733B2062794C
:100AB000416C7449663D25640962794E756D4550F7
:100AC000733D256420217069662D3E62416C74651A
:100AD000726E61746553657474696E670A00000014
:100AE000B8070020616120436F6E666967757265A3
:100AF0004966733B097069662D3E624E756D456EA1
:100B000064706F696E74733D25640A0062626220CE
:100B1000436F6E6669677572654966733B097069F4
:100B2000662D3E624E756D456E64706F696E7473AE
:100B30003D25640A0000000063636320436F6E6616
:100B400069677572654966733B097069662D3E6217
:100B50004E756D456E64706F696E74733D25640AE1
:100B60000000000064646420436F6E6669677572FC
:100B7000654966733B097065702D3E62456E647011
:100B80006F696E74416464726573733D30782530AB
:100B900032780A00656520436F6E66696775726515
:100BA0004966733B097065702D3E62456E64706FD7
:100BB000696E74416464726573733D3078253032B8
:100BC000780A0000005C0040666620436F6E66692C
:100BD000677572654966733B097065702D3E6245A5
:100BE0006E64706F696E74416464726573733D30D6
:100BF00078253032780A0000333320436F6E6669FF
:100C0000677572654966733B097065702D3E624574
:100C10006E64706F696E74416464726573733D30A5
:100C200078253032780A000034343420436F6E6601
:100C300069677572654966733B097065702D3E6220
:100C4000456E64706F696E74416464726573733D60
:100C50003078253032780A00363620436F6E666968
:100C6000677572654966733B097065702D3E626DEC
:100C7000417474726962757465733D3078253032E1
:100C8000780A000035353520436F6E6669677572E6
:100C9000654966733B097065702D3E62456E6470F0
:100CA0006F696E74416464726573733D307825308A
:100CB00032780A0037373720436F6E66696775727E
:100CC000654966733B097065702D3E626D417474B1
:100CD000726962757465733D3078253032780A0028
:100CE00039393920436F6E66696775726549667375
:100CF0003B097065702D3E626D4174747269627556
:100D00007465733D3078253032780A006868682051
:100D1000436F6E6669677572654966733B097065F6
:100D2000702D3E626D417474726962757465733DB5
:100D30003078253032780A006666666620436F6E2A
:100D40006669677572654966733B097065702D3E0B
:100D5000626D417474726962757465733D30782593
:100D60003032780A0000000010B50D4800780028E5
:100D700008D001210B48006801F07AF900200849E9
:100D8000087010BD08480078002807D001210548E8
:100D9000006801F06DF900200349087000BFF0E71A
:100DA0008C020020240100208D02002070B5054631
:100DB0000C464423124A13A1002001F099FD184863
:100DC0000068002800D170BD47230D4A0DA1002006
:100DD00001F08EFD012013490870A1B2104800688F
:100DE000C171090A01720E480068401CFFF711FB2F
:100DF000064622462946FFF7ABFA00BFE3E70000AC
:100E0000606500082323232066756E6374696F6E26
:100E10003D2573206C696E653D2564200A00000045
:100E2000900200208D02002070B504461148046035
:100E3000227811A1002001F05BFD2078002817D056
:100E4000601CFFF7E6FA0546A279637910021843A1
:100E50000146284605F0E6F8012011490870A179FD
:100E600062790802104303490968C871000A0872D0
:100E7000012070BD900200204472697665725F5453
:100E800072616E7366657253746172742070497218
:100E9000622D3E6D5F697354783D25640A00000041
:100EA0008C0200207FB51E46012E07D16846007ACD
:100EB0001A4988734825084645742EE018A1002079
:100EC000019A01F015FD0198401C002825D00198D9
:100ED000402804DA019C0020C043019003E0402434
:100EE00001984038019018A10020019A01F000FDFE
:100EF0006946087A2146009A00F0E6F822461DA1CC
:100F0000002001F0F5FC0098001900906946087A6D
:100F1000024988730125084645747FBD005C004086
:100F2000456E64706F696E7442756C6B496E2070AB
:100F3000626973746174652E6E42797465734C6571
:100F400066743D25640A000032323220456E6470BA
:100F50006F696E7442756C6B496E20706269737450
:100F60006174652E6E42797465734C6566743D25B7
:100F7000640A000033333320456E64706F696E7409
:100F800042756C6B496E206E42797465733D2564C1
:100F90000A0000007FB5089E012E07D16846007B3D
:100FA0001849887390250846057529E06846007B36
:100FB000144988730846057D1EE01248C47D24024A
:100FC000807D0443029800190199884203DD0020C6
:100FD0000C4908757FBD6946087B2146009A00F0E0
:100FE00013F8029800190290009800190090002050
:100FF000044908750846057DE807C00F0028DCD1C4
:1010000000BFE7E7005C0040F7B582B006460C463B
:101010003346224615A1002001F06AFC002C1CD0AA
:10102000B0001B49401801902746049D13E02A7820
:1010300018A1002001F05CFC0098401C0090009872
:101040000A2803D116A1002001F052FC0198007873
:1010500028706D1C7F1E002FE9D13346224611A156
:10106000002001F045FC05B0F0BD00007374617212
:1010700074204649464F52656164206E427974651A
:1010800073203D202564206E45503D25640A0000F4
:10109000205C0040203078253032782000000000AD
:1010A0000A0000000A2020656E64204649464F521F
:1010B000656164206E4279746573203D202564204B
:1010C0006E45503D25640A00F7B582B006460C46D1
:1010D000002000903346224614A101F009FC002CA8
:1010E0001CD0B0001A49401801902746049D13E017
:1010F0002A7818A1002001F0FBFB297801980170E3
:101100006D1C0098401C009000980A2803D114A17F
:10111000002001F0EDFB7F1E002FE9D1334622466F
:1011200010A1002001F0E4FB05B0F0BD7374617202
:1011300074204649464F5772697465206E4279742F
:101140006573203D202564206E45503D25640A00CE
:10115000205C0040203078253032782000000000EC
:101160000A0000000A20656E64204649464F577207
:10117000697465206E4279746573203D2025642072
:101180006E45503D25640A00F0B50A460021002353
:10119000002400BF3DE001258D402B4615681D4011
:1011A0002C469C4234D11579012D02D01579022D9F
:1011B00016D185684F000326BE40B543856055793A
:1011C0004E00B540866835438560858801268E408F
:1011D000B5438580858896798E40B6B23543858043
:1011E00005684F000326BE40B543056015794E00E3
:1011F000B540066835430560C5684F000326BE400C
:10120000B543C560D5794E00B540C6683543C56065
:10121000491C1029BFD3F0BD02460020138A0B40A1
:10122000002B01D0012000E000207047002A01D0EF
:10123000816100E001857047014800687047000047
:10124000FC00002070B504460D460B490220FFF754
:10125000EBF8211D0120FFF7E7F821460831064889
:101260004338FFF7E1F821460220FFF7DDF8402080
:101270000249487470BD0000B3070020005C0040C4
:1012800070B504460D460B490320FFF7CDF8211D2C
:101290000120FFF7C9F82146083106484238FFF718
:1012A000C3F821460220FFF7BFF8402002494874E6
:1012B00070BD0000B3070020005C004070B504461C
:1012C0000D4615480068012824D9E878A97800025D
:1012D00008430012012804D0022804D0032818D1A2
:1012E00000E000BF00BF0D490120FFF79DF8211D60
:1012F0000120FFF799F82146083108485338FFF7D5
:1013000093F821460220FFF78FF8402004494874E3
:1013100000BF00BF70BD000004010020B307002023
:10132000005C004070B504460D460A490A20FFF7EC
:101330007BF821460020FFF777F8E878A9780002CB
:101340000843001203495339087440200249487485
:1013500070BD0000B3070020005C004070B504467B
:101360000D4609490B20FFF75FF821460020FFF7E3
:101370005BF8E878A97800020843034953394874B8
:1013800040200249487470BDB3070020005C004053
:1013900070B504460D46E878A978000208430012AB
:1013A000012804D0022803D003281CD11AE01AE037
:1013B0000E490920FFF738F8E979AA7909021143A3
:1013C0000846211DFFF730F821460120FFF72CF8D1
:1013D0002146083105485338FFF726F840200449D4
:1013E000487400E000BF00BF70BD0000B3070020DC
:1013F000005C0040002905D042680123DB039A43CA
:10140000426004E042680123DB031A4342607047F4
:10141000002904D0026801231A43026003E0026835
:10142000520852000260704710B504460B488442CF
:1014300009D10121480501F09FF900210120400553
:1014400001F09AF908E00121880501F095F90021E1
:101450000120800501F090F910BD0000005400400B
:10146000002905D0426801235B031A43426004E06F
:10147000426801235B039A4342607047002905D00C
:10148000426801239B031A43426004E0426801233F
:101490009B039A434260704710B50A4600210368D7
:1014A0005B085B0003600168144B194094682402D8
:1014B00053682343194301600F2424061368A34390
:1014C0000361036801242343036000218160C1603C
:1014D0001469936923431946816083680124E403F6
:1014E00023438360D16803680B4303604168044B66
:1014F000194053691943416010BD0000FFE0CF005F
:10150000FF7FFF07002905D1426801239B029A4310
:10151000426004E0426801239B021A434260704724
:101520000146486AC0B27047816270470A4600218E
:101530004168890A890293059B0D194341607047F0
:101540000021016041608160C16001610121C90326
:101550004161002181617047FFB581B004461E469C
:101560002746022531122A466D1CB9542A466D1CA5
:10157000BE54029801122A466D1CB9542A466D1CAD
:101580000298B854781932460399FEF7E1FEA67026
:10159000300AE070284605B0F0BD000070B5044682
:1015A0000D460E212046FEF730FF06482070000A47
:1015B00060700620A0700020E0702571280A60711C
:1015C000062070BD40400000F7B588B00020C04341
:1015D00006900590022004AB302220210090434861
:1015E00003F0D4FD05900598002802DA05980BB0A9
:1015F000F0BD6946087C0002497C084302900298CD
:10160000FEF7FCFD039002990398FEF7FEFE029898
:101610000090312220213548039B03F0B7FD05904F
:101620000598002804DA0398FEF719FE0598DEE70E
:101630000298001D80B2019002980A3086B200BF65
:1016400035462846FEF7DAFD0446402020706070DB
:10165000FF20000230400012A070E670AA20207126
:1016600001206071FF210902019808400012A07159
:101670000198E07100202072607232460A3A2046DA
:101680000A300399FEF764FE0A980580099F1848FE
:10169000B870000AF8703D70280A7870381DFEF79F
:1016A000B8FE00280AD179783A7809021143084631
:1016B000FEF7A4FD391D0090FEF7B6FE381DFEF7BB
:1016C000A8FE009078783978000208430246214647
:1016D0000098FEF73DFE0398FEF7C1FD05980790C0
:1016E0002046FEF7BCFD079881E70000005400404B
:1016F00001AA0000F7B58CB00020C0430A9005464F
:101700000C980A30FEF785FE08900898C07A00020F
:101710000899097B08430690069806280CDD06996F
:10172000881FFEF76BFD07900698821F08990F31FE
:101730000798FEF70DFE03E00020C0430FB0F0BD98
:101740000698801F0004010E08A801710698801FEA
:10175000C1B208A84171022009AB202211460090B5
:101760007F4803F051FD0546002D04DA0798FEF787
:1017700076FD2846E2E70698801F0090212220216E
:101780007748079B03F040FD0546002D04DA0798D3
:10179000FEF765FD2846D1E7012008A9087109ABCD
:1017A0001022202100906E4803F02EFD0546002DEA
:1017B00004DA0798FEF753FD2846BFE7002008A982
:1017C0000871012009AB102220210090644803F029
:1017D000DDFC0546002D04DA0798FEF740FD28469B
:1017E000ACE708A80079001105900598012805D0FC
:1017F0000798FEF734FD0020C0439FE7002108A8AA
:1018000001714171022009AB11222021009054483E
:1018100003F0BCFC0546002D04DA0798FEF71FFD17
:1018200028468BE708A80079010208A840790843F8
:101830000490002108A801714171022009AB202207
:1018400011460090464803F0A1FC0546002D04DA3D
:101850000798FEF704FD284670E708A8407900289D
:1018600009D108A80079002805D10798FEF7F7FCF0
:101870000020C04362E708A90879000249790843BB
:1018800006900798FEF7EBFC0498FEF7B7FC07906C
:1018900004980090122220213148079B03F076FC27
:1018A0000546002D04DA0798FEF7D9FC284645E7DF
:1018B0000498001D0390049807460A37029700BF5A
:1018C000029F3846FEF79AFC044640202070607064
:1018D000FF200002029F38400012A070029FE770B4
:1018E000AA20207103206071FF210902039808409B
:1018F0000012A0710398E0710020207260720E98AF
:1019000007800D9E1748B070000AF070B8B23070B2
:10191000000A7070301DFEF77CFD00280AD1717836
:101920003278090211430846FEF768FC311D019028
:10193000FEF77AFD301DFEF76CFD0190707831786E
:1019400000020843024621460198FEF701FD079870
:10195000FEF785FC20460B95FEF781FC0B98EDE623
:101960000054004001AA000070B504460D46082D41
:1019700027D1607C217C000208435521490288421E
:101980000ED0607C217C000208431249884207D0B7
:10199000607C217C000208430E49C91C884203D1A7
:1019A000204601F0A7FB13E0607C217C0002084385
:1019B000094988420CD100221146204601F0B6FBAD
:1019C00006E0052D03D1204601F094FB00E000BFA6
:1019D000002070BD02AA0000021D0000F8B50D46EF
:1019E0001646EA2030802C461348A070000AE070AA
:1019F000EA20207000206070201DFEF70AFD0028FC
:101A00000AD161782278090211430846FEF7F6FBF5
:101A10000746211DFEF708FD201DFEF7FAFC0746CC
:101A20006078217800020843024604493846FEF7F0
:101A30008FFC0020F8BD0000011D000040010020C7
:101A400070B50446264625462E212046FEF7DDFCCD
:101A5000284601F045FB0A203070002070700120FC
:101A6000B070291D0948FEF7DFFC294608310848F7
:101A7000FEF7DAFC29460C310648FEF7D5FC29466C
:101A80000548006800F0E8F9012070BD69190008F8
:101A90009D1A0008611B000824010020FFB581B0D9
:101AA0000E4614461F4600200090707931790002DE
:101AB0000843054600203880681C81B22046FFF7A5
:101AC0006DFD01980574290A417455204002854234
:101AD00005D16A46A11D3046FFF776FD2BE01D4873
:101AE000854205D16A46A11D3046FFF703FE22E07C
:101AF0001848C01C85421ED01D200002854205D119
:101B00006A46A11D3046FFF769FF14E0124885427E
:101B100008D16A46A11D304604F0E4F901200F49BE
:101B2000087008E00C48401C854204D16A46A11D9B
:101B30003046FFF753FF68460088002807D0684604
:101B40000388A21D00212046FFF706FD38800020F3
:101B500005B0F0BD02AA0000021D00000000002038
:101B600003460020704770B5024600241546002346
:101B700005E02E786D1C3019C4B2581C83B28B421C
:101B8000F7DBE043401CC0B270BDFFB583B0044634
:101B90000E9D02942846093087B2002D01D0781C92
:101BA00087B20A212046FEF730FCA520C0432070F2
:101BB000000A6070A770380AE0706846007C2071E7
:101BC000059860710698A0710C98E0710821029840
:101BD000FFF7C9FF20722A46204609300D99FEF70B
:101BE000B7FB0D9EB01D002810D0001DFEF711FCA4
:101BF00000280BD030460A30FEF70BFC0190FEF7B0
:101C00002EFB31460A310020FEF70EFC204609303B
:101C100002902946FFF7A7FF02994855384607B0BA
:101C2000F0BD7FB505460C460026002103916846AD
:101C3000007B4021884340300390002000900190B9
:101C400002906379A27928460399FFF79EFF064622
:101C5000304604B070BD000070B504460D46104912
:101C60002046FEF7D2FB0E48001F21182846FEF73B
:101C7000DBFB0B483F38211820463630FEF7D4FBFB
:101C800007483B38211820468030FEF7CDFB04483A
:101C900037382118024849382018FEF7C5FB70BDB7
:101CA00005050000F8B504460D4620462B30FEF72A
:101CB000B0FB009020462B30FEF7ABFB071D3846EB
:101CC000FEF7A7FB064629460098B047F8BD034635
:101CD00000207047FEB504460D4616460027062D27
:101CE00036D1207801280CD11A482018FEF791FB34
:101CF000172201460190204600F02EF802202070A5
:101D000026E0207802281AD11248001D2018FEF77C
:101D100080FB31460190FFF784FF07460D48001D08
:101D20002018FEF776FB0190002003463A4600900B
:101D30002046019900F0A6FA0320207008E02078E0
:101D4000032805D105212046FFF7ACFF05202070B0
:101D50000020FEBDCA040000F8B505460F46164631
:101D60009F20C0002C181248864201D90020F8BDDF
:101D700010A1002000F0BCFD00202070611C38463E
:101D8000FEF752FBB1B26171090AA1710021E17144
:101D900021720748C5302818FEF73BFB009020460B
:101DA00000998847002800D1E1E70120DFE7000023
:101DB0003C040000496170324C696E6B5F5263767F
:101DC0004461746120704972622D3E6D5F69735485
:101DD0007820093D2066616C7365200A00000000D0
:101DE00070B50446BB23134A13A1002000F080FD08
:101DF00018482018FEF70DFB05469F20C00020184C
:101E0000A847002800D170BDC1230A4A0AA10020BA
:101E100000F06EFD0F481F382118487D097D000233
:101E20000843024601210B482F38201801F0F0F931
:101E30000120E8E72F6500082323232066756E63E1
:101E400074696F6E3D2573206C696E653D25640A6B
:101E5000000000000105000070B504460D462F216A
:101E60000A5D095D491CCBB22F210B555100521858
:101E700021463031501803222946FEF769FA2146DF
:101E80002B312846FEF7D0FA70BD000010B504468D
:101E900017482018007DC007C00F002826D014481E
:101EA000201801F051FA002820D0FF23BF33114A37
:101EB00011A1002000F01CFD272040012018007D0A
:101EC000272149016118497D884205DD272040010D
:101ED0002018407DFF2809D1FF23C433054A06A1FD
:101EE000002000F005FD2046FFF77AFF10BD00003E
:101EF000D2040000536500082323232066756E6317
:101F000074696F6E3D2573206C696E653D25640AAA
:101F10000000000070B588B0044600BF21482018BA
:101F2000FEF777FA064602212046FFF7BBFE03A81C
:101F300000F032FB2F20005D410042182146303175
:101F400005A80230FEF704FA002107916846007FD9
:101F500080218843803007902F20005D4100401889
:101F60000A3003A900220092019102902320025D11
:101F7000005D401CC3B2232003550023304607995F
:101F8000FFF703FE05460A207D23DB002A46314683
:101F90000090204600F076F901202070002008B063
:101FA00070BD0000C60400007047000038B504464C
:101FB0000DA1002000F09CFCFF207D23DB00062209
:101FC0000E490090204600F05DF9002803D10CA1D5
:101FD00000F08EFC38BD14A1002000F089FC002028
:101FE000207000BFF6E70000496170324C696E6BEB
:101FF0005F53746172742E0A0000000028010020F3
:102000007878787878782053656E6420696E697482
:1020100069616C697A6174696F6E20706B74206697
:1020200061696C65642E0A007878787878787878B9
:102030007878787853656E6420696E697469616C2C
:10204000697A6174696F6E20706B74207375636355
:1020500065737366756C2E0A0000000010B50446A7
:102060000248201801F01CF910BD0000D204000045
:10207000FEB504460E469F20C00027180025002EFE
:1020800001D0062000E007200190FF236B335A4A5D
:102090005AA1002000F02CFC002E07D15E48201829
:1020A000007DC007C00F002800D0FEBDFF237433A1
:1020B000514A52A1002000F01BFC207800280AD1D0
:1020C000FF2379334C4A4DA100F012FC20460199C0
:1020D00000F08CF9E9E7FF237E33474A47A100204F
:1020E00000F006FC9F20C0002018401CFEF791F96C
:1020F0000546397AFA7908021043002853D0387817
:10210000002850D19F20C0002018017AC37908020E
:10211000184302462946204600F032F9002803D130
:102120003EA100F0E5FBC0E7FF238933324A33A12B
:10213000002000F0DDFB28790007C00F002807D041
:102140003CA1002000F0D4FB2046FFF72DFFACE7B8
:102150002879C006C00F002807D03AA1002000F05F
:10216000C7FB2046FFF7D6FE9FE728794006C00F41
:10217000002811D028798006C00F00280CD0FF233A
:102180009A331D4A1DA1002000F0B2FB2A462046CA
:102190000199FFF79CFD88E7FF23A033164A17A19A
:1021A000002000F0A5FB2078FF23A333124A29A1C9
:1021B0000090002000F09CFB2078012806D0022827
:1021C00005D0032804D0052812D107E000BF00BFC6
:1021D0002A4620460199FFF77DFD09E020462B3075
:1021E000FEF717F92A460090019900F09FFC00BF06
:1021F00000BF00BF59E700003D65000823232320EE
:1022000066756E6374696F6E3D2573206C696E65CB
:102210003D2564200A000000D20400005061636B79
:10222000657420766572696679206661696C65649B
:10223000210A00004C696E6B20536C6565702E0A94
:10224000000000004C696E6B2052657365742E0AA5
:10225000000000002323232066756E6374696F6E8F
:102260003D2573206C696E653D2564207049617061
:10227000324C696E6B2D3E6D5F53746174653D2504
:10228000640A0000FFB581B0044617461E469F2031
:10229000C00025183B464A2221A1002000F028FB5F
:1022A000272040012018007D401C2721490161188A
:1022B000087528A1002000F01BFB01202870691C74
:1022C0000298FEF7B1F8B9B26971090AA971002143
:1022D000E97129722721490161180A984875B0B23D
:1022E000264961180875000A487524481F302018CF
:1022F000FEF78FF80090284600998847002801D102
:1023000005B0F0BD0A98002808D0002E06D032464D
:1023100001211A481038201800F07AFF0120EFE759
:10232000496170324C696E6B5F547844617461200E
:1023300073697A656F6628496170324C696E6B52B9
:102340006571506B74293D2564206C656E3D256474
:102350000A000000496170324C696E6B5F5478442A
:1023600061746120704972622D3E6D5F69735478AB
:1023700020093D2054727565200A0000E204000027
:10238000FEB506460C4615460027201D02909F20EC
:10239000C0003018401CFEF73CF80190E078A178AE
:1023A000000208430090092D05DB0098A84202D1E5
:1023B0000C48854201DD0020FEBD607821780002D6
:1023C00008430949884201D00020F5E7082120464A
:1023D000FFF7C9FB0746207AB84201D00020EBE79F
:1023E0000120E9E71E8000005AFF0000F8B504460E
:1023F0000D462EA1002000F07BFA062D05D032A15B
:10240000002000F075FA0120F8BD37A1002000F08F
:102410006FFA272040012018007E002814D038A130
:10242000002000F065FA3D48201800F039FF3B48D5
:10243000001F2018FDF7EDFF064606223146204614
:10244000FFF78AFC0220DFE735A1002000F050FAF8
:102450009F20C0002018401CFDF7DBFF06469F2090
:10246000C0002018017AC379080218430246314699
:102470003248FDF71AFF002806D131A100F038FAE2
:102480002046FFF747FD0BE034A1002000F030FAB2
:10249000002003461222384900902046FFF7F2FE42
:1024A00036A1002000F024FA0020ADE74961703227
:1024B0004C696E6B5F68616E645368616B652E205A
:1024C0003030300A0000000069417032204C696EE3
:1024D0006B2068616E64207368616B65206669615A
:1024E0006C65642E0A000000496170324C696E6BA5
:1024F0005F68616E645368616B652E2031310A003C
:10250000496170324C696E6B5F68616E64536861DB
:102510006B652E203232320A00000000D204000027
:10252000496170324C696E6B5F68616E64536861BB
:102530006B652E203333330A000000002801002091
:10254000496170324C696E6B5F68616E645368619B
:102550006B652E203434340A00000000496170326B
:102560004C696E6B5F68616E645368616B652E20A9
:102570003535350A000000002E0100204961703217
:102580004C696E6B5F68616E645368616B652E2089
:102590003636360A0000000010B5044610212046E9
:1025A000FDF733FF0120207060708020A0701E2096
:1025B000E07005202071DC2060710020A071E071C6
:1025C0000A2020720020607210BD03461A460029BE
:1025D00001D10020704700200860002B02D1486024
:1025E0000B460BE004E012688A4201D10020F1E7BB
:1025F00010680028F7D111604A6000BF1846E9E76B
:1026000010B5044614212046FDF701FF10BD014618
:102610000A46002900D170474868002804D10A689A
:10262000002A00D050600EE04B6808681860086807
:10263000002802D00B684868586000E05268506873
:102640000028FBD100BF0020486008601046E2E788
:1026500000218278002A27D0184A03231B02D218AF
:1026600003789B109B00D15802789207D30EFF226B
:102670009A400B469343194642789207120E03780C
:102680009B07DB0E9A4011430C4A03231B02D2180E
:1026900003789B109B00D1500278D306DB0E0122F9
:1026A0009A40064B1A6007E00278D306DB0E01223F
:1026B0009A40024B80331A607047000000E100E04E
:1026C00010B5002819DA1A4A03071B0F083B9B08AC
:1026D0009B00D2588307DC0EFF23A3409A438B074D
:1026E0001B0E8407E40EA3401A43114B0407240F6A
:1026F000083CA408A4001A5118E00E4A03231B0248
:10270000D21883089B00D2588307DC0EFF23A34016
:102710009A438B071B0E8407E40EA3401A43054B14
:10272000032424021B198408A4001A5110BD0000C0
:102730001CED00E000E100E0002905D0054A5269E7
:102740000243044B5A6104E0024A52698243014B3E
:102750005A61704700100240002905D0054AD2692D
:102760000243044BDA6104E0024AD2698243014B1E
:10277000DA61704700100240002905D0054A12694D
:102780000243044B1A6104E0024A12698243014B7E
:102790001A6170470010024010B502460021002364
:1027A00000205111002902D10C4C23680BE00129B3
:1027B00002D10A4C236A06E0022902D1074C636A5F
:1027C00001E0064C636BD106C90E01248C401C400D
:1027D000002C01D0012000E0002010BD00100240BC
:1027E000002807D00749496B012212041143054A0A
:1027F000516306E00349496B012212049143014AE7
:1028000051637047001002400549096B80229143D3
:10281000034A11631146096B0143116370470000BD
:1028200000100240F8B504460D46164600BF0E489B
:102830000078002801D102F0B1F800BFEFF310805A
:102840000746012080F3108800BF00BF32462946AA
:10285000204600F00BF80090F8B280F3108800BF1B
:1028600000BF0098F8BD000034080020F7B582B022
:102870000746164603980190182078431B494018D4
:10288000009000984069002804D0012811D0022847
:1028900026D11EE0009802F0B9F80546B54201D2F3
:1028A000002405E0344632460199009802F031FADE
:1028B00018E0009802F0AAF80546B54201D2284671
:1028C00000E03046044622460199009802F021FAC1
:1028D00008E032460199009802F0DEF9044601E072
:1028E000002400BF00BF204605B0F0BD4C0800200A
:1028F0000FB438B5044606A800906A4620460599EC
:1029000000F008F8054600200090284638BC08BCB6
:1029100004B01847F7B59AB00D46144602A81590B2
:1029200040201690002017901A98199000201890B7
:1029300000BF2E786D1C002E00D1E4E0252E79D149
:1029400000270120149000BF2E78232E12D02B2EAA
:102950000CD02D2E02D0302E10D103E001200743E1
:102960006D1C0EE0022007436D1C0AE004200743A3
:102970006D1C06E0082007436D1C02E00020149047
:1029800000BF00BF14980028DED1129000BF2E783F
:10299000302E01DB392E00DD08E06D1C0A21129873
:1029A00048433146303940181290F0E700BF00200C
:1029B00013902E782E2E11D16D1C00BF2E78302E44
:1029C00001DB392E00DD08E06D1C0A211398484315
:1029D0003146303940181390F0E700BF2E7800BF21
:1029E0006C2E01D0682E02D16D1C2E7800E000E024
:1029F000F6E700BF702E63D008DC252E72D0582E6B
:102A000038D0632E09D0642E71D114E0732E40D0DB
:102A1000752E1FD0782E6AD12BE02168081D20600A
:102A2000086814901498C0B2019015A8019902F09A
:102A300011F95DE05FE02168081D206008681490CE
:102A40001298019700900A2215A8139B149901F07F
:102A5000EBFF4DE02168081D206008681490129873
:102A6000019700900A2215A8139B149902F064F8AC
:102A70003EE000BF2168081D20600868149012988D
:102A800001970090102215A8139B149902F054F896
:102A90002EE02168081D20600868019000BF0198A1
:102AA00006780198401C0190002E00D106E03146C6
:102AB00015A802F0CFF818980028F0DA00BF17E048
:102AC0002168081D206008681490002008210B462A
:102AD00010220091019015A8149902F02DF807E03A
:102AE00000E004E0252115A802F0B4F800E000BFE2
:102AF00000BF6D1C03E0314615A802F0ABF8189832
:102B0000002800DB15E700BF189800280BDD179898
:102B1000002804D002A9179A1A98FFF783FE179984
:102B200018984018189018981DB0F0BDF8B50446D4
:102B30000D461646062D0BD0204600F045F8201D08
:102B4000FDF767FC074629462046B8470020F8BD38
:102B5000E078062806D132462946204600F052FA8F
:102B6000C0B2F4E7E078072806D13246294620466D
:102B700000F09EF8C0B2EAE7E078082806D13246B5
:102B80002946204600F070FAC0B2E0E7E078092854
:102B900006D132462946204600F078F9C0B2D6E781
:102BA000E078032805D132462946204600F0FEF998
:102BB000CDE7E078042805D132462946204600F0CA
:102BC0000FF8C4E70420C2E710B5044603480068C4
:102BD000FFF744FA0520E07010BD0000240100203A
:102BE000F8B505460E461446A5231D4A1DA1002032
:102BF000FFF77EFE062E01D00120F8BD20480068B8
:102C000020494018FDF705FC4079A179884209D197
:102C10001B4800681B494018FDF7FBFB8079617970
:102C2000884210D0164800681649091F4018FDF761
:102C3000F0FB47790097A37913A200210846FFF71C
:102C400057FE0120D9E72846FFF7BEFF281DFDF7F4
:102C5000E0FB074608212846B8470020CDE70000E2
:102C6000076500082323232066756E6374696F6E01
:102C70003D2573206C696E653D25640A00000000E7
:102C800024010020CA04000041636B5365714E7536
:102C90006D5B307825785D5B307825785D206973D1
:102CA000206E6F74206D617463682E0A000000004E
:102CB000F0B589B005460E46144600200890E0782D
:102CC000A17800020843079047205F4B5FA20021D4
:102CD00000900846FFF70CFE062E02D0012009B036
:102CE000F0BD6148006861494018FDF792FB074656
:102CF0006846828B21463846FDF72AFB6846808B62
:102D000009281CDD584801685848001D0818FDF7BF
:102D100080FB093005905448006854494018FDF77D
:102D200078FB0930049028460830FDF772FB07460F
:102D300007AB2846059A0499B847089013E04CA2BF
:102D400000210846FFF7D4FD47480068474940186E
:102D5000FDF75FFB07464A22394643480068FEF705
:102D6000FBFF0020BBE76846808B002821D13E484E
:102D700000683E4908314018FDF74BFB07462146E5
:102D8000FEF74FFF81B20791374800683749083195
:102D90004018FDF73EFB07460020034600906846BA
:102DA000828B394630480068FFF76CFA0320E870E0
:102DB00047E0002106916846007E40218843411883
:102DC0000691294801682948001D0818FDF721FBD4
:102DD00009300590244800682449091D4018FDF772
:102DE00018FB04906846828BE07905996B4607C30F
:102DF0001D4800682030C2781B4800682030C07829
:102E0000401CC7B2184800682030C7706379069923
:102E10000498FEF7BAFE81B207911348006813497F
:102E2000091D4018FDF7F5FA0746002003460090FB
:102E30006846828B39460C480068FFF723FA082061
:102E4000E87000204BE70000CB6400082323232018
:102E500066756E6374696F6E3D2573206C696E656F
:102E60003D25640A0000000024010020C604000083
:102E700052656365697665206461746120697320B9
:102E8000696E76616C69642E0A000000FEB5054625
:102E90000E461446E078A1780002084307468723CF
:102EA0002E4A2FA10020FFF723FD062E01D001207E
:102EB000FEBD3248006832494018FDF7AAFA407951
:102EC000A17988420FD02D4800682D494018FDF7A0
:102ED000A0FA40790190A27903462AA10020FFF7C9
:102EE00007FD0120E4E7254801682548001D081872
:102EF000FDF78FFA3A4621460190FDF729FA092F8E
:102F00000BD12846FFF760FE281DFDF782FA082145
:102F100001902846019A90471EE018480068184919
:102F200008314018FDF775FA21460190FEF779FE49
:102F3000074612480068124908314018FDF769FA3F
:102F40000190002003463A4600900C480199006821
:102F5000FFF798F90320E8700020A9E7F364000860
:102F60002323232066756E6374696F6E3D2573207D
:102F70006C696E653D25640A000000002401002094
:102F8000C604000041636B5365714E756D5B30780C
:102F900025785D5B307825785D206973206E6F74CD
:102FA000206D617463682E0A00000000F8B50546C4
:102FB0000C461746B7230B4A0BA10020FFF798FCDD
:102FC000062C01D00120F8BD062C09D12846FFF7B8
:102FD000FBFD281DFDF71DFA064605212846B047D2
:102FE0000020F0E71B6500082323232066756E632D
:102FF00074696F6E3D2573206C696E653D25640AAA
:1030000000000000F8B504460D46164632200D4B70
:103010000DA2002100900846FFF76AFC062D0ED194
:10302000002003460122214600900E480068FFF769
:1030300029F9002803D00920E0700020F8BD012004
:10304000FCE70000B76400082323232066756E6345
:1030500074696F6E3D2573206C696E653D25640A49
:103060000000000024010020F8B504460D46164675
:10307000F078B17800020843074676230E4A0FA184
:103080000020FFF735FC062D01D00120F8BD1248C5
:10309000016812480818FDF7BCF94A220146009061
:1030A0000D480068FEF758FE002803D00420E070A9
:1030B0000020EBE70120E9E7DF6400082323232059
:1030C00066756E6374696F6E3D2573206C696E65FD
:1030D0003D25640A0000000024010020CE04000009
:1030E00010B5044610212046FDF78FF90520E07049
:1030F00010BD000070B50446E078052801D000201E
:1031000070BD0848006808494018FDF782F9054677
:103110004A22294603480068FEF71EFE0720E07099
:103120000120EDE724010020C60400000346D87802
:10313000052801D0002070470620D8700120FAE74A
:103140000CB50020019000902F4800680121084331
:103150002D49086000BF2C480068022108400090FB
:103160000198401C01900098002804D10521090312
:1031700001988842EFD124480068022108400028C5
:1031800002D00120009001E000200090009801286A
:1031900038D111201D4908601B4840681A49486011
:1031A000084640684860084640687F21C903884354
:1031B0001549486008464068C900084312494860FC
:1031C000084600680121090608430F49086000BF4E
:1031D0000D4800680121490608400028F8D00A4837
:1031E000406880088000084948600846406802211D
:1031F00008430549486000BF034840680C21084067
:103200000828F9D10CBD0000001002400020024047
:10321000FEB504460E461546002D00D1FEBD2146E2
:103220000C312846FDF700F9FEF706F8074621465F
:103230001031FDF7F9F86675207D40084000401C0C
:10324000207520461030FDF7E4F8074620460C3084
:10325000FDF7DFF800970190627D034602A1002090
:10326000FFF746FB00BFD9E7496E69742054696DCA
:1032700065722849443D2564292C2054696D657286
:103280006F7574207469636B733D25642C20696EBF
:1032900069745469636B733D3078253038780A005F
:1032A000017D49084900017570470000F8B50446E2
:1032B0000D46164600272B4622460FA100200096F9
:1032C000FFF716FBA54209D2781E001B47194323BE
:1032D000154A16A10020FFF70BFB06E04823124A0F
:1032E00012A10020FFF704FB2F1BB74201D30120DE
:1032F000F8BD0020FCE7000023232320696E6974D9
:103300005469636B733D2564206E65775469636B04
:10331000733D25642074696D654F75745469636BE2
:10332000733D25640A000000A464000823232320C1
:1033300066756E6374696F6E3D2573206C696E658A
:103340003D2564200A000000F8B5044620460C30F4
:10335000FDF75FF80546FDF76FFF06462046103083
:10336000FDF757F807462A463146FFF79FFFF8BD9D
:10337000042806D10649096904221143044A11614F
:1033800005E00349096904229143014A116170472C
:1033900000E000E001B5FDF74FFF024611E0FDF748
:1033A0004BFF0146914207D20020C043801A4018CB
:1033B000009B984205D905E0881A009B984200D9E5
:1033C00000E0ECE700BF08BD06480068401C00288C
:1033D00002D10449086004E002480068401C014929
:1033E00008607047FC00002010B51B4800680121F0
:1033F00008431949086008464068184908401649BA
:1034000048600846006816490840134908600846A5
:1034100000680121890488430F4908600846406814
:103420003F21090488430C4948600846C06A0009E6
:103430000001C8620846006BFF21543188430649E9
:1034400008630846406B40084000486300208860DD
:10345000FFF776FE10BD0000001002400CB8FFF828
:10346000FFFFF6FE10B50E4C601E0E49884201D9D2
:1034700001200CE0601E0C4948610321081FFFF782
:103480001FF90020084988610720086100200028F2
:1034900001D000BFFEE70420FFF76AFF10BD000067
:1034A00080BB0000FFFFFF0000E000E070B586B0C9
:1034B00004460D461646684604750396029500209C
:1034C0000490009002A80FC8FDF764FD049806B0B0
:1034D00070BD0000FEB505460E4617460024224882
:1034E00022A102680020FFF703FA1F4800680128A4
:1034F00032D91D4824A102680020FFF7F9F9684677
:103500000572019700960023684607C8FDF7CAFCBC
:103510002448427C24A10020FFF7EAF90EE022466D
:103520002DA10020FFF7E4F9641C601C002805D1E0
:1035300022462FA1FFF7DCF90020FEBD1948407C90
:10354000C007C00F0028EAD107482FA10268002059
:10355000FFF7CEF90120F0E7034832A1026800200E
:10356000FFF7C6F90020E8E7040100205553425F49
:1035700045505F547820676E446576537461746576
:103580003D25640A0000000032205553425F45503B
:103590005F547820676E44657653746174653D2589
:1035A000640A0000005C004033205553425F4550E0
:1035B0005F5478204D524541445F42595445284D4F
:1035C0005F5245475F494E43535231293D3078257C
:1035D0003032780A0000000034205553425F4550D5
:1035E0005F54782074696D656F75743D25640A00B9
:1035F00035205553425F45505F54782074696D659E
:103600006F75743D25640A0036205553425F45505E
:103610005F547820676E44657653746174653D2508
:10362000640A000037205553425F45505F547820AC
:10363000676E44657653746174653D25640A0000C5
:1036400070B505462A4646A10020FFF751F9012D25
:103650000AD14C490020FCF7E7FEFF2049490874D5
:1036600000204949086070BD002048498873084619
:10367000447CE007C00F002824D14248007CFF288A
:1036800020D04048007C08704148006800280BD1D9
:103690003C48007C002807D03EA10020FFF728F915
:1036A00001203B4908600DE039480068012809D134
:1036B0003448007C002805D141A1FFF719F900200A
:1036C00033490860FF202F49087404202040002857
:1036D00008D02021204688432C49487429490020DD
:1036E000FCF7A2FE10202040002807D080202043B5
:1036F0002649487423490020FCF796FE2148FCF730
:1037000088FE002810D1E007C00F00280CD0364AF0
:1037100008210020FDF778FC34A10020FFF7E8F82D
:103720003149184800F084F81648FCF772FE022868
:1037300007D133A10020FFF7DBF8124800F0BEF8F4
:103740000BE01048FCF765FE012806D132A10020ED
:10375000FFF7CEF80B4800F08BF800BF83E70000BE
:103760005553425F456E64706F696E7430202078E7
:103770007878206E43616C6C5374617465203D25CC
:10378000640A00002308002008010020005C0040BB
:1037900004010020676E4465765374617465203DB2
:1037A0002044455653544154455F41444452455387
:1037B000533B0920787878203131310A000000002D
:1037C000676E4465765374617465203D20444556A8
:1037D00053544154455F414444524553533B09209F
:1037E0003232320A000000001C0100205553425FB3
:1037F000456E64706F696E743020206161610A00EB
:103800005553425F456E64706F696E74305F5478D3
:1038100020313131310A00005553425F456E6470EA
:103820006F696E74305F547820323232320A000091
:1038300070B505460C46207860210840002804D069
:10384000202807D040280AD10AE02146284600F067
:10385000C1FA09E02146284600F06CF804E000BFF8
:1038600060200249487400BF00BF70BD005C00408A
:10387000F8B504460020104988730846457C16E0D8
:1038800021460020FCF7D0FD20460830FCF7C1FDA2
:103890000646201DFCF7BDFD07463246394600208E
:1038A000FDF7B2FB4020044948740846457CE80710
:1038B000C00F0028E4D1F8BD005C0040F8B5044614
:1038C000201DFCF7A6FD402808DC201DFCF7A1FD0B
:1038D0000546211D0020FCF7A7FD08E04025201D1E
:1038E000FCF797FD471B211D3846FCF79DFD204640
:1038F0000830FCF78EFD07463A4629460020FDF7C2
:10390000E3FB20460830FCF784FD471921460831C7
:103910003846FCF789FD402D05DA0A2621460020AD
:10392000FCF782FD00E0022601484674F8BD000065
:10393000005C004070B505460C466078030001F05D
:103940000DFA0C25070C112525252525161B2025EC
:1039500021462846FDF7B2FC70BD21462846FDF7FA
:1039600071FCF9E721462846FDF78AFCF4E7214679
:103970002846FDF70DFDEFE721462846FDF7D2FC6E
:10398000EAE721462846FDF7E9FCE5E700BF00BF6E
:1039900060200249487400BFDEE70000005C004080
:1039A000FEB500200190002600245D48807801903B
:1039B0005B4886790479002C02D10198002806D052
:1039C0003346009457490020019AFEF791FF002CDE
:1039D00004D0224654490020FEF78AFF02203040DE
:1039E000002802D00220514908708120C0003040D8
:1039F00000280CD04A4880790821884348498871BA
:103A00004B480078102188431030494908704948D4
:103A10003040002801D000F07DF9FF2102310198EB
:103A20000840002806D044A10020FEF761FF0020D6
:103A3000FFF706FE48482040002829D0AF23474A18
:103A400047A10020FEF754FF402252490020FFF713
:103A50002DFD87B20F20FCF7D1FB05463846FCF759
:103A6000CDFB29460A310090FCF7DEFC0020A8734C
:103A70002946FCF7D9FC291D0020FCF7D5FC38B2FB
:103A80002872000A6872294643480068FEF79DFDC7
:103A9000812080002040002812D0C3232F4A3FA15C
:103AA0000020FEF725FF40223A490220FFF7FEFCE6
:103AB00087B2C523294A45A100200097FEF718FFC9
:103AC00011204001204000280AD0D323234A33A1EB
:103AD0000020FEF70DFF40222E490520FFF7E6FCEF
:103AE0000520C001204000280DD040222949072090
:103AF000FFF7DCFC27480078401C2649087040226C
:103B00000620FFF7E7FCF007C00F002806D03F486B
:103B10000068012802D9012004490870FEBD000098
:103B2000005C0040C46500087065000801010020C9
:103B300018010020040400005553425F456E647074
:103B40006F696E7430284D5F45505F4E4F524D4146
:103B50004C293B203131310002020000B3620008E1
:103B6000555320425F49545F4F55545F4550315F74
:103B7000464C4147202323202020232066756E6376
:103B800074696F6E3D2573206C696E653D25640A0E
:103B9000000000001D050020080000205553425F72
:103BA00049545F4F55545F4550325F464C41472062
:103BB0002323232066756E6374696F6E3D25732021
:103BC0006C696E653D25640A000000005553425F34
:103BD00049545F4F55545F4550325F464C41472032
:103BE0002323232066756E6374696F6E3D257320F1
:103BF0006C696E653D256420726563765F646174EF
:103C0000615F6C656E3D25640A00000004010020C0
:103C100030B50A46164900238C150440002C05D007
:103C2000C91D8D150446AC43234616E001246402E9
:103C30000440002C06D00E4909314D150446AC4312
:103C400023460AE00124A4020440002C05D00849C0
:103C50000B310D150446AC432346002A04D00C78E2
:103C6000DDB22C430C7002E00C789C430C7030BD2C
:103C7000005C004008B57120FEF78EFD012808D0D9
:103C80000120FEF7ADFD00BF7120FEF785FD012884
:103C9000FAD10020FEF7B8FD0121C805FEF75CFD52
:103CA00001211448FFF7B4FF01211248401EFFF71D
:103CB000AFFF01218120C000FFF7AAFF01210D48BD
:103CC000801CFFF7A5FF012000F016F81F216846B1
:103CD00001700021417001218170FEF7B9FC0121C2
:103CE000C806FEF739FD0120FCF786FD0120FCF730
:103CF00071FD08BD0204000001460020044AD07B8B
:103D00008008800002460A431046014AD07370477B
:103D1000005C004000B589B000202C4908600120FB
:103D2000FFF78EFC012108A80170881E079001236F
:103D300006A807C8FDF7B6F8022108A80170C81E3A
:103D40000790012306A807C8FDF7ACF8032108A8CF
:103D50000170081F0790012306A807C8FDF7A2F805
:103D6000042108A80170481F0790012306A807C86E
:103D7000FDF798F8062108A80170C81F07900123D5
:103D800006A807C8FDF78EF8052168460175402092
:103D90000390002004900120009002A80FC8FDF7B6
:103DA000F9F807216846017540200390002004902F
:103DB0000120009002A80FC8FDF7ECF804484078F5
:103DC000012108430249487009B000BD04010020E8
:103DD000005C0040F0B589B004460D460020089014
:103DE00007902879029002980007000F03900020A6
:103DF00001906A78FAA1FEF77BFD68780C2870D2F2
:103E000043007B449B885B009F44F804B6036B002F
:103E100051036B000B0020006B00F90280022A03A3
:103E2000D1022878002802D0012008900DE0F64841
:103E30000068012807D8E878A978000208432074B0
:103E40000120079001E0012008905EE2287880219F
:103E50000840002802D10120089056E2E878A978AD
:103E600000020843FF210902084003225202811A7E
:103E7000904237D00CDCFF380138002811D0FF38D1
:103E80000138002831D0FF38013800287ED112E1F6
:103E9000FF390139002959D01B200002081AF5D139
:103EA00057E0211DD9480088FCF7BEFA201DFCF719
:103EB000B0FAE979AA7909021143884207DDE97964
:103EC000AA79090211430846211DFCF7ADFA2146E3
:103ED0000831CF48FCF7A8FA21460220FCF7A4FAE3
:103EE00012E298E3012008900EE2E878A978000237
:103EF0000843C0B20590C5480088401EC449095C0B
:103F00000598814202DA012008901EE0211DC14877
:103F10000088FCF789FA21460831BF48FCF784FA8B
:103F200021460220FCF780FA201DFCF772FAE9799D
:103F3000AA7909021143884207DDE979AA790902C1
:103F400011430846211DFCF76FFADDE101200890BE
:103F5000DAE16879297900020843030000F0FEFEE7
:103F6000050426466686A600211DAC480088FCF79D
:103F70005BFA201DFCF74DFAE979AA790902114391
:103F8000884209DDE979AA79090200E0B9E1114323
:103F90000846211DFCF748FA21460831A048FCF7E5
:103FA00043FA21460220FCF73FFA82E0211D9D489A
:103FB0000088FCF739FA201DFCF72BFAE979AA7979
:103FC00009021143884207DDE979AA790902114300
:103FD0000846211DFCF728FA214608319248FCF7D3
:103FE00023FA21460220FCF71FFA62E0211D8F48C8
:103FF0000088FCF719FA201DFCF70BFAE979AA7979
:1040000009021143884207DDE979AA7909021143BF
:104010000846211DFCF708FA214608318448FCF7C0
:1040200003FA21460220FCF7FFF942E0211D8148F6
:104030000088FCF7F9F9201DFCF7EBF9E979AA797A
:1040400009021143884207DDE979AA79090211437F
:104050000846211DFCF7E8F9214608317648FCF7AF
:10406000E3F921460220FCF7DFF922E0211D734825
:104070000088FCF7D9F9201DFCF7CBF9E979AA797A
:1040800009021143884207DDE979AA79090211433F
:104090000846211DFCF7C8F9214608316848FCF79D
:1040A000C3F921460220FCF7BFF902E00120089085
:1040B00000BF00BF28E1E878A97800020843024663
:1040C00060A10020FEF714FCE878A97800020843FC
:1040D000C0B2030000F042FE0504244464DCEF009B
:1040E000211D63480088FCF79FF9201DFCF791F91A
:1040F000E979AA7909021143884207DDE979AA79A9
:10410000090211430846211DFCF78EF921460831AA
:104110005848FCF789F921460220FCF785F9EEE0C2
:10412000211D55480088FCF77FF9201DFCF771F927
:10413000E979AA7909021143884207DDE979AA7968
:10414000090211430846211DFCF76EF9214608318A
:104150004A48FCF769F921460220FCF765F9CEE0F0
:10416000211D47480088FCF75FF9201DFCF751F935
:10417000E979AA7909021143884207DDE979AA7928
:10418000090211430846211DFCF74EF9214608316A
:104190003C48FCF749F921460220FCF745F9AEE01E
:1041A000211D39480088FCF73FF9201DFCF731F943
:1041B000E979AA7909021143884207DDE979AA79E8
:1041C000090211430846211DFCF72EF9214608314A
:1041D0002E48FCF729F921460220FCF725F98EE04C
:1041E0005553425F5374644465765F5265713B205A
:1041F000203333332070636D642D3E6252657175D8
:104200006573743D25640A0004010020D46200082F
:10421000C2620008F6620008D6620008A0630008C7
:104220005E6300082C640008A2630008466400086E
:104230002E6400086C64000848640008926400085A
:104240006E6400085553425F5374644465765F5250
:1042500065713B20203333332070636D642D3E55F0
:1042600053427756616C75653D25640A0000000075
:10427000FC620008F86200080A630008FE62000899
:10428000266300080C6300085C63000846630008AE
:10429000211DE1480088FCF7C7F8E879A9790002F8
:1042A00008430246DDA10020FEF722FB201DFCF79B
:1042B000B0F8024600E01FE0E3A100900020FEF706
:1042C00017FB201DFCF7A5F8E979AA79090211432B
:1042D000884207DDE979AA79090211430846211DC0
:1042E000FCF7A2F821460831E248FCF79DF8214688
:1042F0000220FCF799F802E00120089000BF00BFFF
:1043000002E00120089000BF00BF2CE3E878A97804
:1043100000020843C0B20590D7480068002806D1C3
:10432000D6A1059AFEF7E4FA0120089037E0E048AC
:104330000088401EDF49095C0598814207DADEA14A
:104340000020059AFEF7D4FA0120089027E005988E
:10435000002806D1E5A1FEF7CBFA0120C649086086
:104360001DE0ECA10020059AFEF7C2FAF648F749D5
:104370000860002703E00020F549C8557F1C072F7F
:10438000F9DBFCF74BFAF3A10020FEF7B1FA0220AB
:10439000B94908600020F949887301200790F8A105
:1043A0000020FEF7A5FA0120F9490860DBE2B248D7
:1043B0000068012820D96879297907020F43E3486A
:1043C00000680490F9B204980079814202DB012070
:1043D000089013E0E878A97800020843DC49C85542
:1043E000FCF71CFA002801D1012008900020E349C5
:1043F00088730120079001E001200890B3E29E48F5
:104400000068012813D1E878A97800020843002841
:104410000DD1211D0120FCF707F821460831A81C09
:10442000FCF702F821460220FBF7FEFF17E0924856
:104430000068012811D9C54800680490211D012099
:10444000FBF7F2FF214608310498401DFBF7ECFF13
:1044500021460220FBF7E8FF01E00120089082E2FC
:104460008548006801281FD96879297907020F4318
:10447000B64800680490F9B204980079814202DBE2
:104480000120089012E0211D0120FBF7CDFFB900AB
:10449000C04A5158881C21460831FBF7C5FF214608
:1044A0000220FBF7C1FF01E0012008905BE22878C1
:1044B000002804D0012818D0022858D116E0E87846
:1044C000A9780002084301280AD1B348006840785F
:1044D00020210843B049096848700120079002E094
:1044E0000120089000BF00BF44E000BFA87800286A
:1044F00038D1A24903988873287980210840002880
:1045000016D0039800280AD09C48467C1020064309
:104510009A484674407CA149087000BF1CE0974847
:10452000467C20203043954948740846467C13E079
:104530000398002808D09148067D202030438F49F9
:1045400008750846067D07E08C48467C20203043ED
:104550008A4948740846467C012007900020874914
:10456000887302E00120089000BF00BF02E0012034
:10457000089000BF00BFF6E12878002804D0012889
:1045800018D0022844D116E0E878A9780002084340
:1045900001280AD1804800684078202188437E495C
:1045A000096848700120079002E00120089000BFD0
:1045B00000BF21E100BFA87800282AD16F490398E5
:1045C0008873287980210840002823D00398002888
:1045D00014D06A48467C4021304688436749487475
:1045E0000846467C467C102130468843634948741F
:1045F0000846407C6949087000BFEFE05F48467C90
:104600002021304688435D4948740846467CE5E0F1
:10461000EFE0E9E0C4E0A3E1446300085553425FE2
:104620005374644465765F5265713B2020343434A2
:104630002070636D642D3E555342774C656E6774F0
:10464000683D25640A0000005553425F537464447A
:1046500065765F5265713B20203434342070636D81
:10466000642D3E6E42797465734C6566743D2564B5
:104670000A0000002863000804010020676E4465FA
:10468000765374617465203D20444556535441541B
:10469000455F414444524553533B09203737372047
:1046A0006279436F6E6669673D25640A0000000009
:1046B000D4620008C2620008676E44657653746174
:1046C0007465203D2044455653544154455F414450
:1046D00044524553533B0920363636206279436FA6
:1046E0006E6669673D25640A00000000676E4465D8
:1046F000765374617465203D2044455653544154AB
:10470000455F414444524553533B09203333330AF8
:1047100000000000676E4465765374617465203D47
:104720002044455653544154455F414444524553F7
:10473000533B0920353535206279436F6E666967D2
:104740003D25640A00000000D66200080801002030
:104750000C010020676E4465765374617465203DDA
:104760002044455653544154455F414444524553B7
:10477000533B20203434340A00000000005C004029
:10478000625F636F6E666967203D3D20310A0000FD
:10479000F4000020B80700201401002000010020D0
:1047A0000398002811D07A48067D8021304688433E
:1047B000774908750846067D067D202130468843E6
:1047C000734908750846067D08E07148467C20213B
:1047D000304688436E4948740846467C012007905D
:1047E00000206B49887302E00120089000BF00BFE1
:1047F00002E00120089000BF00BFB4E028788028C4
:1048000004D081283BD0822872D146E061480068FC
:10481000407820210840002806D069460879022106
:1048200008436946087105E0694608790221884312
:1048300069460871574800684078402108400028C0
:1048400006D069460879012108436946087105E0E8
:1048500068460079410849006846017100206946B0
:104860004871211D0220FBF7DFFD2146083101A818
:10487000FBF7DAFD21460220FBF7D6FD6EE0211D95
:104880000220FBF7D1FD2146083101A8FBF7CCFD42
:1048900021460220FBF7C8FD60E02879802108400E
:1048A000002826D00398002814D03949039888732B
:1048B0000846407C384908700846007810210840B6
:1048C000002803D001206946087130E000206946C5
:1048D00008712CE02E48407C04210840002803D0B9
:1048E00001206946087122E00020694608711EE037
:1048F00031E0039800280DD02548007D2021084094
:10490000002803D001206946087110E000206946A4
:1049100008710CE01E48407C04210840002803D0A8
:1049200001206946087102E00020694608710020F4
:1049300069464871211D0220FBF776FD21460831AA
:1049400001A8FBF771FD21460220FBF76DFD002059
:104950000F49887302E00120089000BF00BF02E009
:104960000120089000BF00BF0898002802D06020F6
:10497000069007E00798002802D04820069001E042
:104980004020069002490698487409B0F0BD000026
:10499000005C0040140100200001002010B5124C02
:1049A00003202061606111A0A0611349E161012130
:1049B000890221620021A1626162E1620BA020668E
:1049C0000E4961661021A16600212167E1666167D9
:1049D0000BA1E01DFBF796FC0AA12046FBF792FC19
:1049E0002020A07110BD0000340800205465726DB5
:1049F000696E616C00000000DC080020DC0C002007
:104A000052545400534547474552000010B50146E3
:104A10000A69CB689A4204D88C68641EE41AA0180C
:104A200001E0D41A601E10BDFFB585B006460F46E2
:104A30000F9D0E9C002F01DA784200E0384603906B
:104A40000120049007E007990398FBF7FFFC03900F
:104A50000498401C0490079903988842F3DA04995B
:104A60000898884201D908980490002C06D0002F9D
:104A700003DB04202840042800D1641E02202840C3
:104A8000002802D00898002815D0E807C00F002899
:104A900011D1002C0FD008E0641E2021304600F018
:104AA000D9F8F068002800DA04E0002C02D004985D
:104AB000A042F1D300BFF06800283ADB002F05DAEE
:104AC0007F422D21304600F0C5F807E00420284041
:104AD000042803D12B21304600F0BCF8F0680028F0
:104AE00027DB02202840022818D1E807C00F002841
:104AF00014D10898002811D1002C0FD008E0641EB2
:104B00003021304600F0A6F8F068002800DA04E012
:104B1000002C02D00498A042F1D300BFF068002816
:104B200007DB0195009439463046089B079A00F050
:104B300003F809B0F0BD0000FFB585B00646174682
:104B40001D460E9C0698029001200390019007E0FC
:104B500039460298FBF770FC02900198401C0190C6
:104B60000298B842F4D20198854200D901950F9875
:104B7000C007C00F00281DD1002C1BD002210F98A8
:104B80000840022804D1002D02D13020009001E01D
:104B90002020009008E0641E3046009900F05AF88A
:104BA000F068002800DA04E0002C02D00198A0424E
:104BB000F1D300BFF068002848DB0FE0012D01D9D8
:104BC0006D1E08E003990698FBF736FC04900498E4
:104BD000B84200D203E0039878430390EEE700BFA9
:104BE00000BF03990698FBF727FC049003990498EB
:104BF00048430699081A0690154A0498115C3046F5
:104C000000F028F8F068002800DA07E03946039839
:104C1000FBF712FC039003980028E2D100BF0F9825
:104C2000C007C00F002811D0002C0FD008E0641E70
:104C30002021304600F00EF8F068002800DA04E089
:104C4000002C02D00198A042F1D300BF09B0F0BD02
:104C50009464000870B504460E46A568681C616837
:104C6000814206D320684655681CA060E068401C5D
:104C7000E0606168A06888420DD1A268216820695F
:104C8000FDF7D0FDA168884203D00020C043E0605A
:104C900001E00020A06070BDF7B582B00446174661
:104CA00000200190E56800BF206900900098A842AC
:104CB00003D90098401B461E04E0A1680098281AFA
:104CC000401C0E1AA068401BB04201D9304601E0DA
:104CD000A068401B0646BE4201D2304600E038467E
:104CE00006466168481932460399FBF731FB019883
:104CF00080190190039880190390BF1BAD19A0681B
:104D0000A84200D10025E560002FCDD1019805B063
:104D1000F0BDF7B582B004461546E668A068871B6B
:104D2000AF4208D9616888192A460399FBF710FB3E
:104D30007019E06010E0019761688819019A039981
:104D4000FBF706FBE81B0190039AD1196068019AF2
:104D5000FBF7FEFA0198E06005B0F0BD30B4744690
:104D6000641E2578641CAB4204D3635D5B00E318CA
:104D700030BC18471D46F8E7F0B5A1B004468021C5
:104D800001A8FBF744FB00270226204600F071F93A
:104D9000802201A920464E3000F0C7F807460025C2
:104DA0003CE001A8405DB7281ED008DCB038030005
:104DB000FFF7D4FF071816281719281B2800BF284B
:104DC0000BD004DCBA2811D0BE281BD104E0C128C6
:104DD00004D0C72816D102E000BF00BF00BF00BF4B
:104DE00000BF00BF00BF00BF00BF00BFA420005D28
:104DF000002806D101A8415DA22001550121A4206F
:104E0000015508E001A8415D3046721CD6B2224629
:104E10009A32115400BF00BF681CC5B2BD4201DA0E
:104E2000082EBEDBA420005D02280FD1A220015D68
:104E300020464E3000F068F8002807D12046A23006
:104E40000021017041700321A420015520464E30FD
:104E500000F09BFC21B0F0BD10B5144603220A708F
:104E6000A222125CB72A2FD008DCB03A1300FFF759
:104E700075FF071217491C2149264900BF2A32D065
:104E800004DCBA2A25D0BE2A3CD127E0C12A2FD083
:104E9000C72A37D131E0B5224A7000228A7031E04A
:104EA000B6224A7000228A702CE0CD224A7000227D
:104EB0008A7027E0E2224A7000228A7022E0E9220A
:104EC0004A7000228A701DE0EA224A7000228A702D
:104ED00018E030224A7000228A7013E070224A7073
:104EE00000228A700EE06F224A7000228A7009E068
:104EF00023224A7002228A7004E0AE224A70012204
:104F00008A7000BF00BF10BD10B502460807C00E72
:104F1000105AF0230B401C110123A3401840F0232A
:104F20000B401B111841C0B210BDF7B504460F4627
:104F300000230020002123E04D00655B002D1DD0E3
:104F4000002219E0012595404E00A65B3540002D5A
:104F500010D0029DA84200DBFEBD1D4615432B4626
:104F60001D072B0E1D460D432B460546461CF0B271
:104F70007B550023551CEAB2102AE3DB4D1CE9B235
:104F80001029D9DB00BFE7E7F3B587B0044600205E
:104F900003900290207806900020019020780590E0
:104FA00020460A30FBF735FA019000255CE0002628
:104FB00050E0A900089840580121B140084000285D
:104FC00043D00020049015E00498410020460E30A4
:104FD000091848780978000208430121B1400840C7
:104FE000002803D00398401CC0B203900498401CD2
:104FF000C0B20490617804988142E5DC002712E099
:10500000690020460E3009184878097800020843E4
:105010000121B9400840002803D00298401CC0B2CA
:105020000290781CC7B22078B842E9DC03980228C5
:1050300002DB0298022808DA06986843019A801871
:10504000815D20464E3000F0A7FB002003900290C7
:10505000701CC6B22078B04204DDA9000898405800
:105060000028A6D1681CC5B26078A8429FDC09B0B0
:10507000F0BD70B50446002519E02846E030C1B205
:1050800020464E30FFF740FF00280ED02846E03083
:10509000C1B220464E3000F08DFB9A20005D012108
:1050A000A9400843C1B29A200155681CC5B2082D19
:1050B000E3DB70BD70B50446AF2120464E30FFF7EC
:1050C00023FF00284ED0AF2120464E3000F072FB67
:1050D000292120464E30FFF717FF002814D0294819
:1050E0000078002810D10120264908708E20005D2C
:1050F000012148408E2108558E20025D012149037F
:105100002148FCF793F80DE0292120464E30FFF7A7
:10511000FBFE002806D11B480078002802D00020A2
:1051200018490870292120464E3000F043FB8E209C
:10513000005D00280AD020469030FBF76AF905464A
:105140009420025D2946204600F07DFD20469530E2
:10515000FBF75FF905469920025D2946204600F0DD
:1051600072FD0EE08E20005D00280AD120469030AE
:10517000FBF74FF905469420025D2946204600F0D2
:1051800062FD70BDF800002000080048F0B50F4631
:1051900016461C46059D01211A48FCF761F90021BD
:1051A0001848FCF7AFF939461648FCF7BFF9314605
:1051B0001448FCF7B9F901211248FCF751F9012113
:1051C00089021048FCF79EF939460E48FCF7AEF903
:1051D0000BE06D1E002D03D100210A48FCF70AF9EF
:1051E0000848FCF79DF92070641C002DF1D10121C5
:1051F0000448FCF743F901210248FCF7FBF80020C2
:10520000F0BD000000540040F0B50E4615461C46A7
:10521000059F01210F48FCF723F900210D48FCF7F9
:1052200071F931460B48FCF781F929460948FCF72A
:105230007BF904E021780748FCF776F9641C3846CE
:105240007F1E0028F6D101210248FCF717F9002043
:10525000F0BD000000540040FEB507460D463C4638
:105260000026D723A54AA6A10020FDF741FB002C6C
:1052700001D1601EFEBDDB23A04AA8A1002000963C
:105280000195FDF735FB34E1DF239C4AA3A1002003
:1052900000960195FDF72CFBAD480068E023974A86
:1052A000ACA100900020FDF723FBA9480068030093
:1052B000FFF754FD0E081C39456B73959DA5FD1B2A
:1052C000FBFAF91B0921AE48FBF79FF80020AD4916
:1052D0000860AD4908802078FF2805D101209C494D
:1052E0000860FF20A6490870641C01E120785A2854
:1052F00007D10220964908605A20A1494870641CD1
:1053000010E02078552807D10220914908605520E7
:105310009B494870641C05E02078FF2802D10020DA
:105320008B490860E4E02078000297490880032058
:1053300087490860207892498870641CD8E02078FA
:1053400091490988401890490880084600888F498B
:10535000884203DC8C48008809280ADA8A480088D9
:1053600001214902884204D08748008849008842C8
:1053700007D104207649086020788149C870641CF0
:1053800002E0002072490860B2E020787C49087190
:10539000641C05206E490860AAE0207878490871ED
:1053A00008468078202812D10846807800280ED13F
:1053B00008460079EE280AD12078102807D100206D
:1053C0006349086006216E48FBF7F0FC05E0062003
:1053D0005F49086020786A494871641C88E00720AA
:1053E0005B490860207866498871641C80E0082069
:1053F0005749086020786249C871641C78E02078B9
:105400005F4908720846807804281BD108468078D6
:10541000002817D108460079022813D108464079A0
:1054200004280FD108468079EE280BD10846C079B0
:10543000082807D100204649086008215048FBF79A
:10544000B5FC2EE00920424908604F48008800B2B0
:105450004F49096808814E480068C068002804D098
:105460004B490968C868FAF7FAFE494909680820F3
:10547000085EFAF7C3FE46490968C860444A1268E4
:105480000821515E424A1268D068FAF7BEFF4049CF
:1054900009680922C8683A49FAF75AFF09203949C8
:1054A0000860641C24E022E020E01EE0FFE7207892
:1054B00037490968C968334A126888543148006816
:1054C000401C30490860641C084600682E49098861
:1054D000884209D100201E4908602D490968C86822
:1054E00029490988FBF762FC02E000BF00BF00BF4A
:1054F00000BFAE4200D2C7E60020BBE698620008BB
:105500002323232066756E6374696F6E3D257320B7
:105510006C696E653D25640A00000000232323208A
:1055200066756E6374696F6E3D2573206C696E6578
:105530003D256420706275666665725F6C656E25D8
:10554000642C6275666665724C656E0A0000000028
:10555000E40000202323232066756E6374696F6E58
:105560003D2573206C696E653D256420675F506141
:1055700072736553746174655F743D25640A00003D
:1055800094020020E8000020F0000020FFFF00004F
:1055900004000020F8B5054600241AE0A81CFAF71C
:1055A00038FF0A2161434018071D3846FAF731FFDA
:1055B00086B2A81CFAF72DFF0A2161434718384626
:1055C000FAF727FF07223146009000F023FC601C09
:1055D000C4B22878A042E1DC00241AE0A81DFAF742
:1055E00018FF0A2161434018071D3846FAF711FFDA
:1055F00086B2A81DFAF70DFF0A2161434718384605
:10560000FAF707FF07223146009000F003FC601C08
:10561000C4B26878A042E1DCF8BDF8B505460024C4
:105620001AE0A81DFAF7F5FE0A2161434018071D8C
:105630003846FAF7EEFE86B2A81DFAF7EAFE0A210E
:10564000614347183846FAF7E4FE072231460090D6
:1056500000F0E0FB601CC4B26878A042E1DC0024EA
:1056600033E0A81CFAF7D5FE0A2161434018071D54
:105670003846FAF7CEFE86B2A81CFAF7CAFE0A210F
:10568000614347183846FAF7C4FE042231460090B9
:1056900000F0C0FBA81CFAF7BCFE0A2161434018C9
:1056A000071D3846FAF7B5FE86B2A81CFAF7B1FE18
:1056B0000A21614347183846FAF7ABFE012231460A
:1056C0000090FBF7B3FD601CC4B22878A042C8DC90
:1056D000F8BDF8B5054600241AE0A81CFAF799FEB3
:1056E0000A2161434018071D3846FAF792FE86B238
:1056F000A81CFAF78EFE0A21614347183846FAF7CC
:1057000088FE07223146009000F084FB601CC4B282
:105710002878A042E1DC002433E0A81DFAF779FEE6
:105720000A2161434018071D3846FAF772FE86B217
:10573000A81DFAF76EFE0A21614347183846FAF7AA
:1057400068FE04223146009000F064FBA81DFAF7C1
:1057500060FE0A2161434018071D3846FAF759FEDA
:1057600086B2A81DFAF755FE0A216143471838464C
:10577000FAF74FFE012231460090FBF757FD601CFF
:10578000C4B26878A042C8DCF8BD10B50446202138
:105790002046FAF73AFE10BD10B50A07D20E825A1B
:1057A000F0230B401C110123A3401A430B07DB0E0F
:1057B000C25210BD10B50A07D20E825AF0230B4018
:1057C0001C110123A3409A430B07DB0EC25210BDEC
:1057D0008EB000BFFDF746FE4548FBF725FE284684
:1057E000FBF7AEFE29464248FBF756FE0121404832
:1057F000FBF70EFEFEF73EFA01214804FCF79CFF82
:1058000001218804FCF798FF0121C804FCF794FFEC
:1058100001218805FCF790FF36A10020FDF768F80C
:1058200037480068FCF7ECFE36480068FCF7E8FEF5
:1058300003E03548FDF7AEFD00E0FAE700BF33A115
:105840000020FDF755F8364936480068FCF704FAA1
:1058500001A8FCF7F5F833480068FCF7A7FB45E022
:1058600030480068FCF7A2FBFBF77EFA00BF062178
:105870002D48FAF7CCFD2B480068FCF707FB2148C0
:105880000068FCF7C4FE0446002C10D0274B284AC1
:1058900028A10020FDF72CF80821615EE068FFF7E1
:1058A000DBFCE068FAF7DBFC2046FAF7D8FC7D2049
:1058B000C000FDF76FFD26480078002800D115E0F4
:1058C000244800F060F9234800F0B0F8214800F0C7
:1058D00043F82048FFF7EEFB1E48FFF74DFA1D483E
:1058E00000F068FA1B4800F03FFA00BFB8E700007C
:1058F000005400406732672073746172740A0000BC
:1059000004000020080000208813000078787878D0
:1059100020625F636F6E666967203D3D20310A003B
:10592000290E0008240100200C0000200F030000B5
:10593000AE6200082323232066756E6374696F6E60
:105940003D2573206C696E653D25640A00000000EA
:105950000000002036000020F0B5A3B004468021EE
:1059600002A8FAF754FD27780020019020782290B1
:1059700020460A30FAF74DFD019020464E30FFF7E1
:1059800004FF00253DE000262CE0690020460E3093
:10599000091848780978000208430121B1400840FD
:1059A00000281DD038466843019A8018815D204642
:1059B0006E30FFF7A9FA002809D038466843019AEB
:1059C0008018815D20464E30FFF7E6FE08E0A80013
:1059D00002A908580121B1400843A90002AA505069
:1059E000701CC6B22078B04209DD690020460E3036
:1059F000091848780978000208430028C5D1681CB6
:105A0000C5B26078A842BEDC02A92046FFF7BCFA06
:105A1000402120460E30FAF7F8FC202221464E3174
:105A200020466E30FAF794FC23B0F0BDFEB5044674
:105A30002046FFF7AFFD0025A0E000268EE06900BC
:105A400020460E30091848780978000208430121E1
:105A5000B140084000287FD0A01DFAF7DAFC0A21E7
:105A600069434018071D3846FAF7D3FC80B201900D
:105A7000A01DFAF7CEFC0A21694347183846FAF709
:105A8000C8FC05220090019900F0C4F9A01DFAF7A6
:105A9000C0FC0A2169434018071D3846FAF7B9FCD3
:105AA00080B20190A01DFAF7B4FC0A21694347189F
:105AB0003846FAF7AEFC012200900199FBF7B6FBDD
:105AC00000BF00BFA01CFAF7A4FC0A2171434018D4
:105AD000071D3846FAF79DFC80B20190A01CFAF72A
