:020000040800F2
:10000000100F00209D010008C3010008C501000871
:1000100000000000000000000000000000000000E0
:10002000000000000000000000000000C701000800
:100030000000000000000000C901000811100008C5
:10004000CD010008CD010008CD010008CD01000858
:10005000CD010008CD010008CD010008CD01000848
:1000600000000000CD010008CD010008CD0100080E
:10007000CD010008CD010008CD01000800000000FE
:10008000CD010008CD01000800000000CD010008EE
:10009000CD010008CD010008CD010008CD01000808
:1000A000CD010008CD010008CD010008CD010008F8
:1000B000CD0100080000000000000000F11500085C
:1000C00000F002F800F03EF80CA030C80838241800
:1000D0002D18A246671EAB4654465D46AC4201D180
:1000E00000F030F87E460F3E0FCCB6460126334274
:1000F00000D0FB1AA246AB46334318477C350000BC
:100100009C350000103A02D378C878C1FAD852075B
:1001100001D330C830C101D504680C6070470000BD
:100120000023002400250026103A01D378C1FBD813
:10013000520700D330C100D50B6070471FB51FBDFB
:1001400010B510BD00F0AEF91146FFF7F7FF02F051
:1001500095FD00F0C6F903B4FFF7F2FF03BC00F011
:10016000CDF9000070B505460C46164602E00FCCEE
:100170000FC5103E102EFAD2082E02D303CC03C5B1
:10018000083E042E07D301CC01C5361F03E02178B9
:100190002970641C6D1C761EF9D270BD0F4880F367
:1001A00008880F480168090E0E4A914205D10E4891
:1001B0000E4901600E480F4901600F4880470F4803
:1001C0000047FEE7FEE7FEE7FEE7FEE7FEE700008A
:1001D0000B480C490C4A0D4B70470000100F0020D3
:1001E000040000001F000000181002400100000081
:1001F000000001400000000021100008C1000008BC
:1002000010070020100F0020100B0020100B002002
:10021000034670B502460B439B070FD10E4CE60117
:1002200000E008C208C91D1B9D433542F9D0D9B270
:100230001170521C00290DD01B0AF8E70B78491CDD
:100240001370521C002B05D00B78491C1370521CE4
:10025000002BF3D170BD000001010101F8B5042AA3
:100260002CD3830712D00B78491C0370401C521EFC
:1002700083070BD00B78491C0370401C521E830768
:1002800004D00B78491C0370401C521E8B079B0F37
:1002900005D0C91ADF002023DE1B08C90AE0FFF7DA
:1002A00061FFF8BD1D4608C9FD401C46B4402C4303
:1002B00010C0121F042AF5D2F308C91A521EF0D436
:1002C0000B78491C0370401C521EEAD40B78491C61
:1002D0000370401C012AE4D409780170F8BD01E0E4
:1002E00004C0091F0429FBD28B0701D50280801CA2
:1002F000C90700D00270704700290BD0C30702D095
:100300000270401C491E022904D3830702D50280D3
:10031000801C891EE3E70022EEE70022DFE78178F8
:10032000C278037809041206114342781002184378
:1003300008437047020A08704A70020C8A70020E65
:10034000CA707047002203098B422CD3030A8B42E8
:1003500011D300239C464EE003460B433CD40022BD
:1003600043088B4231D303098B421CD3030A8B42CF
:1003700001D394463FE0C3098B4201D3CB01C01A9D
:10038000524183098B4201D38B01C01A5241430968
:100390008B4201D34B01C01A524103098B4201D356
:1003A0000B01C01A5241C3088B4201D3CB00C01AC3
:1003B000524183088B4201D38B00C01A524143083B
:1003C0008B4201D34B00C01A5241411A00D2014660
:1003D0005241104670475DE0CA0F00D049420310F9
:1003E00000D34042534000229C4603098B422DD348
:1003F000030A8B4212D3FC22890112BA030A8B42F0
:100400000CD3890192118B4208D3890192118B423E
:1004100004D389013AD0921100E08909C3098B42C3
:1004200001D3CB01C01A524183098B4201D38B0106
:10043000C01A524143098B4201D34B01C01A5241A9
:1004400003098B4201D30B01C01A5241C3088B42EE
:1004500001D3CB00C01A524183088B4201D38B00D9
:10046000C01A5241D9D243088B4201D34B00C01A63
:100470005241411A00D20146634652415B10104678
:1004800001D34042002B00D54942704763465B10C0
:1004900000D3404201B50020C046C04602BD7047AF
:1004A00070477047754600F025F8AE46050069466E
:1004B0005346C008C000854618B020B5FFF788FE37
:1004C00060BC00274908B6460026C0C5C0C5C0C5E7
:1004D000C0C5C0C5C0C5C0C5C0C5403D49008D46EA
:1004E000704710B50446C046C0462046FFF733FEAD
:1004F00010BD000000487047AC06002001491820DC
:10050000ABBEFEE72600020070470000002806D0C0
:100510000649096840221143044A116005E0034975
:10052000096840229143014A11607047006C004005
:10053000002806D00649096820221143044A1160A8
:1005400005E00349096820229143014A1160704780
:10055000006C0040FFB5444800680246093214466A
:1005600041480068039041480090002576E00098DB
:100570000078002816D0002002900EE02679F000C6
:10058000801B123012181446E078002801D104B004
:10059000F0BD0298401CC0B2029000980778029803
:1005A0008742EBDCA800324F3C5026791232002003
:1005B00001904BE0134698780007000F2D4FB87359
:1005C00058791F7900023843C01D4005010E987804
:1005D0008027384000281BD026480174817CD878B9
:1005E0008007800F012804D0102805D0112809D1D8
:1005F00003E04020014305E000BF40200F46874351
:10060000394600BF00BF202001431A48817418E01A
:100610001848C174417DD8788007800F012804D024
:10062000102805D0112809D103E04020014305E03E
:1006300000BF40200F468743394600BF00BF0D482A
:100640004175D21D0198401CC0B201900198B04282
:10065000B0DB681CC5B20098401C0090039800797C
:10066000A84284DC012092E7F0000020F400002082
:1006700078010020005C00407FB51E46012E07D1A6
:100680006846007A134988734825084645741FE078
:100690000198401C00281BD00198402804DA019CD6
:1006A0000020C043019003E04024019840380190AD
:1006B0006946087A2146009A00F05CF80098001913
:1006C00000906946087A03498873012508464574F5
:1006D0007FBD0000005C00407FB5089E012E07D161
:1006E0006846007B1849887390250846057529E0FF
:1006F0006846007B144988730846057D1EE0124851
:10070000C47D2402807D0443029800190199884227
:1007100003DD00200C4908757FBD6946087B214632
:10072000009A00F013F8029800190290009800193E
:1007300000900020044908750846057DE807C00FB1
:100740000028DCD100BFE7E7005C0040F0B50346BD
:10075000144600290BD09E00054FF5190846224685
:1007600003E02E781670521C401E0028F9D1F0BD0F
:10077000205C0040F0B50346144600290BD09E00D3
:10078000054FF5190846224603E016782E70521CD4
:10079000401E0028F9D1F0BD205C0040F0B50A46AB
:1007A00000210023002400BF3DE001258D402B46A1
:1007B00015681D402C469C4234D11579012D02D07C
:1007C0001579022D16D185684F000326BE40B5432A
:1007D000856055794E00B5408668354385608588CB
:1007E00001268E40B5438580858896798E40B6B2C5
:1007F0003543858005684F000326BE40B54305603C
:1008000015794E00B540066835430560C5684F0050
:100810000326BE40B543C560D5794E00B540C668D5
:100820003543C560491C1029BFD3F0BDF0B5002386
:1008300000244D07EE0E1546B5402B46CD10AE00F8
:1008400005462035AD594E07F70E0F26BE40B5437D
:10085000CE10B60007462037BD51CD10AE003D4644
:10086000AD591D432C46CD10AD003E467451F0BD30
:1008700002460020138A0B40002B01D0012000E02B
:1008800000207047002A01D0816100E00185704797
:1008900070B504460D460B490220FFF74BFD211DA4
:1008A0000120FFF747FD2146083106484338FFF78E
:1008B00041FD21460220FFF73DFD402002494874DA
:1008C00070BD000073010020005C004070B504465C
:1008D0000D460B490320FFF72DFD211D0120FFF7D9
:1008E00029FD2146083106484238FFF723FD2146FD
:1008F0000220FFF71FFD40200249487470BD000030
:1009000073010020005C004070B504460D46154898
:100910000068012824D9E878A97800020843001269
:10092000012804D0022804D0032818D100E000BF19
:1009300000BF0D490120FFF7FDFC211D0120FFF73D
:10094000F9FC2146083108485338FFF7F3FC2146EB
:100950000220FFF7EFFC40200449487400BF00BFAD
:1009600070BD0000EC00002073010020005C00401E
:1009700070B504460D460A490A20FFF7DBFC214604
:100980000020FFF7D7FCE878A9780002084300129E
:1009900003495339087440200249487470BD00006F
:1009A00073010020005C004070B504460D46094903
:1009B0000B20FFF7BFFC21460020FFF7BBFCE878C7
:1009C000A97800020843034953394874402002497A
:1009D000487470BD73010020005C004070B504468F
:1009E0000D46E878A978000208430012012804D0D7
:1009F000022803D003281CD11AE01AE00E4909206E
:100A0000FFF798FCE979AA79090211430846211DEC
:100A1000FFF790FC21460120FFF78CFC21460831AE
:100A200005485338FFF786FC40200449487400E02D
:100A300000BF00BF70BD000073010020005C0040DB
:100A400000218278002A27D0184A03231B02D218DB
:100A500003789B109B00D15802789207D30EFF2297
:100A60009A400B469343194642789207120E037838
:100A70009B07DB0E9A4011430C4A03231B02D2183A
:100A800003789B109B00D1500278D306DB0E012225
:100A90009A40064B1A6007E00278D306DB0E01226B
:100AA0009A40024B80331A607047000000E100E07A
:100AB00010B5002819DA1A4A03071B0F083B9B08D8
:100AC0009B00D2588307DC0EFF23A3409A438B0779
:100AD0001B0E8407E40EA3401A43114B0407240F96
:100AE000083CA408A4001A5118E00E4A03231B0274
:100AF000D21883089B00D2588307DC0EFF23A34043
:100B00009A438B071B0E8407E40EA3401A43054B40
:100B1000032424021B198408A4001A5110BD0000EC
:100B20001CED00E000E100E0002905D0054A526913
:100B30000243044B5A6104E0024A52698243014B6A
:100B40005A61704700100240002905D0054AD26959
:100B50000243044BDA6104E0024AD2698243014B4A
:100B6000DA61704700100240002905D0054A9269F9
:100B70000243044B9A6104E0024A92698243014BAA
:100B80009A6170470010024010B502460021002310
:100B900000205111002902D10C4C23680BE00129DF
:100BA00002D10A4C236A06E0022902D1074C636A8B
:100BB00001E0064C636BD106C90E01248C401C4039
:100BC000002C01D0012000E0002010BD00100240E8
:100BD000002807D00749496B012212041143054A36
:100BE000516306E00349496B012212049143014A13
:100BF00051637047001002400549096B8022914300
:100C0000034A11631146096B0143116370470000E9
:100C100000100240F8B504460D46164600BF0E48C7
:100C20000078002801D101F0D7FA00BFEFF310805F
:100C30000746012080F3108800BF00BF32462946D6
:100C4000204600F00BF80090F8B280F3108800BF47
:100C500000BF0098F8BD0000F4010020F7B582B095
:100C60000746164603980190182078431B49401800
:100C7000009000984069002804D0012811D0022873
:100C800026D11EE0009801F0DFFA0546B54201D2F8
:100C9000002405E0344632460199009801F057FCE3
:100CA00018E0009801F0D0FA0546B54201D2284676
:100CB00000E03046044622460199009801F047FCC6
:100CC00008E032460199009801F004FC044601E076
:100CD000002400BF00BF204605B0F0BD0C0200207C
:100CE0000FB438B5044606A800906A462046059918
:100CF00000F008F8054600200090284638BC08BCE3
:100D000004B01847F7B59AB00D46144602A81590DE
:100D100040201690002017901A98199000201890E3
:100D200000BF2E786D1C002E00D1E4E0252E79D175
:100D300000270120149000BF2E78232E12D02B2ED6
:100D40000CD02D2E02D0302E10D103E0012007430D
:100D50006D1C0EE0022007436D1C0AE004200743CF
:100D60006D1C06E0082007436D1C02E00020149073
:100D700000BF00BF14980028DED1129000BF2E786B
:100D8000302E01DB392E00DD08E06D1C0A2112989F
:100D900048433146303940181290F0E700BF002038
:100DA00013902E782E2E11D16D1C00BF2E78302E70
:100DB00001DB392E00DD08E06D1C0A211398484341
:100DC0003146303940181390F0E700BF2E7800BF4D
:100DD0006C2E01D0682E02D16D1C2E7800E000E050
:100DE000F6E700BF702E63D008DC252E72D0582E97
:100DF00038D0632E09D0642E71D114E0732E40D008
:100E0000752E1FD0782E6AD12BE02168081D206036
:100E1000086814901498C0B2019015A8019901F0C7
:100E200037FB5DE05FE02168081D206008681490D2
:100E30001298019700900A2215A8139B149901F0AB
:100E400011FA4DE02168081D20600868149012987E
:100E5000019700900A2215A8139B149901F08AFAB1
:100E60003EE000BF2168081D2060086814901298B9
:100E700001970090102215A8139B149901F07AFA9B
:100E80002EE02168081D20600868019000BF0198CD
:100E900006780198401C0190002E00D106E03146F2
:100EA00015A801F0F5FA18980028F0DA00BF17E04D
:100EB0002168081D206008681490002008210B4656
:100EC00010220091019015A8149901F053FA07E03F
:100ED00000E004E0252115A801F0DAFA00E000BFE7
:100EE00000BF6D1C03E0314615A801F0D1FA189837
:100EF000002800DB15E700BF189800280BDD1798C5
:100F0000002804D002A9179A1A98FFF783FE1799B0
:100F100018984018189018981DB0F0BD0CB5002016
:100F2000019000902F480068012108432D49086076
:100F300000BF2C4800680221084000900198401C26
:100F400001900098002804D10521090301988842E6
:100F5000EFD12448006802210840002802D0012077
:100F6000009001E0002000900098012838D1112065
:100F70001D4908601B4840681A4948600846406897
:100F80004860084640687F21C90388431549486086
:100F900008464068C900084312494860084600688E
:100FA0000121090608430F49086000BF0D48006889
:100FB0000121490608400028F8D00A484068800806
:100FC00080000849486008464068022108430549F6
:100FD000486000BF034840680C2108400828F9D148
:100FE0000CBD00000010024000200240042806D181
:100FF0000649096904221143044A116105E00349C5
:10100000096904229143014A1161704700E000E040
:1010100002480068401C014908607047CC0000206D
:1010200010B51B48006801210843194908600846AB
:101030004068184908401649486008460068164943
:101040000840134908600846006801218904884364
:101050000F490860084640683F21090488430C494D
:1010600048600846C06A00090001C8620846006B73
:10107000FF2154318843064908630846406B400805
:101080004000486300208860FFF748FF10BD000063
:10109000001002400CB8FFF8FFFFF6FE10B50E4C32
:1010A000601E0E49884201D901200CE0601E0C49E7
:1010B00048610321081FFFF7FBFC002008498861F5
:1010C000072008610020002801D000BFFEE70420AF
:1010D000FFF78CFF10BD000080BB0000FFFFFF008A
:1010E00000E000E0002904D0028801231A430280B6
:1010F00003E00288014B1A4002807047FEFF0000A7
:1011000000B58BB001214804FFF70EFDFF20013030
:10111000019002216846017203214172002181720F
:101120000121C17201A90920C006FFF737FB022285
:1011300008210920C006FFF779FB224922480068F0
:10114000FFF700F9401E2149088008460088401E2C
:10115000810040181E4908800121C802FFF704FDE4
:101160000021684601844184184800880990684637
:10117000018508A8817208A9164800F089F8702135
:10118000684681810121C1810421018210480088C3
:10119000059002216846018300214183FF2101312E
:1011A00081830021C18303A90A4800F027F80121A7
:1011B0000848FFF797FF0121064800F00DF80BB033
:1011C00000BD0000A24400000C010020D00000205F
:1011D000D2000020002C0140002907D04422125ADE
:1011E0000123DB031A4344231A5205E04422125A16
:1011F00053045B0C442213527047000070B5002466
:1012000000220023058C1C4E35400584028C838807
:10121000048B194D6F3D2C40B51E2C400D882C437E
:10122000751E2A408D892A434D882A43134DA842B2
:1012300008D0134DA84205D0124DA84202D0124D3D
:10124000A84212D10C4DED1F2A40CD892A430A4DE8
:10125000ED1E2A408D882A43074DFF3D2B400B4D44
:101260002B400D8A2B434D8A2B43838004838D684A
:101270004563028470BD0000FEFF0000002C0140A9
:10128000004001400044014000480140FFFD0000D3
:1012900000220288154B984206D001239B079842F2
:1012A00002D0134B984203D1124B1A404B881A4379
:1012B000114B984203D0114B1A400B891A430280FC
:1012C0004B68C3620B880385084B984208D00C4BCF
:1012D000984205D00B4B984202D00B4B984201D15B
:1012E0008B7A03860123838270470000002C014023
:1012F000000400408FFF000000100040FFFC0000D1
:10130000004001400044014000480140FEB5044651
:101310000D46164600270E480068012816D9684673
:101320000472019600950023684607C8FFF7A4F9E8
:1013300004E07F1C781C002800D1FEBD0548407CDD
:10134000C007C00F0028F4D10120F6E70020F4E721
:10135000EC000020005C004070B50546012D0AD16C
:1013600038490020FEF7E6FFFF20364908740020C8
:101370003549086070BD0020344988730846447CB4
:10138000E007C00F00281CD12E48007CFF2818D091
:101390002C48007C08702E480068002807D1294896
:1013A000007C002803D001202949086009E0284872
:1013B0000068012805D12348007C002801D1244978
:1013C0000860FF201F49087404202040002808D02E
:1013D0002021204688431D4948741A490020FEF701
:1013E000A9FF10202040002807D080202043174963
:1013F000487414490020FEF79DFF1248FEF78FFF46
:1014000000280CD1E007C00F002808D0114A08219D
:101410000020FFF79BF90F490A4800F01DF8094822
:10142000FEF77DFF022803D1064800F06FF807E0C1
:101430000448FEF774FF012802D1024800F02CF89E
:1014400000BF97E7E3010020F0000020005C0040AF
:10145000EC0000200401002070B505460C46207801
:1014600060210840002804D0202807D040280AD155
:101470000AE02146284600F0E3F909E02146284623
:1014800000F080F804E000BF60200249487400BF0B
:1014900000BF70BD005C0040F8B50446002000901D
:1014A0000025194988730846467C27E0214600201C
:1014B000FEF740FF6A4601210020FFF747F9684622
:1014C0000078022108400546002D02D0022D0FD1E0
:1014D00006E0012251020920C006FFF7D3F907E018
:1014E0000022012149020920C006FFF7CBF900BF05
:1014F00000BF4020044948740846467CF007C00FEE
:101500000028D3D1F8BD0000005C0040F8B50446C7
:10151000201DFEF704FF402808DC201DFEF7FFFE1B
:101520000546211D0020FEF705FF08E04025201D8F
:10153000FEF7F5FE471B211D3846FEF7FBFE204651
:101540000830FEF7ECFE07463A4629460020FFF732
:1015500011F920460830FEF7E2FE4719214608310E
:101560003846FEF7E7FE402D05DA0A262146002020
:10157000FEF7E0FE00E0022601484674F8BD0000D8
:10158000005C004070B505460C466078030001F031
:1015900003F80C25070C112525252525161B2025CC
:1015A00021462846FFF7B0F970BD21462846FFF7CF
:1015B0006FF9F9E721462846FFF788F9F4E7214655
:1015C0002846FFF70BFAEFE721462846FFF7D0F948
:1015D000EAE721462846FFF7E7F9E5E700BF00BF45
:1015E00060200249487400BFDEE70000005C004054
:1015F00070B50025002400261B488578847906797B
:1016000002202040002802D00220184908708120C2
:10161000C000204000280CD013488079082188435E
:101620001149887112480078102188431030104900
:10163000087010482040002801D000F0A1F8FF20D9
:1016400002302840002802D00020FFF785FEE00786
:10165000C00F002806D008480068012802D90120E0
:101660000249087070BD0000005C0040E9000020E5
:101670000001002004040000EC00002030B50A4600
:10168000164900238C150440002C05D0C91D8D156A
:101690000446AC43234616E0012464020440002CB7
:1016A00006D00E4909314D150446AC4323460AE0E5
:1016B0000124A4020440002C05D008490B310D156B
:1016C0000446AC432346002A04D00C78DDB22C43F8
:1016D0000C7002E00C789C430C7030BD005C004044
:1016E00008B57120FFF750FA012808D00120FFF754
:1016F0006FFA00BF7120FFF747FA0128FAD10020E6
:10170000FFF77AFA0121C805FFF71EFA01211448F4
:10171000FFF7B4FF01211248401EFFF7AFFF012180
:101720008120C000FFF7AAFF01210D48801CFFF7B0
:10173000A5FF012000F016F81F2168460170002166
:10174000417001218170FFF77BF90121C806FFF785
:10175000FBF90120FEF7ECFE0120FEF7D7FE08BDE5
:101760000204000001460020044AD07B800880006B
:1017700002460A431046014AD0737047005C00409D
:1017800000B589B000202C4908600120FFF7E4FD76
:10179000012108A80170881E0790012306A807C828
:1017A000FEF76AFF022108A80170C81E07900123F6
:1017B00006A807C8FEF760FF032108A80170081FEC
:1017C0000790012306A807C8FEF756FF042108A8C2
:1017D0000170481F0790012306A807C8FEF74CFFB9
:1017E000062108A80170C81F0790012306A807C892
:1017F000FEF742FF05216846017540200390002056
:1018000004900120009002A80FC8FEF765FF072191
:10181000684601754020039000200490012000904C
:1018200002A80FC8FEF758FF04484078012108437A
:101830000249487009B000BDEC000020005C004087
:10184000F0B589B004460D4600200890079028792D
:10185000029002980007000F039000200190687822
:101860000C2870D243007B449B885B009F44D303C9
:1018700059036B00F4026B000B0020006B009C020C
:10188000F901CD0274022878002802D001200890C6
:101890000DE0FA480068012807D8E878A978000226
:1018A000084320740120079001E00120089052E2D3
:1018B000287880210840002802D101200890CFE13B
:1018C000E878A97800020843FF21090208400322B2
:1018D0005202811A904237D00CDCFF3801380028C0
:1018E00011D0FF380138002831D0FF3801380028E6
:1018F0007ED112E1FF390139002959D01B200002A5
:10190000081AF5D157E0211DDD480088FEF712FDC9
:10191000201DFEF704FDE979AA79090211438842E6
:1019200007DDE979AA79090211430846211DFEF76E
:1019300001FD21460831D348FEF7FCFC2146022078
:10194000FEF7F8FC8BE1F1E30120089087E1E878ED
:10195000A97800020843C0B20590C9480088401E1B
:10196000C849095C0598814202DA012008901EE00E
:10197000211DC5480088FEF7DDFC21460831C3481B
:10198000FEF7D8FC21460220FEF7D4FC201DFEF70E
:10199000C6FCE979AA7909021143884207DDE97991
:1019A000AA79090211430846211DFEF7C3FC56E13E
:1019B0000120089053E16879297900020843030067
:1019C00000F0EAFD050426466686A600211DB04803
:1019D0000088FEF7AFFC201DFEF7A1FCE979AA798B
:1019E00009021143884209DDE979AA79090200E078
:1019F00032E111430846211DFEF79CFC21460831C7
:101A0000A448FEF797FC21460220FEF793FC82E0F3
:101A1000211DA1480088FEF78DFC201DFEF77FFCEC
:101A2000E979AA7909021143884207DDE979AA799F
:101A3000090211430846211DFEF77CFC21460831AE
:101A40009648FEF777FC21460220FEF773FC62E021
:101A5000211D93480088FEF76DFC201DFEF75FFCFA
:101A6000E979AA7909021143884207DDE979AA795F
:101A7000090211430846211DFEF75CFC214608318E
:101A80008848FEF757FC21460220FEF753FC42E04F
:101A9000211D85480088FEF74DFC201DFEF73FFC08
:101AA000E979AA7909021143884207DDE979AA791F
:101AB000090211430846211DFEF73CFC214608316E
:101AC0007A48FEF737FC21460220FEF733FC22E07D
:101AD000211D77480088FEF72DFC201DFEF71FFC16
:101AE000E979AA7909021143884207DDE979AA79DF
:101AF000090211430846211DFEF71CFC214608314E
:101B00006C48FEF717FC21460220FEF713FC02E0AA
:101B10000120089000BF00BFA1E0E878A97800028A
:101B20000843C0B2002806D0012824D002284CD097
:101B300003287DD169E0211D5F480088FEF7FAFB8C
:101B4000201DFEF7ECFBE979AA79090211438842CE
:101B500007DDE979AA79090211430846211DFEF73C
:101B6000E9FB214608315548FEF7E4FB21460220F7
:101B7000FEF7E0FB6EE0211D51480088FEF7DAFB1E
:101B8000201DFEF7CCFBE979AA79090211438842AE
:101B900007DDE979AA79090211430846211DFEF7FC
:101BA000C9FB214608314748FEF7C4FB2146022005
:101BB000FEF7C0FB20460830FEF7B1FB024642A10B
:101BC00000900020FFF78CF844E0211D4A4800886F
:101BD000FEF7B0FB201DFEF7A2FBE979AA79090206
:101BE0001143884207DDE979AA79090211430846C1
:101BF000211DFEF79FFB214608314048FEF79AFB66
:101C000021460220FEF796FB24E0211D3C48008877
:101C1000FEF790FB201DFEF782FBE979AA79090205
:101C20001143884209DDE979AA790902114300E0EC
:101C30000DE00846211DFEF77DFB214608313148A5
:101C4000FEF778FB21460220FEF774FB02E001203C
:101C5000089000BF00BF02E00120089000BF00BF55
:101C6000A3E2E878A97800020843C0B205900348CF
:101C70000068002848D1012008906CE0EC000020AA
:101C8000C2340008B0340008E4340008C43400084A
:101C90007235000830350008FE350008743500083C
:101CA00018360008003600083E3600081A360008CC
:101CB0006436000840360008EA340008E6340008BC
:101CC000F8340008EC3400084D616E756661637489
:101CD00075726572537472696E6744657363726975
:101CE00070746F7253697A652E2E2E2E2E3E3E3EF4
:101CF0003E3E3E25730A000016350008FA340008FF
:101D00002E35000818350008F7480088401EF749AE
:101D1000095C0598814202DA012008901BE00598D1
:101D2000002803D10120F249086014E0F148F2498B
:101D30000860002703E00020F049C8557F1C072FEA
:101D4000F9DBFEF707FC0220E94908600020EC49B6
:101D500088730120079028E2E5480068012820D90F
:101D60006879297907020F43E34800680490F9B2C3
:101D700004980079814202DB0120089013E0E878A2
:101D8000A97800020843DD49C855FEF7E3FB0028A7
:101D900001D1012008900020D949887301200790C3
:101DA00001E00120089000E2D1480068012813D129
:101DB000E878A9780002084300280DD1211D0120F0
:101DC000FEF7B8FA21460831A81CFEF7B3FA2146FF
:101DD0000220FEF7AFFA17E0C5480068012811D9C4
:101DE000C54800680490211D0120FEF7A3FA214692
:101DF00008310498401DFEF79DFA21460220FEF7A7
:101E000099FA01E001200890CFE1B9480068012863
:101E10001FD96879297907020F43B74800680490F1
:101E2000F9B204980079814202DB0120089012E0A7
:101E3000211D0120FEF77EFAB900B24A5158881CD4
:101E400021460831FEF776FA21460220FEF772FAA3
:101E500001E001200890A8E12878002804D001289A
:101E600018D0022858D116E0E878A9780002084373
:101E700001280AD1A4480068407820210843A249DB
:101E8000096848700120079002E00120089000BF17
:101E900000BF44E000BFA878002838D198490398D3
:101EA0008873287980210840002816D003980028DC
:101EB0000AD09348467C1020064391484674407CE3
:101EC0009249087000BF1CE08D48467C20203043BA
:101ED0008B4948740846467C13E00398002808D0D4
:101EE0008748067D20203043854908750846067DD1
:101EF00007E08348467C20203043814948740846E7
:101F0000467C0120079000207D49887302E0012073
:101F1000089000BF00BF02E00120089000BF00BF92
:101F200043E12878002804D0012818D002286DD178
:101F300016E0E878A9780002084301280AD172481F
:101F400000684078202188436F4909684870012063
:101F5000079002E00120089000BF00BF59E000BFD9
:101F6000A87800284DD16649039888732879802184
:101F70000840002821D00398002814D06048467CEF
:101F80004021304688435E4948740846467C467C7A
:101F90001021304688435A4948740846407C5B49C2
:101FA000087000BF27E05648467C20213046884311
:101FB000534948740846467C1DE00398002811D018
:101FC0004F48067D8021304688434D4908750846B4
:101FD000067D067D2021304688434949087508461C
:101FE000067D08E04648467C202130468843444927
:101FF00048740846467C01200790002040498873B9
:1020000002E00120089000BF00BF02E0012008901C
:1020100000BF00BFC9E02878802804D081283BD0C9
:10202000822860D146E03848006840782021084086
:10203000002806D0694608790221084369460871DC
:1020400005E06946087902218843694608712E48EF
:102050000068407840210840002806D06946087989
:10206000012108436946087105E068460079410886
:10207000490068460171002069464871211D02200F
:10208000FEF758F92146083101A8FEF753F9214619
:102090000220FEF74FF983E0211D0220FEF74AF9E6
:1020A0002146083101A8FEF745F921460220FEF736
:1020B00041F975E028798021084000283BD0039839
:1020C000002829D00E49039888730846407C0F49A0
:1020D00008700846007810210840002818D0012018
:1020E0006946087145E058E0C2340008B034000881
:1020F000EC000020C4340008F0000020F4000020B0
:10210000005C004078010020FC000020E800002076
:102110000020694608712CE02E48407C04210840CC
:10212000002804D001206946087122E03AE000202E
:10213000694608711DE0039800280DD02548007DF0
:1021400020210840002803D001206946087110E0D2
:102150000020694608710CE01E48407C04210840BC
:10216000002803D001206946087102E0002069467A
:102170000871002069464871211D0220FEF7DAF837
:102180002146083101A8FEF7D5F821460220FEF7C6
:10219000D1F800200F49887302E00120089000BFA9
:1021A00000BF02E00120089000BF00BF089800288F
:1021B00002D06020069007E00798002802D048204F
:1021C000069001E04020069002490698487409B044
:1021D000F0BD0000005C004010B5124C03202061EF
:1021E000606111A0A0611349E161012189022162AE
:1021F0000021A1626162E1620BA020660E49616666
:102200001021A16600212167E16661670BA1E01D35
:10221000FDF7FEFF0AA12046FDF7FAFF2020A0717E
:1022200010BD0000F40100205465726D696E616C90
:10223000000000009C0200209C0600205254540024
:10224000534547474552000010B501460A69CB681F
:102250009A4204D88C68641EE41AA01801E0D41ACB
:10226000601E10BDFFB585B006460F460F9D0E9C43
:10227000002F01DA784200E03846039001200490F4
:1022800007E007990398FEF767F803900498401C4D
:102290000490079903988842F3DA049908988842D1
:1022A00001D908980490002C06D0002F03DB0420ED
:1022B0002840042800D1641E02202840002802D0B3
:1022C0000898002815D0E807C00F002811D1002C6D
:1022D0000FD008E0641E2021304600F0D9F8F068E5
:1022E000002800DA04E0002C02D00498A042F1D3C8
:1022F00000BFF06800283ADB002F05DA7F422D216D
:10230000304600F0C5F807E004202840042803D137
:102310002B21304600F0BCF8F068002827DB0220B3
:102320002840022818D1E807C00F002814D10898C7
:10233000002811D1002C0FD008E0641E3021304657
:1023400000F0A6F8F068002800DA04E0002C02D0C3
:102350000498A042F1D300BFF068002807DB019584
:10236000009439463046089B079A00F003F809B0FC
:10237000F0BD0000FFB585B0064617461D460E9C11
:102380000698029001200390019007E039460298D8
:10239000FDF7D8FF02900198401C01900298B842C6
:1023A000F4D20198854200D901950F98C007C00F5B
:1023B00000281DD1002C1BD002210F9808400228B4
:1023C00004D1002D02D13020009001E020200090A7
:1023D00008E0641E3046009900F05AF8F0680028C2
:1023E00000DA04E0002C02D00198A042F1D300BF33
:1023F000F068002848DB0FE0012D01D96D1E08E0D0
:1024000003990698FDF79EFF04900498B84200D205
:1024100003E0039878430390EEE700BF00BF039901
:102420000698FDF78FFF0490039904984843069996
:10243000081A0690154A0498115C304600F028F8F6
:10244000F068002800DA07E039460398FDF77AFFC4
:10245000039003980028E2D100BF0F98C007C00F77
:10246000002811D0002C0FD008E0641E2021304637
:1024700000F00EF8F068002800DA04E0002C02D02A
:102480000198A042F1D300BF09B0F0BD6636000844
:1024900070B504460E46A568681C6168814206D383
:1024A00020684655681CA060E068401CE0606168D8
:1024B000A06888420DD1A26821682069FEF7AAFBB6
:1024C000A168884203D00020C043E06001E0002002
:1024D000A06070BDF7B582B0044617460020019099
:1024E000E56800BF206900900098A84203D90098D1
:1024F000401B461E04E0A1680098281A401C0E1AD2
:10250000A068401BB04201D9304601E0A068401BE2
:102510000646BE4201D2304600E0384606466168B3
:10252000481932460399FDF799FE019880190190E8
:10253000039880190390BF1BAD19A068A84200D171
:102540000025E560002FCDD1019805B0F0BDF7B5AD
:1025500082B004461546E668A068871BAF4208D9DA
:10256000616888192A460399FDF778FE7019E060C2
:1025700010E0019761688819019A0399FDF76EFED2
:10258000E81B0190039AD1196068019AFDF766FE75
:102590000198E06005B0F0BD30B47446641E257843
:1025A000641CAB4204D3635D5B00E31830BC184786
:1025B0001D46F8E7F0B5A1B00446802101A8FDF75B
:1025C000ACFE00270226204600F055F9802201A922
:1025D00020464E3000F0ABF80746002530E001A859
:1025E000405DB0380300FFF7D7FF110F0D1F0E102D
:1025F0001F12111F1F131F1F1F0A0B0C1F0000BFEC
:1026000000BF00BF00BF00BF00BF00BF00BF00BFD2
:10261000A420005D002806D101A8415DA22001553B
:102620000121A420015508E001A8415D3046721C3B
:10263000D6B222469A32115400BF00BF681CC5B200
:10264000BD4201DA082ECADBA420005D02280FD1AA
:10265000A220015D20464E3000F058F8002807D136
:102660002046A2300021017041700321A4200155B1
:1026700020464E3000F0DFFA21B0F0BD10B5144610
:1026800003220A70A222125CB03A1300FFF784FF03
:10269000110A0F3C14193C1E233C3C283C3C3C2DA9
:1026A00032373C00B5224A7000228A702CE0B622F4
:1026B0004A7000228A7027E0CD224A7000228A7078
:1026C00022E0E2224A7000228A701DE0E9224A706C
:1026D00000228A7018E0EA224A7000228A7013E011
:1026E000B8224A7000228A700EE070224A700022DE
:1026F0008A7009E06F224A7000228A7004E0212269
:102700004A7002228A7000BF00BF10BD10B5024699
:102710000807C00E105AF0230B401C110123A340E0
:102720001840F0230B401B111841C0B210BDF7B583
:1027300004460F4600230020002123E04D00655B86
:10274000002D1DD0002219E0012595404E00A65B0A
:102750003540002D10D0029DA84200DBFEBD1D4675
:1027600015432B461D072B0E1D460D432B460546D4
:10277000461CF0B27B550023551CEAB2102AE3DB5D
:102780004D1CE9B21029D9DB00BFE7E7F3B587B0EC
:1027900004460020039002902078069000200190CB
:1027A0002078059020460A30FDF7B9FD01900025FC
:1027B0005CE0002650E0A900089840580121B14093
:1027C0000840002843D00020049015E00498410000
:1027D00020460E3009184878097800020843012184
:1027E000B1400840002803D00398401CC0B20390B9
:1027F0000498401CC0B20490617804988142E5DCE2
:10280000002712E0690020460E3009184878097840
:10281000000208430121B9400840002803D0029873
:10282000401CC0B20290781CC7B22078B842E9DCE4
:102830000398022802DB0298022808DA0698684307
:10284000019A8018815D20464E3000F0FBF900208F
:1028500003900290701CC6B22078B04204DDA9003B
:10286000089840580028A6D1681CC5B26078A842D4
:102870009FDC09B0F0BD70B50446002519E028467C
:10288000E030C1B220464E30FFF740FF00280ED0A6
:102890002846E030C1B220464E3000F0E1F99A20DF
:1028A000005D0121A9400843C1B29A200155681C6E
:1028B000C5B2082DE3DB70BD70B504463F48007813
:1028C00000281CD1AF2120464E30FFF71FFF002803
:1028D00015D00120394908708E20005D0121484043
:1028E0008E210855AF2120464E3000F0B9F98E20D8
:1028F000025D012149033248FDF7C4FF70BD2F4836
:10290000007801280ED1AF2120464E30FFF7FEFEA1
:10291000002807D129490870AF2120464E3000F029
:102920009FF9EBE78E20005D002844D020469030D0
:10293000FDF7F5FC05469420025D2946204600F08F
:1029400040FB3C2120464E30FFF7E0FE00280ED031
:102950003C2120464E3000F083F9E32120464E30E2
:1029600000F070F92B2120464E3000F06BF93F212A
:1029700020464E30FFF7CAFE002807D011480078E5
:10298000002803D101200F4908700FE03F212046A5
:102990004E30FFF7BBFE002808D10A480078012816
:1029A00004D100200749087000F06AFC3F2120464E
:1029B0004E3000F055F900BFA0E70000CA0000202B
:1029C00000080048C900002010B501214804FEF7A6
:1029D000ABF801218804FEF7A7F80121C804FEF72F
:1029E000A3F801218805FEF79FF810BD10B5062257
:1029F000012149020920C00600F0DAFB062201216C
:102A000049030E4800F0D4FB062201218902092067
:102A1000C00600F0CDFB012251020920C006FDF7DF
:102A200031FF012251030548FDF72CFF002201214F
:102A300089020920C006FDF725FF10BD00080048E7
:102A4000F8B5054600241AE0A81CFDF768FC0A2129
:102A500061434018071D3846FDF761FC86B2A81C8B
:102A6000FDF75DFC0A21614347183846FDF757FC26
:102A700007223146009000F09BFB601CC4B228780E
:102A8000A042E1DC00241AE0A81DFDF748FC0A2161
:102A900061434018071D3846FDF741FC86B2A81D6A
:102AA000FDF73DFC0A21614347183846FDF737FC26
:102AB00007223146009000F07BFB601CC4B26878AE
:102AC000A042E1DCF8BDF8B5054600241AE0A81DD7
:102AD000FDF725FC0A2161434018071D3846FDF724
:102AE0001EFC86B2A81DFDF71AFC0A216143471897
:102AF0003846FDF714FC07223146009000F058FBE1
:102B0000601CC4B26878A042E1DC002433E0A81C59
:102B1000FDF705FC0A2161434018071D3846FDF703
:102B2000FEFB86B2A81CFDF7FAFB0A216143471899
:102B30003846FDF7F4FB04223146009000F038FBE4
:102B4000A81CFDF7ECFB0A2161434018071D38461D
:102B5000FDF7E5FB86B2A81CFDF7E1FB0A21614306
:102B600047183846FDF7DBFB012231460090FDF7A0
:102B700089FE601CC4B22878A042C8DCF8BDF8B554
:102B8000054600241AE0A81CFDF7C9FB0A21614391
:102B90004018071D3846FDF7C2FB86B2A81CFDF79A
:102BA000BEFB0A21614347183846FDF7B8FB0722F0
:102BB0003146009000F0FCFA601CC4B22878A042B4
:102BC000E1DC002433E0A81DFDF7A9FB0A216143E5
:102BD0004018071D3846FDF7A2FB86B2A81DFDF779
:102BE0009EFB0A21614347183846FDF798FB0422F3
:102BF0003146009000F0DCFAA81DFDF790FB0A2199
:102C000061434018071D3846FDF789FB86B2A81DB1
:102C1000FDF785FB0A21614347183846FDF77FFB26
:102C2000012231460090FDF72DFE601CC4B2687889
:102C3000A042C8DCF8BD10B5044620212046FDF7AF
:102C40006AFB10BD10B50A07D20E825AF0230B4062
:102C50001C110123A3401A430B07DB0EC25210BD07
:102C600010B50A07D20E825AF0230B401C11012323
:102C7000A3409A430B07DB0EC25210BDFFF7A4FE20
:102C8000FEF70CFAFEF72CFDFFF7B0FEFEF738FA60
:102C90000DA10020FEF724F814E00D4800F031F9F2
:102CA0000B4800F081F80A4800F014F80848FFF7D4
:102CB00003FE0748FFF77EFC054800F049FA044888
:102CC00000F010FAE9E7000073746172740A000002
:102CD0001C000020F0B5A3B00446802102A8FDF737
:102CE0001CFB2778002001902078229020460A3093
:102CF000FDF715FB019020464E30FFF79CFF0025A5
:102D00003DE000262CE0690020460E300918487886
:102D10000978000208430121B140084000281DD075
:102D200038466843019A8018815D20466E30FFF76F
:102D3000EDFC002809D038466843019A8018815D6F
:102D400020464E30FFF77EFF08E0A80002A9085891
:102D50000121B1400843A90002AA5050701CC6B21C
:102D60002078B04209DD690020460E300918487805
:102D70000978000208430028C5D1681CC5B26078F4
:102D8000A842BEDC02A92046FFF700FD40212046F4
:102D90000E30FDF7C0FA202221464E3120466E301B
:102DA000FDF75CFA23B0F0BDFEB504462046FFF700
:102DB00047FE0025A0E000268EE0690020460E3088
:102DC000091848780978000208430121B1400840F9
:102DD00000287FD0A01DFDF7A2FA0A216943401800
:102DE000071D3846FDF79BFA80B20190A01DFDF744
:102DF00096FA0A21694347183846FDF790FA0522EA
:102E00000090019900F0D4F9A01DFDF788FA0A217D
:102E100069434018071D3846FDF781FA80B20190DA
:102E2000A01DFDF77CFA0A21694347183846FDF7D3
:102E300076FA012200900199FDF724FD00BF00BF42
:102E4000A01CFDF76CFA0A2171434018071D384693
:102E5000FDF765FA80B20190A01CFDF760FA0A2127
:102E6000714347183846FDF75AFA00900199FDF76B
:102E7000FFFC002811D1690020460E30091848785F
:102E80000978000208430121B14088436A002146C5
:102E90000E3151180870000A4870A01DFDF73FFA66
:102EA0000A2169434018071D3846FDF738FA80B2F9
:102EB0000190A01DFDF733FA0A21694347183846EF
:102EC000FDF72DFA07220090019900F071F900E05A
:102ED00000E000BF701CC6B22078B0420ADD690075
:102EE00020460E3009184878097800020843002867
:102EF00000D062E7681CC5B26078A84200DD5AE7DE
:102F0000FEBDFEB504462778002000902078019091
:102F100020460A30FDF703FA00902046FFF790FDA7
:102F20002046FFF72CFE204600F0A2F82046FFF7CF
:102F3000CAFD204600F064F800253EE0002637E098
:102F40006078410020460E30091848780978000260
:102F500008430121B1400840002827D069002046DD
:102F60000E300918487809780002084322780121B8
:102F700091400840002819D038466843009940180D
:102F8000805D002812D0690020460E30091848786C
:102F90000978000208430121B140084381B26A0068
:102FA00020460E3010180170090A4170701CC6B21C
:102FB0002078B042C4DC681CC5B26078A842BDDC91
:102FC000FEBDF8B505460E461746002415E0600024
:102FD000315C28464E30FFF799FB00280CD060008A
:102FE000315C28464E30FFF73BFE60008019417887
:102FF00028464E30FFF726FE641CBC42E7DBF8BDD6
:10300000F8B5044600252FE0A01DFDF788F90A2138
:1030100069434018071D3846FDF781F986B2A01DA7
:10302000FDF77DF90A21694347183846FDF777F91E
:1030300031460090FDF71CFC002813D069002046A3
:103040000E300918487809780002084322780121D7
:103050009140084381B26A0020460E30101801707A
:10306000090A4170681CC5B26078A842CCDCF8BD82
:10307000F8B50446002530E0A01CFDF750F90A2100
:1030800069434018071D3846FDF749F986B2A01C70
:10309000FDF745F90A21694347183846FDF73FF91E
:1030A00031460090FDF7E4FB002814D06078410021
:1030B00020460E300918487809780002084301219B
:1030C000A940084381B26078420020460E301018B3
:1030D0000170090A4170681CC5B22078A842CBDC97
:1030E000F8BD000038B5044612A000680090A42086
:1030F000005D012811D1032269462046FFF7BEFA80
:10310000032269460220FEF701F90221A42001559D
:1031100009A10020FDF7E4FD0BE0A420005D0328D9
:1031200007D1032269460220FEF7F0F80021A4200F
:10313000015538BD030000003E3E3E3E3E3E3E3E51
:103140003E3E3E3E3E3E3E3E3E3E3E3E0000000097
:103150007CB50446002500200AE02146A5310A5C22
:103160000B39095C8A4201D1691CCDB2411CC8B23D
:103170000828F2DB082D15DA0020009001900822C3
:1031800021469A316846FDF769F808226946012010
:10319000FEF7BCF8082221469A312046A530FDF7FB
:1031A0005DF800BF082120469A30FDF7B4F87CBDD9
:1031B0007CB506460C4615462B00FFF7EDF90805D1
:1031C0000F19242E39444F5900940021684601718B
:1031D0008171032141710021C1714AE000940021F5
:1031E000684601718171032141710021C17140E084
:1031F0000094002168460171012181710321417110
:103200000121C17135E0009400216846017181718E
:10321000032141710121C1712BE000940121684615
:10322000017100218171032141710021C17120E0F0
:1032300000940121684601710021817103214171CF
:103240000121C17115E0009401216846017100213E
:103250008171032141710221C1710AE000940021B2
:10326000684601718171032141710221C17100E041
:1032700000BF00BF69463046FDF790FA7CBD0000F4
:1032800000B585B0204A12789200204BD3185A78A6
:103290001B7812021A431E4B1B885B1E5A431046B2
:1032A000194A12789200194BD318DA789B781202D7
:1032B0001A431146FDF746F8164908807021684602
:1032C0000180012141800421818012480088029000
:1032D0000221684681810021C181FF2101310182E3
:1032E0000021418269460C48FDF788FF06480078B6
:1032F000401C0549087008460078032801DD0020BD
:10330000087005B000BD0000D4000020D5000020EA
:10331000D0000020D2000020002C01400000004816
:103320000100000000000000004802000000000151
:1033300000000048040000000002000000480800EF
:10334000000000030000004810000000000400001E
:103350000048200000000005000000484000000078
:10336000000600000048800000000007000400483C
:1033700001000000010000040048020000000101FB
:10338000000400480400000001020004004800049A
:103390000000010A0004004800080000010B0004BE
:1033A000004800100000010C00040048002000004C
:1033B000010D0004004800400000010E0004004818
:1033C00000800000010F0000004800800000000F96
:1033D0000004004808000000010300040048100039
:1033E0000000010400040048200000000105000462
:1033F0000048400000000106000400488000000072
:1034000001070008004800800000020F0014004877
:103410000100000005000014004802000000050142
:103420000000000000E30000E600E20000000000F1
:1034300000E700000000AF3E51002C0000004600F5
:103440004F0000000000000050005200000000008B
:1034500011100B0D181C2324000000E500E10000F2
:10346000001B00161A393A1F00000000000000007F
:10347000000000000000000045284431002A4243BB
:103480000037000F1240412600363F0E0C302E252B
:1034900038E03433132F2D27001D2904142B351E3B
:1034A00005190A091517222198063D07083C3B20FB
:1034B00012010002000000404F1C720001000102D6
:1034C0000301120009022000010100A032090400DA
:1034D0000002FFF00002070581024000000705021C
:1034E0000240000020000403090404000C034A0009
:1034F00044002D0044005A000C001C0369004100E8
:103500005000200049006E007400650072006600E3
:103510006100630065001C001603320030003200B9
:1035200032002D00300033002D003200380016002C
:1035300005010906A101050719E029E71500250184
:103540007501950881029501750881019505750140
:103550000508190129059102950175039101950648
:103560007508150026FF00050719002AFF008100D5
:10357000C000410005010902A10185010901A10066
:103580000509190129051500250195057501810217
:103590009501750381030501093009310938158149
:1035A000257F750895038106050C0A38029501816F
:1035B00006C0C005010980A1018502150126B700DA
:1035C000190129B7751095018100C0050C0901A1E9
:1035D0000185031501269C0819012A9C0875109580
:1035E000018100C005010906A1018506050719042E
:1035F000297315002501750195788102C0008900A5
:1036000005010906A1010507190429731500250103
:10361000750195788102C00017000600FF0A00FFBF
:10362000A101150026FF00750895400901810009D8
:1036300001150026FF00750895409100C000230089
:103640000600FF0A00FFA101150026FF007508957E
:1036500020090181000901150026FF007508952049
:103660009100C000230030313233343536373839D9
:1036700041424344454600009836000800000020BF
:103680002001000004010008B837000820010020D4
:10369000F00D000020010008000000000000000004
:1036A0003ABE3BBF3DC040B141B342B043B444B762
:1036B00045B646BA08121C3300086C3300082034A3
:1036C00000080000000000000000000000000000F2
:1036D00000000000000000000000000000000000EA
:1036E00000000000000000000000000000000000DA
:1036F00000000000000000000000000000000000CA
:1037000000000000000000000000000000000000B9
:1037100000000000000000000000000000000000A9
:103720000000000000000000000000000000000099
:103730000000000000000000000000000000000089
:1037400000000100080000200A0000000000000046
:103750000000000000000000000000000000000069
:10376000000000000000000000000000005A00649B
:10377000004B0064003200640005000100000000FE
:103780000000000000000000000000000000000039
:103790000000000094010020000000000000000074
:1037A00000000000006CDC020000000000000000CF
:0837B0000102030406070809E9
:04000005080000C12E
:00000001FF
