:020000040800F2
:10000000D017002089010008AF010008B1010008E5
:1000100000000000000000000000000000000000E0
:10002000000000000000000000000000B301000814
:100030000000000000000000B5010008A52A00082B
:10004000B9010008B9010008B9010008B9010008A8
:10005000B9010008B9010008B9010008B901000898
:1000600000000000B9010008B9010008B90100084A
:10007000B9010008B9010008B9010008000000003A
:10008000B9010008B901000800000000B90100082A
:10009000B9010008B9010008B9010008B901000858
:1000A000B9010008B9010008B9010008B901000848
:1000B000B90100080000000000000000692E0008DF
:1000C00000F002F800F034F80CA030C8083824180A
:1000D0002D18A246671EAB4654465D46AC4201D180
:1000E00000F026F87E460F3E0FCCB646012633427E
:1000F00000D0FB1AA246AB4633431847905300008A
:10010000B05300000023002400250026103A01D33C
:1001100078C1FBD8520700D330C100D50B607047BF
:100120001FB50098019900F028FA1FBD10B510BD49
:1001300000F07DFA1146FFF7F3FF04F0B1FA00F08A
:1001400095FA03B4FFF7F2FF03BC00F0C5FA000014
:1001500070B505460C46164602E00FCC0FC5103EA2
:10016000102EFAD2082E02D303CC03C5083E042E6B
:1001700007D301CC01C5361F03E021782970641C28
:100180006D1C761EF9D270BD0F4880F308880F48A9
:100190000168090E0E4A914205D10E480E490160D0
:1001A0000E480F4901600F4880470F480047FEE79F
:1001B000FEE7FEE7FEE7FEE7FEE700000B480C491E
:1001C0000C4A0D4B70470000D017002004000000BF
:1001D0001F00000018100240010000000000014054
:1001E00000000000C52A0008C1000008D00F002050
:1001F000D0170020D0130020D013002070B5064681
:1002000000F09EF9056830460B30C408E400B442A3
:1002100001D8002070BD68682A46002818D00168FF
:10022000A14211D30B46214608318B4208D34368C3
:1002300001194B6003681B1B0B605160046001E0F7
:1002400041685160001D70BD024640680028E6D13B
:100250002146284600F07CF90028DCD170BD70B53D
:100260000446051F00F06CF90068002C1AD04468A1
:1002700001E020466468002C01D0AC42F9D301684B
:100280000A18AA4204D12A6805468918016000E0CC
:10029000456028684119A14205D1616869602168FB
:1002A0004018286070BD6C6070BD0000034670B5DA
:1002B00002460B439B070FD10E4CE60100E008C23B
:1002C00008C91D1B9D433542F9D0D9B21170521C8B
:1002D00000290DD01B0AF8E70B78491C1370521C3B
:1002E000002B05D00B78491C1370521C002BF3D146
:1002F00070BD000001010101F8B5042A2CD3830769
:1003000012D00B78491C0370401C521E83070BD07F
:100310000B78491C0370401C521E830704D00B78D5
:10032000491C0370401C521E8B079B0F05D0C91A35
:10033000DF002023DE1B08C90AE0FFF709FFF8BD34
:100340001D4608C9FD401C46B4402C4310C0121F76
:10035000042AF5D2F308C91A521EF0D40B78491CAE
:100360000370401C521EEAD40B78491C0370401CD9
:10037000012AE4D409780170F8BD01E004C0091F26
:100380000429FBD28B0701D50280801CC90700D04D
:100390000270704700290BD0C30702D00270401CC6
:1003A000491E022904D3830702D50280801C891EBE
:1003B000E3E70022EEE70022DFE78178C2780378E6
:1003C000090412061143427810021843084370478B
:1003D000020A08704A70020C8A70020ECA707047D6
:1003E000002203098B422CD3030A8B4211D3002332
:1003F0009C464EE003460B433CD4002243088B420C
:1004000031D303098B421CD3030A8B4201D3944698
:100410003FE0C3098B4201D3CB01C01A524183098B
:100420008B4201D38B01C01A524143098B4201D345
:100430004B01C01A524103098B4201D30B01C01A70
:100440005241C3088B4201D3CB00C01A52418308EA
:100450008B4201D38B00C01A524143088B4201D317
:100460004B00C01A5241411A00D201465241104677
:1004700070475DE0CA0F00D04942031000D34042EC
:10048000534000229C4603098B422DD3030A8B4222
:1004900012D3FC22890112BA030A8B420CD38901C0
:1004A00092118B4208D3890192118B4204D38901A6
:1004B0003AD0921100E08909C3098B4201D3CB01E4
:1004C000C01A524183098B4201D38B01C01A524199
:1004D00043098B4201D34B01C01A524103098B429D
:1004E00001D30B01C01A5241C3088B4201D3CB0088
:1004F000C01A524183088B4201D38B00C01A52416B
:10050000D9D243088B4201D34B00C01A5241411A41
:1005100000D20146634652415B10104601D340426F
:10052000002B00D54942704763465B1000D3404220
:1005300001B50020C046C04602BD704770477047F5
:1005400000487047740F002070477047704770472D
:1005500038B504460A4600206946C046C046002811
:1005600005D002462046009900F040F8012038BD31
:1005700010B5012000F054F810BDF8B5C046C046D3
:10058000054600200C461020C0460646A819A04289
:100590000DD9324669460020C046C046070001D149
:1005A00000F03EF80098A04200D00546C419FFF7BD
:1005B000C7FFF61D07460560F008C000461928462B
:1005C00000F008F8B44204D031463868A21B00F0AD
:1005D0000DF8F8BD00210160416080607047102077
:1005E00070470000004870476C0F002010B50346AC
:1005F000406801E003464068002801D08842F9D3F2
:100600001868C3188B4206D0CB1CD808C000001D48
:10061000411A521A0146081D0A60FFF720FE10BD5C
:1006200010B500F031F800F029F810BD704775469C
:10063000FFF7D8FFAE46050069465346C008C00024
:10064000854618B020B5FFF7B9FD60BC0027490802
:10065000B6460026C0C5C0C5C0C5C0C5C0C5C0C55A
:10066000C0C5C0C5403D49008D46704710B5044621
:10067000C046C0462046FFF764FD10BD10B50028F7
:1006800001D000F029F810BD10B5012805D00021D7
:1006900003A000F027F8012010BD09A1F8E7000031
:1006A00053494752544D454D3A204F7574206F665B
:1006B0002068656170206D656D6F727900000000C3
:1006C0003A2048656170206D656D6F727920636FA7
:1006D000727275707465640001491820ABBEFEE744
:1006E0002600020070B505460C460A2000E06D1C8D
:1006F00000F012F8002D06D028780028F7D102E08B
:10070000641C00F009F8002C02D020780028F7D1F2
:100710000A2000F001F870BD08B569460870032092
:10072000ABBE08BD70B58C180578401C6B075B0F1D
:1007300001D10378401C2A1106D10278401C03E045
:100740000678401C0E70491C5B1EF9D12B0705D49E
:100750000023521E0DD40B70491CFAE70378401C8D
:10076000CB1A921C03E01D780D70491C5B1C521EB5
:10077000F9D5A142D8D3002070BD0000002806D0D2
:100780000649096840221143044A116005E0034903
:10079000096840229143014A11607047006C004093
:1007A000002806D00649096820221143044A116036
:1007B00005E00349096820229143014A116070470E
:1007C000006C0040FFB544480068024609321446F8
:1007D00041480068039041480090002576E0009869
:1007E0000078002816D0002002900EE02679F00054
:1007F000801B093012181446E078002801D104B09B
:10080000F0BD0298401CC0B2029000980778029890
:100810008742EBDCA800324F3C5026790932002099
:1008200001904BE0134698780007000F2D4FB873E6
:1008300058791F7900023843C01D4005010E987891
:100840008027384000281BD026480174817CD87846
:100850008007800F012804D0022805D0032809D181
:1008600003E04020014305E000BF40200F468743DE
:10087000394600BF00BF202001431A48817418E0A8
:100880001848C174417DD8788007800F012804D0B2
:10089000022805D0032809D103E04020014305E0E8
:1008A00000BF40200F468743394600BF00BF0D48B8
:1008B0004175D21D0198401CC0B201900198B04210
:1008C000B0DB681CC5B20098401C0090039800790A
:1008D000A84284DC012092E70C01002010010020D6
:1008E00030050020005C004010B517480378174819
:1008F000027817A1002001F0CFFB144800780028EF
:1009000008D001211D48006801F058F800200F4967
:10091000087010BD2E231A4A1AA1002001F0BCFB5A
:1009200009480078002807D001211448006801F028
:1009300045F80020044908703923114A11A100200C
:1009400001F0AAFB00BFE4E7910200209002002022
:100950004472697665725F436865636B20675F699F
:10096000735478446F6E653D256420675F697352E8
:1009700078446F6E653D25640A0000002801002060
:10098000475400082323232066756E6374696F6ED5
:100990003D2573206C696E653D2564200A000000CA
:1009A00070B5044611480460227811A1002001F0BE
:1009B00073FB2078002817D0601CFFF7FEFC05466B
:1009C000A2796379100218430146284604F0AEFA72
:1009D000012011490870A179627908021043034986
:1009E0000968C871000A0872012070BD94020020D5
:1009F0004472697665725F5472616E736665725394
:100A00007461727420704972622D3E6D5F69735417
:100A1000783D25640A000000900200207FB51E4644
:100A2000012E07D16846007A134988734825084685
:100A300045741FE00198401C00281BD001984028F5
:100A400004DA019C0020C043019003E04024019897
:100A5000403801906946087A2146009A00F05EF815
:100A60000098001900906946087A034988730125A7
:100A7000084645747FBD0000005C00407FB5089EBD
:100A8000012E07D16846007B1949887390250846D6
:100A900005752BE06846007B154988730846057D7F
:100AA00020E01348C47D2402807D0443029800198D
:100AB0000199884205DD00200D490875204604B0E3
:100AC00070BD6946087B2146009A00F013F8029831
:100AD0000019029000980019009000200449087540
:100AE0000846057DE807C00F0028DAD12046E6E772
:100AF000005C0040F0B50346144600290BD09E0070
:100B0000054FF5190846224603E02E781670521C50
:100B1000401E0028F9D1F0BD205C0040F7B582B03E
:100B200006460C46002000903346224614A101F0F0
:100B3000B3FA002C1CD0B0001A4940180190274687
:100B4000049D13E02A7818A1002001F0A5FA297865
:100B5000019801706D1C0098401C009000980A28B4
:100B600003D114A1002001F097FA7F1E002FE9D1D4
:100B70003346224610A1002001F08EFA05B0F0BDE8
:100B80007374617274204649464F577269746520C8
:100B90006E4279746573203D202564206E45503D7A
:100BA00025640A00205C004020307825303278200F
:100BB000000000000A0000000A20656E642046491B
:100BC000464F5772697465206E4279746573203D93
:100BD000202564206E45503D25640A00F0B50A4684
:100BE00000210023002400BF3DE001258D402B465D
:100BF00015681D402C469C4234D11579012D02D038
:100C00001579022D16D185684F000326BE40B543E5
:100C1000856055794E00B540866835438560858886
:100C200001268E40B5438580858896798E40B6B280
:100C30003543858005684F000326BE40B5430560F7
:100C400015794E00B540066835430560C5684F000C
:100C50000326BE40B543C560D5794E00B540C66891
:100C60003543C560491C1029BFD3F0BD02460020A2
:100C7000138A0B40002B01D0012000E000207047B8
:100C8000002A01D0816100E00185704701480068B9
:100C9000704700000001002070B504460D460B4966
:100CA0000220FFF795FB211D0120FFF791FB214654
:100CB000083106484338FFF78BFB21460220FFF737
:100CC00087FB40200249487470BD00002B050020BE
:100CD000005C004070B504460D460B490320FFF749
:100CE00077FB211D0120FFF773FB214608310648E1
:100CF0004238FFF76DFB21460220FFF769FB4020D9
:100D00000249487470BD00002B050020005C0040C3
:100D100070B504460D4615480068012824D9E878C6
:100D2000A978000208430012012804D0022804D048
:100D3000032818D100E000BF00BF0D490120FFF7D4
:100D400047FB211D0120FFF743FB214608310848DE
:100D50005338FFF73DFB21460220FFF739FB4020C7
:100D60000449487400BF00BF70BD000008010020A6
:100D70002B050020005C004070B504460D460A4972
:100D80000A20FFF725FB21460020FFF721FBE8782A
:100D9000A97800020843001203495339087440201F
:100DA0000249487470BD00002B050020005C004023
:100DB00070B504460D4609490B20FFF709FB214693
:100DC0000020FFF705FBE878A978000208430349F3
:100DD0005339487440200249487470BD2B050020E7
:100DE000005C004070B504460D46E878A978000222
:100DF00008430012012804D0022803D003281CD184
:100E00001AE01AE00E490920FFF7E2FAE979AA7917
:100E1000090211430846211DFFF7DAFA2146012095
:100E2000FFF7D6FA2146083105485338FFF7D0FAC4
:100E300040200449487400E000BF00BF70BD0000BE
:100E40002B050020005C0040002905D042680123EA
:100E5000DB039A43426004E042680123DB031A4348
:100E600042607047002904D0026801231A430260DF
:100E700003E00268520852000260704710B5044651
:100E80000B48844209D10121480501F049F80021AD
:100E90000120400501F044F808E00121880501F037
:100EA0003FF800210120800501F03AF810BD000054
:100EB00000540040002905D0426801235B031A4317
:100EC000426004E0426801235B039A43426070473A
:100ED000002905D0426801239B031A43426004E0C5
:100EE000426801239B039A434260704710B50A464B
:100EF000002103685B085B0003600168144B194024
:100F00009468240253682343194301600F24240684
:100F10001368A34303610368012423430360002192
:100F20008160C160146993692343194681608368B5
:100F30000124E40323438360D16803680B43036007
:100F40004168044B194053691943416010BD0000CA
:100F5000FFE0CF00FF7FFF07002905D14268012392
:100F60009B029A43426004E0426801239B021A43B9
:100F7000426070470146486AC0B27047816270475C
:100F80000A4600214168890A890293059B0D19438D
:100F9000416070470021016041608160C160016172
:100FA0000121C9034161002181617047FFB581B012
:100FB00004461E462746022531122A466D1CB954A6
:100FC0002A466D1CBE54029801122A466D1CB95463
:100FD0002A466D1C0298B854781932460399FFF7D7
:100FE0008BF9A670300AE070284605B0F0BD00000D
:100FF00070B504460D460E212046FFF7DAF9064883
:101000002070000A60700620A0700020E07025713A
:10101000280A6071062070BD40400000F7B588B016
:101020000020C0430690022005AB30222021009012
:10103000424803F091F906900698002802DA0698D3
:101040000BB0F0BD6946087D0002497D084303905E
:101050000398FFF7D3F8049003990498FFF7A9F9D0
:1010600003980090312220213448049B03F074F946
:1010700006900698002804DA0498FFF7F0F806981E
:10108000DEE70398001D80B2029003980A3086B212
:1010900035462846FFF7B2F80446402020706070BD
:1010A000FF20000230400012A070E670AA202071DC
:1010B00001206071FF210902029808400012A0710E
:1010C0000298E07100202072607232460A3A20468F
:1010D0000A300499FFF710F90A980580099F18480B
:1010E000B870000AF8703D70280A7870381DFFF754
:1010F00064F900280AD179783A7809021143084640
:10110000FFF77CF8391D0190FFF762F9381DFFF7F2
:1011100054F9019078783978000208430246214654
:101120000198FFF7E9F80498FFF799F806980790F7
:101130002046FFF794F8079882E70000005400402B
:1011400001AA0000F7B58AB00025ED430A980A30DD
:10115000FFF733F907900798C07A00020799097BD7
:1011600008430590059806280CDD0599881FFFF7B0
:1011700045F806900598821F07990F310698FFF7EA
:10118000BBF803E00020C0430DB0F0BD0598801F00
:101190000004010E08A801700598801FC1B208A8BC
:1011A0004170022008AB2022114600907F4803F0D6
:1011B00011F90546002D04DA0698FFF750F8284685
:1011C000E2E70598801F0090212220217748069BA6
:1011D00003F000F90546002D04DA0698FFF73FF802
:1011E0002846D1E7012008A9087008AB1022202169
:1011F00000906E4803F0EEF80546002D04DA0698DC
:10120000FFF72DF82846BFE7002008A90870012045
:1012100008AB102220210090644803F09DF8054699
:10122000002D04DA0698FFF71AF82846ACE708A85C
:101230000078001104900498012805D00698FFF763
:101240000EF80020C0439FE7002108A801704170FC
:10125000022008AB112220210090544803F07CF8B2
:101260000546002D04DA0698FEF7F9FF28468BE7BD
:1012700008A80078010208A84078084303900021DC
:1012800008A801704170022008AB2022114600908E
:10129000464803F061F80546002D04DA0698FEF78B
:1012A000DEFF284670E708A84078002809D108A882
:1012B0000078002805D10698FEF7D1FF0020C04332
:1012C00062E708A908780002497808430590069863
:1012D000FEF7C5FF0398FEF791FF06900398009074
:1012E000122220213148069B03F036F80546002DD6
:1012F00004DA0698FEF7B3FF284645E70398001D79
:101300000290039807460A370197019F3846FEF777
:1013100075FF0446402020706070FF200002019F8E
:1013200038400012A070019FE770AA2020710320AE
:101330006071FF210902029808400012A071029812
:10134000E0710020207260720C9807800B9E184894
:10135000B070000AF070B8B23070000A7070301DC2
:10136000FFF72BF800280AD171783278090211436F
:101370000846FEF743FF311D0090FFF729F8301DA6
:10138000FFF71BF80090707831780002084302469E
:1013900021460098FEF7B0FF0698FEF760FF204652
:1013A0000995FEF75CFF0998EEE600000054004046
:1013B00001AA000070B504460D46082D27D1607CB7
:1013C000217C000208435521490288420ED0607CEE
:1013D000217C000208431249884207D0607C217CAE
:1013E000000208430E49C91C884203D1204601F07F
:1013F00051FA13E0607C217C0002084309498842CD
:101400000CD100221146204601F060FA06E0052DBD
:1014100003D1204601F03EFA00E000BF002070BD7D
:1014200002AA0000021D0000F8B50D461646EA208B
:1014300030802C461348A070000AE070EA2020702B
:1014400000206070201DFEF7B8FF00280AD16178E7
:101450002278090211430846FEF7D0FE0746211DF7
:10146000FEF7B6FF201DFEF7A8FF0746607821783B
:1014700000020843024604493846FEF73DFF0020BB
:10148000F8BD0000011D00004401002070B50446B5
:10149000264625462E212046FEF78BFF284601F0E2
:1014A000EFF90A203070002070700120B070291D03
:1014B0000948FEF78DFF294608310848FEF788FFE6
:1014C00029460C310648FEF783FF29460548006887
:1014D00000F0ACF9012070BDB5130008E914000854
:1014E000AD15000828010020FFB581B00E46144656
:1014F0001F460020009070793179000208430546AC
:1015000000203880681C81B22046FFF771FD0198E9
:101510000574290A417455204002854205D16A4666
:10152000A11D3046FFF77AFD2BE01D48854205D10D
:101530006A46A11D3046FFF705FE22E01848C01C90
:1015400085421ED01D200002854205D16A46A11D9C
:101550003046FFF769FF14E01248854208D16A4619
:10156000A11D304603F042FC01200F49087008E03D
:101570000C48401C854204D16A46A11D3046FFF745
:1015800053FF68460088002807D068460388A21DDC
:1015900000212046FFF70AFD3880002005B0F0BD8D
:1015A00002AA0000021D00000000002003460020E7
:1015B000704770B5024600241546002305E02E78DA
:1015C0006D1C3019C4B2581C83B28B42F7DBE04368
:1015D000401CC0B270BDFFB583B004460E9D02949E
:1015E0002846093087B2002D01D0781C87B20A2125
:1015F0002046FEF7DEFEA520C0432070000A607082
:10160000A770380AE0706846007C20710598607108
:101610000698A0710C98E07108210298FFF7C9FFA5
:1016200020722A46204609300D99FEF765FE0D9E70
:10163000B01D002810D0001DFEF7BFFE00280BD003
:1016400030460A30FEF7B9FE0190FEF708FE31463B
:101650000A310020FEF7BCFE2046093002902946E0
:10166000FFF7A7FF02994855384607B0F0BD7FB590
:1016700005460C460026002103916846007B402168
:1016800088434030039000200090019002906379DD
:10169000A27928460399FFF79EFF0646304604B01C
:1016A00070BD000070B504460D4610492046FEF797
:1016B00080FE0E48001F21182846FEF789FE0B48C1
:1016C0003F38211820463630FEF782FE07483B3867
:1016D000211820468030FEF77BFE04483738211859
:1016E000024849382018FEF773FE70BD050500005A
:1016F000F8B504460D4620462B30FEF75EFE0090FE
:1017000020462B30FEF759FE071D3846FEF755FEE2
:10171000064629460098B047F8BD034600207047AA
:10172000FEB504460D4616460027062D36D1207814
:1017300001280CD11A482018FEF73FFE1722014657
:101740000190204600F02EF80220207026E020783C
:1017500002281AD11248001D2018FEF72EFE31462D
:101760000190FFF784FF07460D48001D2018FEF783
:1017700024FE0190002003463A460090204601993D
:1017800000F018FA0320207008E02078032805D123
:1017900005212046FFF7ACFF052020700020FEBD8C
:1017A000CA040000F8B505460F4616469F20C00043
:1017B0002C181248864201D90020F8BD10A1002043
:1017C00000F06AFC00202070611C3846FEF700FE25
:1017D000B1B26171090AA1710021E171217207485A
:1017E000C5302818FEF7E9FD00902046009988478B
:1017F000002800D1E1E70120DFE700003C04000001
:10180000496170324C696E6B5F52637644617461FA
:1018100020704972622D3E6D5F6973547820093DD6
:101820002066616C7365200A0000000070B50446F4
:101830000D462F210A5D095D491CCBB22F210B55A6
:101840005100521821463031501803222946FEF724
:1018500053FD21462B312846FEF7BAFD70BD00002E
:1018600070B588B0044600BF21482018FEF7A5FDDA
:10187000064602212046FFF73BFF03A800F060FA6E
:101880002F20005D410042182146303105A802306A
:10189000FEF732FD002107916846007F80218843D2
:1018A000803007902F20005D410040180A3003A9C6
:1018B00000220092019102902320025D005D401CF5
:1018C000C3B223200355002330460799FFF783FE58
:1018D00005460A207D23DB002A463146009020463B
:1018E00000F068F901202070002008B070BD0000F1
:1018F000C60400007047000038B504460DA1002062
:1019000000F0CAFBFF207D23DB0006220E49009079
:10191000204600F04FF9002803D10CA100F0BCFBD9
:1019200038BD14A1002000F0B7FB0020207000BFDC
:10193000F6E70000496170324C696E6B5F53746169
:1019400072742E0A000000002C010020787878784C
:1019500078782053656E6420696E697469616C697A
:101960007A6174696F6E20706B74206661696C6552
:10197000642E0A007878787878787878787878782B
:1019800053656E6420696E697469616C697A61740B
:10199000696F6E20706B7420737563636573736613
:1019A000756C2E0A0000000010B50446024820188D
:1019B00001F046F810BD0000D2040000FEB5044658
:1019C0000E469F20C00027180025002E01D00620BB
:1019D00000E007200190FF236D33534A53A10020FC
:1019E00000F05AFB002E07D157482018007DC00791
:1019F000C00F002800D0FEBDFF2376334A4A4BA11A
:101A0000002000F049FBFF238133474A47A1002013
:101A100000F042FB9F20C0002018401CFEF7CDFCC8
:101A20000546397AFA7908021043002853D03878ED
:101A3000002850D19F20C0002018017AC3790802E5
:101A4000184302462946204600F046F9002803D1F3
:101A50003EA100F021FBCEE7FF238C33324A33A1B5
:101A6000002000F019FB28790007C00F002807D0DC
:101A70003CA1002000F010FB2046FFF73BFFBAE737
:101A80002879C006C00F002807D03AA1002000F036
:101A900003FB2046FFF7E4FEADE728794006C00FC0
:101AA000002811D028798006C00F00280CD0FF2311
:101AB0009D331D4A1DA1002000F0EEFA2A46204663
:101AC0000199FFF72AFE96E7FF23A333164A17A1D1
:101AD000002000F0E1FA2078FF23A633124A29A162
:101AE0000090002000F0D8FA2078012806D00228C3
:101AF00005D0032804D0052812D107E000BF00BF9D
:101B00002A4620460199FFF70BFE09E020462B30BC
:101B1000FEF753FC2A460090019900F0DBFB00BF62
:101B200000BF00BF67E700002454000823232320E0
:101B300066756E6374696F6E3D2573206C696E65A2
:101B40003D2564200A000000D20400005061636B50
:101B5000657420766572696679206661696C656472
:101B6000210A00004C696E6B20536C6565702E0A6B
:101B7000000000004C696E6B2052657365742E0A7C
:101B8000000000002323232066756E6374696F6E66
:101B90003D2573206C696E653D2564207049617038
:101BA000324C696E6B2D3E6D5F53746174653D25DB
:101BB000640A0000FFB581B0044617461E469F2008
:101BC000C00025183B464A2223A1002000F064FAF9
:101BD000272040012018007D401C27214901611861
:101BE00008752AA1002000F057FA01202870691C0E
:101BF0000298FEF7EDFBB9B26971090AA9710021DB
:101C0000E97129722721490161180A984875B0B213
:101C1000284961180875000A487526481F302018A1
:101C2000FEF7CBFB0090284600998847002805D195
:101C300021A100F031FA002005B0F0BD0A9800287B
:101C400008D0002E06D0324601211A48103820183C
:101C500000F0AEFE0120EFE7496170324C696E6B17
:101C60005F5478446174612073697A656F662849AE
:101C70006170324C696E6B526571506B74293D25F1
:101C800064206C656E3D25640A0000004961703275
:101C90004C696E6B5F547844617461207049726264
:101CA0002D3E6D5F6973547820093D20547275652F
:101CB000200A0000E2040000496170324C696E6B3A
:101CC0005F5478446174610972657475726E204660
:101CD000616C736565200A00FEB506460C46154624
:101CE00000279F20C0003018401CFEF766FB0190C3
:101CF000E078A178000208430090092D05DB0098E8
:101D0000A84202D10C48854201DD0020FEBD60786A
:101D10002178000208430949884201D00020F5E7F4
:101D200008212046FFF745FC0746207AB84201D03B
:101D30000020EBE70120E9E71E8000005AFF0000C9
:101D400010B5044610212046FEF733FB0120207019
:101D500060708020A0701E20E07005202071DC20C3
:101D600060710020A071E0710A2020720020607272
:101D700010BD000070B506460C463546002C01D15A
:101D8000002070BD00202060002E07D16060264634
:101D90001B230C4A0CA100F07FF90BE004E02D6836
:101DA000A54201D10020ECE728680028F7D12C607B
:101DB000656000BF0B480068401C0A490860304657
:101DC000DFE70000625400082323232323206675E5
:101DD0006E6374696F6E3D2573206C696E653D2579
:101DE00064200A00040000200148006870470000D9
:101DF000040000207047000000218278002A27D0CC
:101E0000184A03231B02D21803789B109B00D15859
:101E100002789207D30EFF229A400B46934319464D
:101E200042789207120E03789B07DB0E9A4011430B
:101E30000C4A03231B02D21803789B109B00D1503D
:101E40000278D306DB0E01229A40064B1A6007E0A7
:101E50000278D306DB0E01229A40024B80331A60CF
:101E60007047000000E100E010B5002819DA1A4AB6
:101E700003071B0F083B9B089B00D2588307DC0E0F
:101E8000FF23A3409A438B071B0E8407E40EA34055
:101E90001A43114B0407240F083CA408A4001A514C
:101EA00018E00E4A03231B02D21883089B00D25865
:101EB0008307DC0EFF23A3409A438B071B0E840786
:101EC000E40EA3401A43054B032424021B19840883
:101ED000A4001A5110BD00001CED00E000E100E07C
:101EE000002905D0054A52690243044B5A6104E0B7
:101EF000024A52698243014B5A6170470010024006
:101F0000002905D0054AD2690243044BDA6104E096
:101F1000024AD2698243014BDA61704700100240E5
:101F2000002905D0054A12690243044B1A6104E0F6
:101F3000024A12698243014B1A6170470010024045
:101F400010B502460021002300205111002902D1C2
:101F50000C4C23680BE0012902D10A4C236A06E0ED
:101F6000022902D1074C636A01E0064C636BD1067B
:101F7000C90E01248C401C40002C01D0012000E03F
:101F8000002010BD00100240002807D00749496B0F
:101F9000012212041143054A516306E00349496BCB
:101FA000012212049143014A51637047001002401C
:101FB0000549096B80229143034A11631146096B5D
:101FC000014311637047000000100240F8B5044659
:101FD0000D46164600BF0E480078002801D101F0DA
:101FE000BFFD00BFEFF310800746012080F310888B
:101FF00000BF00BF32462946204600F00BF8009093
:10200000F8B280F3108800BF00BF0098F8BD000050
:10201000AC050020F7B582B007461646039801903C
:10202000182078431B494018009000984069002808
:1020300004D0012811D0022826D11EE0009801F01A
:10204000C7FD0546B54201D2002405E034463246BC
:102050000199009801F03FFF18E0009801F0B8FDE9
:102060000546B54201D2284600E0304604462246E5
:102070000199009801F02FFF08E03246019900987D
:1020800001F0ECFE044601E0002400BF00BF204642
:1020900005B0F0BDC40500200FB438B5044606A84D
:1020A00000906A462046059900F008F80546002091
:1020B0000090284638BC08BC04B01847F7B59AB061
:1020C0000D46144602A81590402016900020179047
:1020D0001A9819900020189000BF2E786D1C002EC1
:1020E00000D1E4E0252E79D100270120149000BF13
:1020F0002E78232E12D02B2E0CD02D2E02D0302E47
:1021000010D103E0012007436D1C0EE002200743BD
:102110006D1C0AE0042007436D1C06E008200743FD
:102120006D1C02E00020149000BF00BF149800282E
:10213000DED1129000BF2E78302E01DB392E00DD6B
:1021400008E06D1C0A211298484331463039401886
:102150001290F0E700BF002013902E782E2E11D1A0
:102160006D1C00BF2E78302E01DB392E00DD08E01B
:102170006D1C0A211398484331463039401813909A
:10218000F0E700BF2E7800BF6C2E01D0682E02D180
:102190006D1C2E7800E000E0F6E700BF702E63D0E3
:1021A00008DC252E72D0582E38D0632E09D0642E2C
:1021B00071D114E0732E40D0752E1FD0782E6AD1C5
:1021C0002BE02168081D2060086814901498C0B2A4
:1021D000019015A8019901F01FFE5DE05FE0216804
:1021E000081D2060086814901298019700900A2238
:1021F00015A8139B149901F0F9FC4DE02168081D06
:102200002060086814901298019700900A2215A87F
:10221000139B149901F072FD3EE000BF2168081D78
:10222000206008681490129801970090102215A859
:10223000139B149901F062FD2EE02168081D2060B7
:102240000868019000BF019806780198401C019031
:10225000002E00D106E0314615A801F0DDFD1898EA
:102260000028F0DA00BF17E02168081D2060086828
:102270001490002008210B4610220091019015A80F
:10228000149901F03BFD07E000E004E0252115A8CA
:1022900001F0C2FD00E000BF00BF6D1C03E031464D
:1022A00015A801F0B9FD1898002800DB15E700BF5C
:1022B000189800280BDD1798002804D002A9179A57
:1022C0001A98FFF783FE17991898401818901898D5
:1022D0001DB0F0BDF8B504460D461646062D0BD0D0
:1022E000204600F045F8201DFEF767F8074629460E
:1022F0002046B8470020F8BDE078062806D13246CF
:102300002946204600F052FAC0B2F4E7E0780728E8
:1023100006D132462946204600F09EF8C0B2EAE7D0
:10232000E078082806D132462946204600F070FAA7
:10233000C0B2E0E7E078092806D1324629462046B7
:1023400000F078F9C0B2D6E7E078032805D132462C
:102350002946204600F0FEF9CDE7E078042805D1B3
:1023600032462946204600F00FF8C4E70420C2E7B1
:1023700010B5044603480068FFF716FB0520E0701F
:1023800010BD000028010020F8B505460E46144691
:10239000A5231D4A1DA10020FFF77EFE062E01D0B9
:1023A0000120F8BD2048006820494018FEF705F8D4
:1023B0004079A179884209D11B4800681B4940181F
:1023C000FDF7FBFF80796179884210D016480068DC
:1023D0001649091F4018FDF7F0FF47790097A379C8
:1023E00013A200210846FFF757FE0120D9E728462F
:1023F000FFF7BEFF281DFDF7E0FF0746082128462E
:10240000B8470020CDE70000EE5300082323232027
:1024100066756E6374696F6E3D2573206C696E65B9
:102420003D25640A0000000028010020CA040000C5
:1024300041636B5365714E756D5B307825785D5BDC
:10244000307825785D206973206E6F74206D61741B
:1024500063682E0A00000000F0B589B005460E46FC
:10246000144600200890E078A17800020843079005
:1024700047205F4B5FA2002100900846FFF70CFE4B
:10248000062E02D0012009B0F0BD61480068614904
:102490004018FDF792FF07466846828B2146384672
:1024A000FDF72AFF6846808B09281CDD5848016823
:1024B0005848001D0818FDF780FF09300590544862
:1024C000006854494018FDF778FF09300490284609
:1024D0000830FDF772FF074607AB2846059A0499B6
:1024E000B847089013E04CA200210846FFF7D4FD3E
:1024F0004748006847494018FDF75FFF07464A22F2
:10250000394643480068FFF74DF90020BBE76846AD
:10251000808B002821D13E4800683E490831401890
:10252000FDF74BFF07462146FFF7A1F881B207915F
:1025300037480068374908314018FDF73EFF074625
:102540000020034600906846828B39463048006878
:10255000FFF730FB0320E87047E000210691684652
:10256000007E402188434118069129480168294886
:10257000001D0818FDF721FF093005902448006868
:102580002449091D4018FDF718FF04906846828B06
:10259000E07905996B4607C31D4800682030C27872
:1025A0001B4800682030C078401CC7B2184800683B
:1025B0002030C770637906990498FFF70CF881B250
:1025C0000791134800681349091D4018FDF7F5FEEF
:1025D00007460020034600906846828B39460C4827
:1025E0000068FFF7E7FA0820E87000204BE70000DA
:1025F000B25300082323232066756E6374696F6EDF
:102600003D2573206C696E653D25640A000000005D
:1026100028010020C60400005265636569766520C4
:102620006461746120697320696E76616C69642EDF
:102630000A000000FEB505460E461446E078A17873
:1026400000020843074687232E4A2FA10020FFF7E8
:1026500023FD062E01D00120FEBD3248006832491C
:102660004018FDF7AAFE4079A17988420FD02D4885
:1026700000682D494018FDF7A0FE40790190A2792D
:1026800003462AA10020FFF707FD0120E4E72548C3
:1026900001682548001D0818FDF78FFE3A462146BF
:1026A0000190FDF729FE092F0BD12846FFF760FEA8
:1026B000281DFDF782FE082101902846019A9047C7
:1026C0001EE018480068184908314018FDF775FEEB
:1026D00021460190FEF7CBFF0746124800681249D9
:1026E00008314018FDF769FE0190002003463A4684
:1026F00000900C4801990068FFF75CFA0320E8702D
:102700000020A9E7DA5300082323232066756E63AF
:1027100074696F6E3D2573206C696E653D25640A92
:102720000000000028010020C604000041636B5334
:1027300065714E756D5B307825785D5B30782578F6
:102740005D206973206E6F74206D617463682E0A5A
:1027500000000000F8B505460C461746B7230B4AA3
:102760000BA10020FFF798FC062C01D00120F8BD3A
:10277000062C09D12846FFF7FBFD281DFDF71DFE9D
:10278000064605212846B0470020F0E7025400081D
:102790002323232066756E6374696F6E3D25732055
:1027A0006C696E653D25640A00000000F8B50446BA
:1027B0000D46164632200D4B0DA200210090084612
:1027C000FFF76AFC062D0ED10020034601222146A8
:1027D00000900E480068FFF7EDF9002803D00920AB
:1027E000E0700020F8BD0120FCE700009E530008C7
:1027F0002323232066756E6374696F6E3D257320F5
:102800006C696E653D25640A000000002801002007
:10281000F8B504460D46174676230F4A0FA100204F
:10282000FFF73AFC062D01D00120F8BD12480068E0
:1028300012494018FDF7C1FD06464A2231460E48AE
:102840000068FEF7AFFF002803D00420E0700020EE
:10285000EBE70120E9E70000C6530008232323200B
:1028600066756E6374696F6E3D2573206C696E6565
:102870003D25640A0000000028010020CE0400006D
:1028800010B5044610212046FDF793FD0520E070A9
:1028900010BD000070B50446E078052801D0002086
:1028A00070BD0848006808494018FDF786FD0546D8
:1028B0004A22294603480068FEF774FF0720E070AB
:1028C0000120EDE728010020C60400000346D87867
:1028D000052801D0002070470620D8700120FAE7B3
:1028E0000CB50020019000902F480068012108439A
:1028F0002D49086000BF2C48006802210840009064
:102900000198401C01900098002804D1052109037A
:1029100001988842EFD1244800680221084000282D
:1029200002D00120009001E00020009000980128D2
:1029300038D111201D4908601B4840681A49486079
:10294000084640684860084640687F21C9038843BC
:102950001549486008464068C90008431249486064
:10296000084600680121090608430F49086000BFB6
:102970000D4800680121490608400028F8D00A489F
:102980004068800880000849486008464068022185
:1029900008430549486000BF034840680C210840CF
:1029A0000828F9D10CBD00000010024000200240B0
:1029B000FEB504460E461546002D00D1FEBD21464B
:1029C0000C312846FDF704FDFEF760F90746214665
:1029D0001031FDF7FDFC6675207D40084000401C6D
:1029E000207520461030FDF7E8FC074620460C30E5
:1029F000FDF7E3FC00970190627D034602A10020F1
:102A0000FFF74AFB00BFD9E7496E69742054696D2E
:102A100065722849443D2564292C2054696D6572EE
:102A20006F7574207469636B733D25642C20696E27
:102A300069745469636B733D3078253038780A00C7
:102A4000017D49084900017570470000042806D13E
:102A50000649096904221143044A116105E003494A
:102A6000096904229143014A1161704700E000E0C6
:102A700001B5FEF70BF9024611E0FEF707F9014632
:102A8000914207D20020C043801A4018009B984210
:102A900005D905E0881A009B984200D900E0ECE7D0
:102AA00000BF08BD06480068401C002802D1044948
:102AB000086004E002480068401C01490860704753
:102AC0000001002010B51B48006801210843194986
:102AD000086008464068184908401649486008469A
:102AE000006816490840134908600846006801213B
:102AF000890488430F490860084640683F2109045B
:102B000088430C4948600846C06A00090001C86251
:102B10000846006BFF215431884306490863084684
:102B2000406B40084000486300208860FFF7D8FEF3
:102B300010BD0000001002400CB8FFF8FFFFF6FEC9
:102B400010B50E4C601E0E49884201D901200CE0E0
:102B5000601E0C4948610321081FFFF785F900201A
:102B600008498861072008610020002801D000BFC3
:102B7000FEE70420FFF76AFF10BD000080BB0000E5
:102B8000FFFFFF0000E000E070B585B004460D4691
:102B90001646684604740296019500200390009042
:102BA00001A80FC8FDF76AFF05B070BDFEB5044669
:102BB0000D46164600270E480068012816D96846BB
:102BC0000472019600950023684607C8FDF726FFAA
:102BD00004E07F1C781C002800D1FEBD0548407C25
:102BE000C007C00F0028F4D10120F6E70020F4E769
:102BF00008010020005C004070B50546012D0AD197
:102C000038490020FDF7E4FBFF2036490874002016
:102C10003549086070BD0020344988730846447CFB
:102C2000E007C00F00281CD12E48007CFF2818D0D8
:102C30002C48007C08702E480068002807D12948DD
:102C4000007C002803D001202949086009E02848B9
:102C50000068012805D12348007C002801D12449BF
:102C60000860FF201F49087404202040002808D075
:102C70002021204688431D4948741A490020FDF749
:102C8000A7FB10202040002807D0802020431749B0
:102C9000487414490020FDF79BFB1248FDF78DFB9B
:102CA00000280CD1E007C00F002808D0114A0821E5
:102CB0000020FDF71FFF0F490A4800F01DF80948E2
:102CC000FDF77BFB022803D1064800F05BF807E024
:102CD0000448FDF772FB012802D1024800F02CF8ED
:102CE00000BF97E79B0500200C010020005C00401E
:102CF000080100202001002070B505460C46207810
:102D000060210840002804D0202807D040280AD19C
:102D10000AE02146284600F053FA09E021462846F9
:102D200000F06CF804E000BF60200249487400BF66
:102D300000BF70BD005C0040F8B50446002010499B
:102D400088730846457C16E021460020FDF740FBCD
:102D500020460830FDF731FB0646201DFDF72DFB10
:102D60000746324639460020FDF7C4FE402004499C
:102D700048740846457CE807C00F0028E4D1F8BD38
:102D8000005C0040F8B50446201DFDF716FB402806
:102D900008DC201DFDF711FB0546211D0020FDF775
:102DA00017FB08E04025201DFDF707FB471B211DF1
:102DB0003846FDF70DFB20460830FDF7FEFA0746C2
:102DC0003A4629460020FDF7A9FE20460830FDF7C7
:102DD000F4FA4719214608313846FDF7F9FA402D33
:102DE00005DA0A2621460020FDF7F2FA00E0022665
:102DF00001484674F8BD0000005C004070B505460F
:102E00000C466078030001F08BF80C25070C1125A7
:102E100025252525161B202521462846FDF778FF68
:102E200070BD21462846FDF737FFF9E721462846C1
:102E3000FDF750FFF4E721462846FDF7D3FFEFE703
:102E400021462846FDF798FFEAE721462846FDF788
:102E5000AFFFE5E700BF00BF60200249487400BF34
:102E6000DEE70000005C0040FEB500200190002677
:102E700000275A48807801905848867907790220BF
:102E80003040002802D00220554908708120C0003F
:102E9000304000280CD051488079082188434F49A0
:102EA0008871504800781021884310304D490870CF
:102EB0004D483040002801D000F022F9FF210231B6
:102EC00001980840002802D00020FFF795FE4748EF
:102ED0003840002823D0402245490020FFF754FE07
:102EE00085B20F20FDF78AF904462846FDF786F9DA
:102EF00021460A310090FDF76BFA0020A0732146AD
:102F0000FDF766FA211D0020FDF762FA28B2207253
:102F1000000A6072214637480068FEF72BFF8120C7
:102F200080003840002830D001F056FF4022304960
:102F30000220FFF729FE85B20F20FDF75FF9044656
:102F40002846FDF75BF921460A310090FDF740FA6B
:102F500020460A30FDF731FA2A4625490090FDF750
:102F6000CBF90020A0732146FDF732FA211D002085
:102F7000FDF72EFA28B22072000A607221461D4821
:102F80000068FEF7F7FE01F0A1F81120400138407B
:102F9000002804D0402216490520FFF7F5FD052042
:102FA000C001384000280DD0402211490720FFF70A
:102FB000EBFD0F480078401C0D49087040220620A8
:102FC000FFF7F4FDF007C00F002806D00A4800689C
:102FD000012802D9012002490870FEBD005C0040B2
:102FE000060100201C010020040400000202000071
:102FF000980200200C0000200801002030B50A468D
:10300000164900238C150440002C05D0C91D8D15D0
:103010000446AC43234616E0012464020440002C1D
:1030200006D00E4909314D150446AC4323460AE04B
:103030000124A4020440002C05D008490B310D15D1
:103040000446AC432346002A04D00C78DDB22C435E
:103050000C7002E00C789C430C7030BD005C0040AA
:1030600008B57120FEF76CFF012808D00120FEF79B
:103070008BFF00BF7120FEF763FF0128FAD100200B
:10308000FEF796FF0121C805FEF73AFF012114481B
:10309000FFF7B4FF01211248401EFFF7AFFF0121E7
:1030A0008120C000FFF7AAFF01210D48801CFFF717
:1030B000A5FF012000F016F81F21684601700021CD
:1030C000417001218170FEF797FE0121C806FEF7CD
:1030D00017FF0120FDF764FB0120FDF74FFB08BD42
:1030E0000204000001460020044AD07B80088000D2
:1030F00002460A431046014AD0737047005C004004
:1031000000B589B000202C4908600120FFF774FD4C
:10311000012108A80170881E0790012306A807C88E
:10312000FDF77CFC022108A80170C81E079001234E
:1031300006A807C8FDF772FC032108A80170081F44
:103140000790012306A807C8FDF768FC042108A81A
:103150000170481F0790012306A807C8FDF75EFC11
:10316000062108A80170C81F0790012306A807C8F8
:10317000FDF754FC052168460175402003900020AE
:1031800004900120009002A80FC8FDF777FC0721EA
:1031900068460175402003900020049001200090B3
:1031A00002A80FC8FDF76AFC0448407801210843D3
:1031B0000249487009B000BD08010020005C0040D1
:1031C000F0B589B004460D46002008900790287994
:1031D000029002980007000F039000200190687889
:1031E0000C2870D243007B449B885B009F44D5032E
:1031F0005B036B00F6026B000B0020006B009E026D
:103200003E02CF0276022878002802D001200890E2
:103210000DE0F8480068012807D8E878A97800028E
:10322000084320740120079001E0012008901CE26F
:10323000287880210840002802D10120089014E25B
:10324000E878A97800020843FF2109020840032218
:103250005202811A904237D00CDCFF380138002826
:1032600011D0FF380138002831D0FF38013800284C
:103270007ED112E1FF390139002959D01B2000020B
:10328000081AF5D157E0211DDB480088FDF7A0F8AA
:10329000201DFDF792F8E979AA79090211438842C5
:1032A00007DDE979AA79090211430846211DFDF7D6
:1032B0008FF821460831D148FDF78AF821460220CF
:1032C000FDF786F8D0E1E7E301200890CCE1E8784B
:1032D000A97800020843C0B20590C7480088401E84
:1032E000C649095C0598814202DA012008901EE077
:1032F000211DC3480088FDF76BF821460831C148FD
:10330000FDF766F821460220FDF762F8201DFDF763
:1033100054F8E979AA7909021143884207DDE9796D
:10332000AA79090211430846211DFDF751F89BE1D6
:103330000120089098E16879297900020843030088
:1033400000F0EEFD050426466686A600211DAE4867
:103350000088FDF73DF8201DFDF72FF8E979AA79DF
:1033600009021143884209DDE979AA79090200E0DE
:1033700077E111430846211DFDF72AF8214608315F
:10338000A248FDF725F821460220FDF721F882E04A
:10339000211D9F480088FDF71BF8201DFDF70DF843
:1033A000E979AA7909021143884207DDE979AA7906
:1033B000090211430846211DFDF70AF8214608318C
:1033C0009448FDF705F821460220FDF701F862E078
:1033D000211D91480088FCF7FBFF201DFCF7EDFF45
:1033E000E979AA7909021143884207DDE979AA79C6
:1033F000090211430846211DFCF7EAFF2146083166
:103400008648FCF7E5FF21460220FCF7E1FF42E099
:10341000211D83480088FCF7DBFF201DFCF7CDFF52
:10342000E979AA7909021143884207DDE979AA7985
:10343000090211430846211DFCF7CAFF2146083145
:103440007848FCF7C5FF21460220FCF7C1FF22E0C7
:10345000211D75480088FCF7BBFF201DFCF7ADFF60
:10346000E979AA7909021143884207DDE979AA7945
:10347000090211430846211DFCF7AAFF2146083125
:103480006A48FCF7A5FF21460220FCF7A1FF02E0F5
:103490000120089000BF00BFE6E0E878A9780002AC
:1034A0000843C0B2030000F03BFD050424446484DB
:1034B000D700211D5E480088FCF78AFF201DFCF71D
:1034C0007CFFE979AA7909021143884207DDE9798D
:1034D000AA79090211430846211DFCF779FF21460C
:1034E00008315448FCF774FF21460220FCF770FFB6
:1034F000B5E0211D50480088FCF76AFF201DFCF74D
:103500005CFFE979AA7909021143884207DDE9796C
:10351000AA79090211430846211DFCF759FF2146EB
:1035200008314648FCF754FF21460220FCF750FFC3
:1035300095E0211D42480088FCF74AFF201DFCF75A
:103540003CFFE979AA7909021143884207DDE9794C
:10355000AA79090211430846211DFCF739FF2146CB
:1035600008313848FCF734FF21460220FCF730FFD1
:1035700075E0211D34480088FCF72AFF201DFCF768
:103580001CFFE979AA7909021143884207DDE9792C
:10359000AA79090211430846211DFCF719FF2146AB
:1035A00008312A48FCF714FF21460220FCF710FFDF
:1035B00055E0211D26480088FCF70AFF201DFCF776
:1035C000FCFEE979AA7909021143884207DDE9790D
:1035D000AA79090211430846211DFCF7F9FE21468C
:1035E00008311C48FCF7F4FE21460220FCF7F0FEEF
:1035F00035E0000008010020CE510008BC51000851
:10360000F0510008D05100089A52000858520008A2
:10361000265300089C520008405300082853000815
:1036200066530008425300088C5300086853000892
:10363000F6510008F251000804520008F851000841
:103640002052000806520008565200084052000856
:103650003E520008225200080120089000BF00BF1F
:1036600002E00120089000BF00BF62E2E878A9787C
:1036700000020843C0B20590FC480068002802D14F
:103680000120089026E0FA480088401EF949095CAC
:103690000598814202DA012008901BE00598002875
:1036A00003D10120F149086014E0F348F3490860B0
:1036B000002703E00020F249C8557F1C072FF9DBE3
:1036C000FDF780F80220E94908600020ED49887381
:1036D000012007900120EC4908602AE2E3480068D5
:1036E000012820D96879297907020F43E348006847
:1036F0000490F9B204980079814202DB012008901D
:1037000013E0E878A97800020843DD49C855FDF7C1
:1037100059F8002801D1012008900020D949887368
:103720000120079001E00120089002E2CF480068E4
:10373000012813D1E878A9780002084300280DD1A8
:10374000211D0120FCF744FE21460831A81CFCF78E
:103750003FFE21460220FCF73BFE17E0C34800680D
:10376000012811D9C54800680490211D0120FCF7EB
:103770002FFE214608310498401DFCF729FE214602
:103780000220FCF725FE01E001200890D1E1B748B6
:10379000006801281FD96879297907020F43B748C3
:1037A00000680490F9B204980079814202DB01209C
:1037B000089012E0211D0120FCF70AFEB900B34A6F
:1037C0005158881C21460831FCF702FE2146022090
:1037D000FCF7FEFD01E001200890AAE1287800280E
:1037E00004D0012818D0022858D116E0E878A9782A
:1037F0000002084301280AD1A5480068407820212A
:103800000843A349096848700120079002E001209D
:10381000089000BF00BF44E000BFA878002838D15E
:10382000984903988873287980210840002816D089
:10383000039800280AD09348467C102006439148FC
:103840004674407C9349087000BF1CE08D48467C5C
:10385000202030438B4948740846467C13E0039887
:10386000002808D08748067D202030438549087508
:103870000846067D07E08348467C20203043814986
:1038800048740846467C0120079000207D498873D3
:1038900002E00120089000BF00BF02E00120089074
:1038A00000BF00BF45E12878002804D0012818D0C7
:1038B00002286DD116E0E878A978000208430128B3
:1038C0000AD173480068407820218843704909680C
:1038D00048700120079002E00120089000BF00BF5F
:1038E00059E000BFA87800284DD166490398887335
:1038F000287980210840002821D00398002814D07E
:103900006048467C4021304688435E4948740846FA
:10391000467C467C1021304688435A494874084604
:10392000407C5C49087000BF27E05648467C202157
:1039300030468843534948740846467C1DE0039846
:10394000002811D04F48067D8021304688434D49DC
:1039500008750846067D067D202130468843494982
:1039600008750846067D08E04648467C202130461A
:103970008843444948740846467C0120079000204B
:103980004049887302E00120089000BF00BF02E0B8
:103990000120089000BF00BFCBE02878802804D029
:1039A00081283BD0822860D146E0394800684078C1
:1039B00020210840002806D06946087902210843E2
:1039C0006946087105E0694608790221884369461D
:1039D00008712F480068407840210840002806D030
:1039E00069460879012108436946087105E068467F
:1039F0000079410849006846017100206946487114
:103A0000211D0220FCF7E4FC2146083101A8FCF747
:103A1000DFFC21460220FCF7DBFC85E0211D0220B3
:103A2000FCF7D6FC2146083101A8FCF7D1FC214661
:103A30000220FCF7CDFC77E028798021084000289F
:103A40003DD0039800282CD00E490398887308466F
:103A5000407C104908700846007810210840002872
:103A60001BD001206946087147E05AE00801002098
:103A7000CE510008BC510008D05100080C010020B4
:103A800010010020005C0040F800002030050020FC
:103A9000180100200501002048E000206946087157
:103AA0002BE02E48407C04210840002803D0012050
:103AB0006946087121E00020694608711DE00398FD
:103AC00000280DD02548007D20210840002803D083
:103AD00001206946087110E00020694608710CE079
:103AE0001E48407C04210840002803D0012069467C
:103AF000087102E00020694608710020694648719B
:103B0000211D0220FCF764FC2146083101A8FCF7C6
:103B10005FFC21460220FCF75BFC00200F49887304
:103B200002E00120089000BF00BF02E001200890E1
:103B300000BF00BF0898002802D06020069007E070
:103B40000798002802D04820069001E04020069007
:103B500002490698487409B0F0BD0000005C0040BE
:103B600010B5124C03202061606111A0A0611349BF
:103B7000E1610121890221620021A1626162E162A9
:103B80000BA020660E4961661021A1660021216705
:103B9000E16661670BA1E01DFCF788FB0AA12046E6
:103BA000FCF784FB2020A07110BD0000AC050020B4
:103BB0005465726D696E616C00000000540600204F
:103BC000540A0020525454005345474745520000C0
:103BD00010B501460A69CB689A4204D88C68641E05
:103BE000E41AA01801E0D41A601E10BDFFB585B01C
:103BF00006460F460F9D0E9C002F01DA784200E02A
:103C0000384603900120049007E007990398FCF7D9
:103C1000F1FB03900498401C049007990398884294
:103C2000F3DA04990898884201D908980490002C86
:103C300006D0002F03DB04202840042800D1641E96
:103C400002202840002802D00898002815D0E80754
:103C5000C00F002811D1002C0FD008E0641E2021D5
:103C6000304600F0D9F8F068002800DA04E0002CB3
:103C700002D00498A042F1D300BFF06800283ADBDC
:103C8000002F05DA7F422D21304600F0C5F807E00D
:103C900004202840042803D12B21304600F0BCF832
:103CA000F068002827DB02202840022818D1E80706
:103CB000C00F002814D10898002811D1002C0FD073
:103CC00008E0641E3021304600F0A6F8F0680028B5
:103CD00000DA04E0002C02D00498A042F1D300BF27
:103CE000F068002807DB0195009439463046089BB0
:103CF000079A00F003F809B0F0BD0000FFB585B0E9
:103D0000064617461D460E9C069802900120039019
:103D1000019007E039460298FCF762FB0290019897
:103D2000401C01900298B842F4D20198854200D913
:103D300001950F98C007C00F00281DD1002C1BD083
:103D400002210F980840022804D1002D02D1302012
:103D5000009001E02020009008E0641E30460099A9
:103D600000F05AF8F068002800DA04E0002C02D0D5
:103D70000198A042F1D300BFF068002848DB0FE0B3
:103D8000012D01D96D1E08E003990698FCF728FB68
:103D900004900498B84200D203E00398784303905B
:103DA000EEE700BF00BF03990698FCF719FB0490EB
:103DB0000399049848430699081A0690154A0498EE
:103DC000115C304600F028F8F068002800DA07E0BF
:103DD00039460398FCF704FB039003980028E2D1CE
:103DE00000BF0F98C007C00F002811D0002C0FD0C3
:103DF00008E0641E2021304600F00EF8F06800282C
:103E000000DA04E0002C02D00198A042F1D300BFF8
:103E100009B0F0BD8E53000870B504460E46A56883
:103E2000681C6168814206D320684655681CA06002
:103E3000E068401CE0606168A06888420DD1A2681B
:103E400021682069FEF7C2F8A168884203D00020EB
:103E5000C043E06001E00020A06070BDF7B582B013
:103E60000446174600200190E56800BF20690090D5
:103E70000098A84203D90098401B461E04E0A168A0
:103E80000098281A401C0E1AA068401BB04201D9A5
:103E9000304601E0A068401B0646BE4201D23046D3
:103EA00000E0384606466168481932460399FCF737
:103EB00023FA019880190190039880190390BF1B81
:103EC000AD19A068A84200D10025E560002FCDD132
:103ED000019805B0F0BDF7B582B004461546E66816
:103EE000A068871BAF4208D9616888192A460399E0
:103EF000FCF702FA7019E06010E001976168881918
:103F0000019A0399FCF7F8F9E81B0190039AD1197B
:103F10006068019AFCF7F0F90198E06005B0F0BD27
:103F200030B47446641E2578641CAB4204D3635DD0
:103F30005B00E31830BC18471D46F8E7F0B5A1B0A8
:103F40000446802101A8FCF736FA00270226204605
:103F500000F075F9802201A920464E3000F0CBF820
:103F6000074600253CE001A8405DB7281ED008DCCC
:103F7000B0380300FFF7D4FF071816281719281BBD
:103F80002800BF280BD004DCBA2811D0BE281BD1D2
:103F900004E0C12804D0C72816D102E000BF00BF4A
:103FA00000BF00BF00BF00BF00BF00BF00BF00BF19
:103FB000A420005D002806D101A8415DA220015582
:103FC0000121A420015508E001A8415D3046721C82
:103FD000D6B222469A32115400BF00BF681CC5B247
:103FE000BD4201DA082EBEDBA420005D02280FD1FD
:103FF000A220015D20464E3000F06CF8002807D169
:104000002046A2300021017041700321A4200155F7
:1040100020464E3000F001FB21B0F0BD10B5144633
:1040200003220A70A222125CB72A2FD008DCB03A11
:104030001300FFF775FF071217491C214926490095
:10404000BF2A32D004DCBA2A25D0BE2A3CD127E0D0
:10405000C12A2FD0C72A37D131E0B5224A700022B9
:104060008A7031E0B6224A7000228A702CE0CD229C
:104070004A7000228A7027E0E2224A7000228A7089
:1040800022E0E9224A7000228A701DE0EA224A708A
:1040900000228A7018E030224A7000228A7013E0F1
:1040A00070224A7000228A700EE06F224A7000224D
:1040B0008A7009E023224A7002228A7004E0AE224C
:1040C0004A7001228A7000BF00BF10BD10B500F019
:1040D000D7FA10BD10B502460807C00E105AF023DB
:1040E0000B401C110123A3401840F0230B401B116F
:1040F0001841C0B210BDF7B504460F46002300209A
:10410000002123E04D00655B002D1DD0002219E049
:10411000012595404E00A65B3540002D10D0029D34
:10412000A84200DBFEBD1D4615432B461D072B0E86
:104130001D460D432B460546461CF0B27B55002319
:10414000551CEAB2102AE3DB4D1CE9B21029D9DB79
:1041500000BFE7E7F3B587B0044600200390029064
:1041600020780690002001902078059020460A30A3
:10417000FCF723F9019000255CE0002650E0A9003F
:10418000089840580121B1400840002843D0002041
:10419000049015E00498410020460E300918487834
:1041A0000978000208430121B1400840002803D0EB
:1041B0000398401CC0B203900498401CC0B2049005
:1041C000617804988142E5DC002712E0690020460E
:1041D0000E30091848780978000208430121B940D7
:1041E0000840002803D00298401CC0B20290781CFE
:1041F000C7B22078B842E9DC0398022802DB0298B3
:10420000022808DA06986843019A8018815D2046E2
:104210004E3000F009FA002003900290701CC6B2E4
:104220002078B04204DDA900089840580028A6D1A3
:10423000681CC5B26078A8429FDC09B0F0BD70B5BB
:104240000446002519E02846E030C1B220464E3031
:10425000FFF740FF00280ED02846E030C1B22046CC
:104260004E3000F0EFF99A20005D0121A94008438B
:10427000C1B29A200155681CC5B2082DE3DB70BDA0
:1042800070B50446AF2120464E30FFF723FF0028CB
:104290004ED0AF2120464E3000F0D4F929212046DF
:1042A0004E30FFF717FF002814D029480078002867
:1042B00010D10120264908708E20005D0121484060
:1042C0008E2108558E20025D012149032148FCF70B
:1042D000D7FC0DE0292120464E30FFF7FBFE0028D9
:1042E00006D11B480078002802D000201849087029
:1042F000292120464E3000F0A5F98E20005D0028CF
:104300000AD020469030FCF758F805469420025D0C
:104310002946204600F011FC20469530FCF74DF868
:1043200005469920025D2946204600F006FC0EE075
:104330008E20005D00280AD120469030FCF73DF821
:1043400005469420025D2946204600F0F6FB70BD2C
:10435000FC00002000080048F0B50F4616461C4639
:10436000059D01211A48FCF7A5FD00211848FCF71E
:10437000F3FD39461648FCF703FE31461448FCF7B6
:10438000FDFD01211248FCF795FD0121890210482D
:10439000FCF7E2FD39460E48FCF7F2FD0BE06D1E1E
:1043A000002D03D100210A48FCF74EFD0848FCF718
:1043B000E1FD2070641C002DF1D101210448FCF7BF
:1043C00087FD01210248FCF73FFD0020F0BD000001
:1043D00000540040F0B50E4615461C46059F0121CD
:1043E0000F48FCF767FD00210D48FCF7B5FD31468D
:1043F0000B48FCF7C5FD29460948FCF7BFFD04E062
:1044000021780748FCF7BAFD641C38467F1E002857
:10441000F6D101210248FCF75BFD0020F0BD000051
:1044200000540040F8B5054600241AE0A81CFBF72C
:10443000C4FF0A2161434018071D3846FBF7BDFF42
:1044400086B2A81CFBF7B9FF0A216143471838461A
:10445000FBF7B3FF07223146009000F055FC601CCB
:10446000C4B22878A042E1DC00241AE0A81DFBF7C2
:10447000A4FF0A2161434018071D3846FBF79DFF42
:1044800086B2A81DFBF799FF0A21614347183846F9
:10449000FBF793FF07223146009000F035FC601CCB
:1044A000C4B26878A042E1DCF8BDF8B50546002446
:1044B0001AE0A81DFBF781FF0A2161434018071D80
:1044C0003846FBF77AFF86B2A81DFBF776FF0A2174
:1044D000614347183846FBF770FF072231460090CA
:1044E00000F012FC601CC4B26878A042E1DC002439
:1044F00033E0A81CFBF761FF0A2161434018071D48
:104500003846FBF75AFF86B2A81CFBF756FF0A2174
:10451000614347183846FBF750FF042231460090AC
:1045200000F0F2FBA81CFBF748FF0A21614340188A
:10453000071D3846FBF741FF86B2A81CFBF73DFF7D
:104540000A21614347183846FBF737FF01223146FD
:104550000090FCF795FB601CC4B22878A042C8DC30
:10456000F8BDF8B5054600241AE0A81CFBF725FFA6
:104570000A2161434018071D3846FBF71EFF86B22B
:10458000A81CFBF71AFF0A21614347183846FBF7BE
:1045900014FF07223146009000F0B6FB601CC4B245
:1045A0002878A042E1DC002433E0A81DFBF705FFDA
:1045B0000A2161434018071D3846FBF7FEFE86B20C
:1045C000A81DFBF7FAFE0A21614347183846FBF79E
:1045D000F4FE04223146009000F096FBA81DFBF784
:1045E000ECFE0A2161434018071D3846FBF7E5FE43
:1045F00086B2A81DFBF7E1FE0A2161434718384641
:10460000FBF7DBFE012231460090FCF739FB601C12
:10461000C4B26878A042C8DCF8BD10B504462021B9
:104620002046FBF7C6FE10BD10B50A07D20E825A0F
:10463000F0230B401C110123A3401A430B07DB0E90
:10464000C25210BD10B50A07D20E825AF0230B4099
:104650001C110123A3409A430B07DB0EC25210BD6D
:1046600008B51F2168460170002141708170FDF777
:10467000C3FB00200149087008BD000004010020B0
:1046800008B50120054908701F2168460170002106
:10469000417001218170FDF7AFFB08BD04010020CE
:1046A0008EB000BF002400BFFEF74AFA4048FCF776
:1046B000E5FB2846FCF76EFC29463D48FCF716FC56
:1046C00001213B48FCF7CEFBFEF7CAFC0121480460
:1046D000FDF706FC01218804FDF702FC0121C80456
:1046E000FDF7FEFB01218805FDF7FAFB31A1002053
:1046F000FDF7D2FC32480068FDF77CFB31480068CA
:10470000FDF778FB03E03048FEF7B2F900E0FAE786
:1047100000BF2EA10020FDF7BFFC314931480068E1
:10472000FCF7C0FF01A8FCF7B1FE2E480068FDF7BA
:10473000E3F83BE0C3239B002B4A2CA10020FDF7AC
:10474000ABFC00BFFCF7D0F800BF06212E48FBF7FA
:1047500032FEFDF749FB0446C7239B00224A2BA1EA
:1047600000200094FDF798FC33480078002807D11A
:1047700032A1FDF791FC7D20C000FEF779F915E02C
:10478000314800F07AF9304800F0CAF82E4800F0BD
:104790005DF82D48FFF774FD2B48FFF7CFFB2A4843
:1047A00000F082FA284800F059FA00BFC2E7000082
:1047B000005400406732672073746172740A00000D
:1047C000080000200C00002088130000787878781A
:1047D00020625F636F6E666967203D3D20310A008D
:1047E000A109000828010020B65100082323232036
:1047F00066756E6374696F6E3D2573206C696E65B6
:104800003D25640A0000000010000020232323201F
:1048100066756E6374696F6E3D2573206C696E6595
:104820003D2564206C6973745F646174615F636FBC
:10483000756E743D25640A0000000020636F6E747D
:10484000696E7565200A00003A000020F0B5A3B03B
:104850000446802102A8FBF7AEFD277800200190D6
:104860002078229020460A30FBF7A7FD01902046D1
:104870004E30FFF7D2FE00253DE000262CE0690017
:1048800020460E30091848780978000208430121B3
:10489000B140084000281DD038466843019A80186E
:1048A000815D20466E30FFF715FC002809D03846A0
:1048B0006843019A8018815D20464E30FFF7B4FEB0
:1048C00008E0A80002A908580121B1400843A90046
:1048D00002AA5050701CC6B22078B04209DD6900AF
:1048E00020460E300918487809780002084300284D
:1048F000C5D1681CC5B26078A842BEDC02A92046BA
:10490000FFF728FC402120460E30FBF752FD202205
:1049100021464E3120466E30FBF7EEFC23B0F0BD51
:10492000FEB504462046FFF77DFD0025A0E00026E9
:104930008EE0690020460E30091848780978000298
:1049400008430121B140084000287FD0A01DFBF79B
:1049500034FD0A2169434018071D3846FBF72DFD39
:1049600080B20190A01DFBF728FD0A21694347187A
:104970003846FBF722FD05220090019900F0C4F9AA
:10498000A01DFBF71AFD0A2169434018071D384690
:10499000FBF713FD80B20190A01DFBF70EFD0A216D
:1049A000694347183846FBF708FD0122009001993A
:1049B000FCF766F900BF00BFA01CFBF7FEFC0A2154
:1049C00071434018071D3846FBF7F7FC80B2019091
:1049D000A01CFBF7F2FC0A21714347183846FBF78D
:1049E000ECFC00900199FCF741F9002811D1690015
:1049F00020460E3009184878097800020843012142
:104A0000B14088436A0021460E3151180870000AEF
:104A10004870A01DFBF7D1FC0A2169434018071D0F
:104A20003846FBF7CAFC80B20190A01DFBF7C5FC1D
:104A30000A21694347183846FBF7BFFC072200905C
:104A4000019900F061F900E000E000BF701CC6B2FF
:104A50002078B0420ADD690020460E3009184878F7
:104A6000097800020843002800D062E7681CC5B23C
:104A70006078A84200DD5AE7FEBDFEB504462778FF
:104A8000002000902078019020460A30FBF795FC2A
:104A900000902046FFF7C6FC2046FFF762FD204647
:104AA00000F0A2F82046FFF700FD204600F064F871
:104AB00000253EE0002637E06078410020460E30B9
:104AC000091848780978000208430121B1400840DC
:104AD000002827D0690020460E3009184878097848
:104AE000000208432278012191400840002819D093
:104AF0003846684300994018805D002812D069004C
:104B000020460E3009184878097800020843012130
:104B1000B140084381B26A0020460E30101801707F
:104B2000090A4170701CC6B22078B042C4DC681C0F
:104B3000C5B26078A842BDDCFEBDF8B505460E469C
:104B40001746002415E06000315C28464E30FFF720
:104B5000C1FA00280CD06000315C28464E30FFF7C7
:104B600071FD60008019417828464E30FFF75CFDEA
:104B7000641CBC42E7DBF8BDF8B5044600252FE015
:104B8000A01DFBF71AFC0A2169434018071D38468F
:104B9000FBF713FC86B2A01DFBF70FFC0A2169434B
:104BA00047183846FBF709FC31460090FCF75EF8E1
:104BB000002813D0690020460E300918487809787B
:104BC00000020843227801219140084381B26A0023
:104BD00020460E3010180170090A4170681CC5B2D9
:104BE0006078A842CCDCF8BDF8B50446002530E07A
:104BF000A01CFBF7E2FB0A2169434018071D384659
:104C0000FBF7DBFB86B2A01CFBF7D7FB0A2169434D
:104C100047183846FBF7D1FB31460090FCF726F8E1
:104C2000002814D06078410020460E3009184878DA
:104C30000978000208430121A940084381B2607845
:104C4000420020460E3010180170090A4170681C9D
:104C5000C5B22078A842CBDCF8BD000038B50446C8
:104C600010A000680090A420005D01280DD103224F
:104C700069462046FFF7D2F9032269460220FDF774
:104C800095FF0221A42001550BE0A420005D03281C
:104C900007D1032269460220FDF788FF0021A420E6
:104CA000015538BD030000007CB5044600250020F6
:104CB0000AE02146A5310A5C0B39095C8A4201D120
:104CC000691CCDB2411CC8B20828F2DB082D15DAE8
:104CD000002000900190082221469A316846FBF797
:104CE0000BFB082269460120FDF760FF08222146E0
:104CF0009A312046A530FBF7FFFA00BF0821204675
:104D00009A30FBF756FB7CBD7CB506460C46154633
:104D10002B00FFF705F908050F19242E39444F59C8
:104D200000940021684601718171032141710021C5
:104D3000C1714AE00094002168460171817103212C
:104D400041710021C17140E0009400216846017169
:104D500001218171032141710121C17135E000946C
:104D60000021684601718171032141710121C171E6
:104D70002BE000940121684601710021817103211B
:104D800041710021C17120E0009401216846017148
:104D900000218171032141710121C17115E000944D
:104DA00001216846017100218171032141710221B5
:104DB000C1710AE0009400216846017181710321EC
:104DC00041710221C17100E000BF00BF6946304659
:104DD000FBF704FF7CBD000010B5034800780028F5
:104DE00001D0FFF73DFC10BD04010020F0B5FFB07D
:104DF000FFB083B00F460024402168460171417125
:104E00006821017200214172A41D0625FF200002C5
:104E10002840011201AA115501A8611C4554002027
:104E200001A9A21C8854E21C8854221D8854012028
:104E3000621D8854641900BFFF2000022840001240
:104E4000085501A8611C4554002001A9A21C8854E2
:104E50000120E21C88540520221D8854AC20621DCC
:104E60008854641900BFFF20000228400012085532
:104E700001A8611C4554002001A9A21C88540220ED
:104E8000E21C88541220221D8854A820621D8854D8
:104E900064196325FF20000228400012085501A86C
:104EA000611C4554002001A9A21C88540420E21C66
:104EB0008854221D88185F221A49FBF71DFA6419CD
:104EC000FF2000022040011268468171C4713E46F5
:104ED0001549B170080AF070012189023170080A81
:104EE0007070301DFBF769FA00280AD171783278AA
:104EF000090211430846FBF781F9311D0090FBF7C9
:104F000067FA301DFBF759FA00907078317800028B
:104F10000843024601A90098FBF7EEF97FB07FB085
:104F200003B0F0BD2E02002001AA000070B50546B6
:104F30000C46002C21DD224610A10020FDF7ACF824
:104F4000002605E0AA5D16A10020FDF7A5F8761C55
:104F5000A642F7DB14A10020FDF79EF8E2B2294635
:104F60000120FDF723FE012803D016A10020FDF744
:104F700093F81CA10020FDF78FF870BD7573625F78
:104F800073656E645F646174615F627566666572A5
:104F900020646174615F73697A653D25640A00006D
:104FA0003078253032782000200A207573625F73D4
:104FB000656E645F646174615F62756666657220C8
:104FC0000A000000200A207573625F73656E645FDB
:104FD000646174615F627566666572206572726F86
:104FE00072200A00200A207573625F73656E645F29
:104FF000646174615F62756666657220737563656E
:1050000065737366756C200A00000000000000489C
:105010000100000000000000004802000000000144
:1050200000000048040000000002000000480800E2
:105030000000000300000048100000000004000011
:10504000004820000000000500000048400000006B
:10505000000600000048800000000007000400482F
:1050600001000000010000040048020000000101EE
:10507000000400480400000001020004004800048D
:105080000000010A0004004800080000010B0004B1
:10509000004800100000010C00040048002000003F
:1050A000010D0004004800400000010E000400480B
:1050B00000800000010F0000004800800000000F89
:1050C000000400480800000001030004004810002C
:1050D0000000010400040048200000000105000455
:1050E0000048400000000106000400488000000065
:1050F00001070008004800400000020E00140048AC
:105100000100000005000014004802000000050135
:105110000000000000E30000E600E20000000000E4
:1051200000E700000000E03E51002C0000004600B7
:105130004F0000000000000050005200000000007E
:1051400011100B0D181C2324000000E500E10000E5
:10515000001B00161A393A1F000000000000000072
:10516000000000000000000045284431002A4243AE
:105170000037000F1240412600363F0E0C302E251E
:1051800038AF3433132F2D2700000000000000003B
:1051900005190A091517222198063D07083C3B20EE
:1051A000694150325061636B65745061727365423E
:1051B0007566666572006D61696E0000120110020D
:1051C000000000404F1C72000100010203011200A8
:1051D0000902200001010080320904000002FFF0F2
:1051E000000407058102400000070502024000009C
:1051F00020000403090404000C034A0044002D00AD
:1052000044005A000C001A036D006600690020007B
:105210006B006500790062006F006100720064003D
:105220001A001C03690041005000200049006E0074
:1052300074006500720066006100630065001C0078
:10524000160332003000320032002D0030003300EF
:105250002D0032003800160005010906A1010507DE
:1052600019E029E7150025017501950881029501CE
:105270007508810195057501050819012905910237
:1052800095017503910195067508150026FF000527
:105290000719002AFF008100C00041000501090232
:1052A000A10185010901A1000509190129051500C0
:1052B000250195057501810295017503810305019D
:1052C0000930093109381581257F75089503810654
:1052D000050C0A380295018106C0C005010980A1AC
:1052E000018502150126B700190129B7751095012E
:1052F0008100C0050C0901A10185031501269C0848
:1053000019012A9C08751095018100C00501090644
:10531000A1018506050719042973150025017501EA
:1053200095788102C000890005010906A1010507E1
:105330001904297315002501750195788102C000B3
:1053400017000600FF0A00FFA101150026FF0075E7
:10535000089540090181000901150026FF00750824
:1053600095409100C00023000600FF0A00FFA10144
:10537000150026FF00750895200901810009011517
:105380000026FF00750895209100C00023003031F1
:105390003233343536373839414243444546536514
:1053A0007373696F6E4D67725F46736D54785265A3
:1053B000710053657373696F6E4D67725F46736DED
:1053C00052785265710053657373696F6E4D6772E1
:1053D0005F46736D54785273700053657373696FD1
:1053E0006E4D67725F46736D5278527370005365ED
:1053F0007373696F6E4D67725F46736D5278416368
:105400006B0053657373696F6E4D67725F46736DA2
:10541000547841636B00496170324C696E6B5F5226
:1054200065547800496170324C696E6B5F547261EB
:105430006E73666572446F6E6500496170324C69C7
:105440006E6B5F52756E004472697665725F436879
:1054500065636B004472697665725F5278446F6E63
:1054600065004C697374557362446174615F416493
:10547000645461696C004C6973745573624461745F
:10548000615F52656D6F766500000000AC540008E6
:10549000000000209802000024070008245600089D
:1054A000980200203815000004010008011C102398
:1054B0003ABE3BBF3CC13DC740B141B342B043B42B
:1054C00044B745B646BA504A4F4D524B514E08125A
:1054D0000C501B085C04131051028208221C1C2073
:1054E0000B3205024404134C05C22013640A152034
:1054F000FF550216EE10FF550E9B13FF0124EB40E3
:1055000040131D012211200D4D4649204B455942A3
:105510004F415244120B20080153313030383612BB
:10552000092E0244454D4F142A0314233130120A28
:105530001A040A3A300A27055265762031122A13D6
:10554000066816680268034C10104C024C034C05A8
:105550004C064C074C084C09501650025003DA1404
:10556000DA02AE15AE02AE03121810160768014C2F
:10557000014C045001DA01AE014E094E0A4E0B4EA9
:105580000C12051308021A06712112072C0C656E05
:10559000072A0D0712261A0F18211A011C26016965
:1055A00041503212041A02302B0306052A07051255
:1055B00008121F5A122619BE2752656D6F74651A9C
:1055C00005282905100B0105010906A1010508158B
:1055D000180D25010902750195019102750706183C
:1055E0000803050719E029E712150881021513269B
:1055F000FF1219132AFF1675089505813B050C301B
:10560000B023400A21020AAE0109B609CD09B50945
:10561000E209EA09E909307101950A8102750695E6
:04562000018103C041
:04000005080000C12E
:00000001FF
